{
	"contracts/Staking/staking.sol": {
		"Staking": {
			"abi": [
				{
					"inputs": [
						{
							"internalType": "address",
							"name": "_token",
							"type": "address"
						}
					],
					"stateMutability": "nonpayable",
					"type": "constructor"
				},
				{
					"anonymous": false,
					"inputs": [
						{
							"indexed": true,
							"internalType": "address",
							"name": "previousOwner",
							"type": "address"
						},
						{
							"indexed": true,
							"internalType": "address",
							"name": "newOwner",
							"type": "address"
						}
					],
					"name": "OwnershipTransferred",
					"type": "event"
				},
				{
					"inputs": [
						{
							"internalType": "uint256",
							"name": "_id",
							"type": "uint256"
						}
					],
					"name": "calculateReward",
					"outputs": [
						{
							"internalType": "uint256",
							"name": "",
							"type": "uint256"
						}
					],
					"stateMutability": "view",
					"type": "function"
				},
				{
					"inputs": [
						{
							"internalType": "uint256",
							"name": "_id",
							"type": "uint256"
						}
					],
					"name": "calculateRewardTillTime",
					"outputs": [
						{
							"internalType": "uint256",
							"name": "",
							"type": "uint256"
						},
						{
							"internalType": "uint256",
							"name": "",
							"type": "uint256"
						}
					],
					"stateMutability": "view",
					"type": "function"
				},
				{
					"inputs": [
						{
							"internalType": "uint256",
							"name": "_id",
							"type": "uint256"
						}
					],
					"name": "claimAmount",
					"outputs": [],
					"stateMutability": "nonpayable",
					"type": "function"
				},
				{
					"inputs": [
						{
							"internalType": "uint256",
							"name": "_id",
							"type": "uint256"
						}
					],
					"name": "claimRewards",
					"outputs": [],
					"stateMutability": "nonpayable",
					"type": "function"
				},
				{
					"inputs": [
						{
							"internalType": "uint256",
							"name": "_id",
							"type": "uint256"
						}
					],
					"name": "getDetails",
					"outputs": [
						{
							"components": [
								{
									"internalType": "address",
									"name": "user",
									"type": "address"
								},
								{
									"internalType": "uint256",
									"name": "amountStake",
									"type": "uint256"
								},
								{
									"internalType": "uint256",
									"name": "time",
									"type": "uint256"
								},
								{
									"internalType": "uint256",
									"name": "tenure",
									"type": "uint256"
								}
							],
							"internalType": "struct Staking.stakerInfo",
							"name": "",
							"type": "tuple"
						}
					],
					"stateMutability": "view",
					"type": "function"
				},
				{
					"inputs": [],
					"name": "getStakeContractBalance",
					"outputs": [
						{
							"internalType": "uint256",
							"name": "",
							"type": "uint256"
						}
					],
					"stateMutability": "view",
					"type": "function"
				},
				{
					"inputs": [
						{
							"internalType": "uint256",
							"name": "_id",
							"type": "uint256"
						}
					],
					"name": "getStakingDetails",
					"outputs": [
						{
							"internalType": "address",
							"name": "user",
							"type": "address"
						},
						{
							"internalType": "uint256",
							"name": "amountStaked",
							"type": "uint256"
						},
						{
							"internalType": "uint256",
							"name": "tenure",
							"type": "uint256"
						},
						{
							"internalType": "uint256",
							"name": "time",
							"type": "uint256"
						},
						{
							"internalType": "uint256",
							"name": "claimableReward",
							"type": "uint256"
						}
					],
					"stateMutability": "view",
					"type": "function"
				},
				{
					"inputs": [
						{
							"internalType": "address",
							"name": "",
							"type": "address"
						},
						{
							"internalType": "uint256",
							"name": "",
							"type": "uint256"
						}
					],
					"name": "id",
					"outputs": [
						{
							"internalType": "uint256",
							"name": "",
							"type": "uint256"
						}
					],
					"stateMutability": "view",
					"type": "function"
				},
				{
					"inputs": [
						{
							"internalType": "address",
							"name": "_user",
							"type": "address"
						}
					],
					"name": "idByAddress",
					"outputs": [
						{
							"internalType": "uint256[]",
							"name": "",
							"type": "uint256[]"
						}
					],
					"stateMutability": "view",
					"type": "function"
				},
				{
					"inputs": [
						{
							"internalType": "uint256",
							"name": "a",
							"type": "uint256"
						},
						{
							"internalType": "uint256",
							"name": "b",
							"type": "uint256"
						}
					],
					"name": "min",
					"outputs": [
						{
							"internalType": "uint256",
							"name": "",
							"type": "uint256"
						}
					],
					"stateMutability": "pure",
					"type": "function"
				},
				{
					"inputs": [],
					"name": "owner",
					"outputs": [
						{
							"internalType": "address",
							"name": "",
							"type": "address"
						}
					],
					"stateMutability": "view",
					"type": "function"
				},
				{
					"inputs": [],
					"name": "renounceOwnership",
					"outputs": [],
					"stateMutability": "nonpayable",
					"type": "function"
				},
				{
					"inputs": [
						{
							"internalType": "uint256",
							"name": "_stakeAmount",
							"type": "uint256"
						},
						{
							"internalType": "uint256",
							"name": "_time",
							"type": "uint256"
						}
					],
					"name": "stake",
					"outputs": [
						{
							"components": [
								{
									"internalType": "address",
									"name": "user",
									"type": "address"
								},
								{
									"internalType": "uint256",
									"name": "amountStake",
									"type": "uint256"
								},
								{
									"internalType": "uint256",
									"name": "time",
									"type": "uint256"
								},
								{
									"internalType": "uint256",
									"name": "tenure",
									"type": "uint256"
								}
							],
							"internalType": "struct Staking.stakerInfo",
							"name": "",
							"type": "tuple"
						}
					],
					"stateMutability": "nonpayable",
					"type": "function"
				},
				{
					"inputs": [
						{
							"internalType": "uint256",
							"name": "",
							"type": "uint256"
						}
					],
					"name": "stakeInformation",
					"outputs": [
						{
							"internalType": "address",
							"name": "user",
							"type": "address"
						},
						{
							"internalType": "uint256",
							"name": "amountStake",
							"type": "uint256"
						},
						{
							"internalType": "uint256",
							"name": "time",
							"type": "uint256"
						},
						{
							"internalType": "uint256",
							"name": "tenure",
							"type": "uint256"
						}
					],
					"stateMutability": "view",
					"type": "function"
				},
				{
					"inputs": [
						{
							"internalType": "uint256",
							"name": "",
							"type": "uint256"
						}
					],
					"name": "timeid",
					"outputs": [
						{
							"internalType": "uint256",
							"name": "",
							"type": "uint256"
						}
					],
					"stateMutability": "view",
					"type": "function"
				},
				{
					"inputs": [],
					"name": "token",
					"outputs": [
						{
							"internalType": "contract IERC20",
							"name": "",
							"type": "address"
						}
					],
					"stateMutability": "view",
					"type": "function"
				},
				{
					"inputs": [
						{
							"internalType": "address",
							"name": "newOwner",
							"type": "address"
						}
					],
					"name": "transferOwnership",
					"outputs": [],
					"stateMutability": "nonpayable",
					"type": "function"
				}
			],
			"devdoc": {
				"kind": "dev",
				"methods": {
					"owner()": {
						"details": "Returns the address of the current owner."
					},
					"renounceOwnership()": {
						"details": "Leaves the contract without owner. It will not be possible to call `onlyOwner` functions. Can only be called by the current owner. NOTE: Renouncing ownership will leave the contract without an owner, thereby disabling any functionality that is only available to the owner."
					},
					"transferOwnership(address)": {
						"details": "Transfers ownership of the contract to a new account (`newOwner`). Can only be called by the current owner."
					}
				},
				"version": 1
			},
			"evm": {
				"assembly": "    /* \"contracts/Staking/staking.sol\":173:6199  contract Staking is Ownable{... */\n  mstore(0x40, 0x80)\n    /* \"contracts/Staking/staking.sol\":232:293  constructor(address _token){... */\n  callvalue\n  dup1\n  iszero\n  tag_1\n  jumpi\n  0x00\n  dup1\n  revert\ntag_1:\n  pop\n  mload(0x40)\n  sub(codesize, bytecodeSize)\n  dup1\n  bytecodeSize\n  dup4\n  codecopy\n  dup2\n  dup2\n  add\n  0x40\n  mstore\n  dup2\n  add\n  swap1\n  tag_2\n  swap2\n  swap1\n  tag_3\n  jump\t// in\ntag_2:\n    /* \"@openzeppelin/contracts/access/Ownable.sol\":936:968  _transferOwnership(_msgSender()) */\n  tag_7\n    /* \"@openzeppelin/contracts/access/Ownable.sol\":955:967  _msgSender() */\n  tag_8\n    /* \"@openzeppelin/contracts/access/Ownable.sol\":955:965  _msgSender */\n  shl(0x20, tag_9)\n    /* \"@openzeppelin/contracts/access/Ownable.sol\":955:967  _msgSender() */\n  0x20\n  shr\n  jump\t// in\ntag_8:\n    /* \"@openzeppelin/contracts/access/Ownable.sol\":936:954  _transferOwnership */\n  shl(0x20, tag_10)\n    /* \"@openzeppelin/contracts/access/Ownable.sol\":936:968  _transferOwnership(_msgSender()) */\n  0x20\n  shr\n  jump\t// in\ntag_7:\n    /* \"contracts/Staking/staking.sol\":279:285  _token */\n  dup1\n    /* \"contracts/Staking/staking.sol\":265:270  token */\n  0x01\n  0x00\n    /* \"contracts/Staking/staking.sol\":265:286  token= IERC20(_token) */\n  0x0100\n  exp\n  dup2\n  sload\n  dup2\n  0xffffffffffffffffffffffffffffffffffffffff\n  mul\n  not\n  and\n  swap1\n  dup4\n  0xffffffffffffffffffffffffffffffffffffffff\n  and\n  mul\n  or\n  swap1\n  sstore\n  pop\n    /* \"contracts/Staking/staking.sol\":232:293  constructor(address _token){... */\n  pop\n    /* \"contracts/Staking/staking.sol\":173:6199  contract Staking is Ownable{... */\n  jump(tag_12)\n    /* \"@openzeppelin/contracts/utils/Context.sol\":640:736  function _msgSender() internal view virtual returns (address) {... */\ntag_9:\n    /* \"@openzeppelin/contracts/utils/Context.sol\":693:700  address */\n  0x00\n    /* \"@openzeppelin/contracts/utils/Context.sol\":719:729  msg.sender */\n  caller\n    /* \"@openzeppelin/contracts/utils/Context.sol\":712:729  return msg.sender */\n  swap1\n  pop\n    /* \"@openzeppelin/contracts/utils/Context.sol\":640:736  function _msgSender() internal view virtual returns (address) {... */\n  swap1\n  jump\t// out\n    /* \"@openzeppelin/contracts/access/Ownable.sol\":2426:2613  function _transferOwnership(address newOwner) internal virtual {... */\ntag_10:\n    /* \"@openzeppelin/contracts/access/Ownable.sol\":2499:2515  address oldOwner */\n  0x00\n    /* \"@openzeppelin/contracts/access/Ownable.sol\":2518:2524  _owner */\n  dup1\n  0x00\n  swap1\n  sload\n  swap1\n  0x0100\n  exp\n  swap1\n  div\n  0xffffffffffffffffffffffffffffffffffffffff\n  and\n    /* \"@openzeppelin/contracts/access/Ownable.sol\":2499:2524  address oldOwner = _owner */\n  swap1\n  pop\n    /* \"@openzeppelin/contracts/access/Ownable.sol\":2543:2551  newOwner */\n  dup2\n    /* \"@openzeppelin/contracts/access/Ownable.sol\":2534:2540  _owner */\n  0x00\n  dup1\n    /* \"@openzeppelin/contracts/access/Ownable.sol\":2534:2551  _owner = newOwner */\n  0x0100\n  exp\n  dup2\n  sload\n  dup2\n  0xffffffffffffffffffffffffffffffffffffffff\n  mul\n  not\n  and\n  swap1\n  dup4\n  0xffffffffffffffffffffffffffffffffffffffff\n  and\n  mul\n  or\n  swap1\n  sstore\n  pop\n    /* \"@openzeppelin/contracts/access/Ownable.sol\":2597:2605  newOwner */\n  dup2\n    /* \"@openzeppelin/contracts/access/Ownable.sol\":2566:2606  OwnershipTransferred(oldOwner, newOwner) */\n  0xffffffffffffffffffffffffffffffffffffffff\n  and\n    /* \"@openzeppelin/contracts/access/Ownable.sol\":2587:2595  oldOwner */\n  dup2\n    /* \"@openzeppelin/contracts/access/Ownable.sol\":2566:2606  OwnershipTransferred(oldOwner, newOwner) */\n  0xffffffffffffffffffffffffffffffffffffffff\n  and\n  0x8be0079c531659141344cd1fd0a4f28419497f9722a3daafe3b4186f6b6457e0\n  mload(0x40)\n  mload(0x40)\n  dup1\n  swap2\n  sub\n  swap1\n  log3\n    /* \"@openzeppelin/contracts/access/Ownable.sol\":2489:2613  {... */\n  pop\n    /* \"@openzeppelin/contracts/access/Ownable.sol\":2426:2613  function _transferOwnership(address newOwner) internal virtual {... */\n  pop\n  jump\t// out\n    /* \"#utility.yul\":88:205   */\ntag_16:\n    /* \"#utility.yul\":197:198   */\n  0x00\n    /* \"#utility.yul\":194:195   */\n  dup1\n    /* \"#utility.yul\":187:199   */\n  revert\n    /* \"#utility.yul\":334:460   */\ntag_18:\n    /* \"#utility.yul\":371:378   */\n  0x00\n    /* \"#utility.yul\":411:453   */\n  0xffffffffffffffffffffffffffffffffffffffff\n    /* \"#utility.yul\":404:409   */\n  dup3\n    /* \"#utility.yul\":400:454   */\n  and\n    /* \"#utility.yul\":389:454   */\n  swap1\n  pop\n    /* \"#utility.yul\":334:460   */\n  swap2\n  swap1\n  pop\n  jump\t// out\n    /* \"#utility.yul\":466:562   */\ntag_19:\n    /* \"#utility.yul\":503:510   */\n  0x00\n    /* \"#utility.yul\":532:556   */\n  tag_28\n    /* \"#utility.yul\":550:555   */\n  dup3\n    /* \"#utility.yul\":532:556   */\n  tag_18\n  jump\t// in\ntag_28:\n    /* \"#utility.yul\":521:556   */\n  swap1\n  pop\n    /* \"#utility.yul\":466:562   */\n  swap2\n  swap1\n  pop\n  jump\t// out\n    /* \"#utility.yul\":568:690   */\ntag_20:\n    /* \"#utility.yul\":641:665   */\n  tag_30\n    /* \"#utility.yul\":659:664   */\n  dup2\n    /* \"#utility.yul\":641:665   */\n  tag_19\n  jump\t// in\ntag_30:\n    /* \"#utility.yul\":634:639   */\n  dup2\n    /* \"#utility.yul\":631:666   */\n  eq\n    /* \"#utility.yul\":621:684   */\n  tag_31\n  jumpi\n    /* \"#utility.yul\":680:681   */\n  0x00\n    /* \"#utility.yul\":677:678   */\n  dup1\n    /* \"#utility.yul\":670:682   */\n  revert\n    /* \"#utility.yul\":621:684   */\ntag_31:\n    /* \"#utility.yul\":568:690   */\n  pop\n  jump\t// out\n    /* \"#utility.yul\":696:839   */\ntag_21:\n    /* \"#utility.yul\":753:758   */\n  0x00\n    /* \"#utility.yul\":784:790   */\n  dup2\n    /* \"#utility.yul\":778:791   */\n  mload\n    /* \"#utility.yul\":769:791   */\n  swap1\n  pop\n    /* \"#utility.yul\":800:833   */\n  tag_33\n    /* \"#utility.yul\":827:832   */\n  dup2\n    /* \"#utility.yul\":800:833   */\n  tag_20\n  jump\t// in\ntag_33:\n    /* \"#utility.yul\":696:839   */\n  swap3\n  swap2\n  pop\n  pop\n  jump\t// out\n    /* \"#utility.yul\":845:1196   */\ntag_3:\n    /* \"#utility.yul\":915:921   */\n  0x00\n    /* \"#utility.yul\":964:966   */\n  0x20\n    /* \"#utility.yul\":952:961   */\n  dup3\n    /* \"#utility.yul\":943:950   */\n  dup5\n    /* \"#utility.yul\":939:962   */\n  sub\n    /* \"#utility.yul\":935:967   */\n  slt\n    /* \"#utility.yul\":932:1051   */\n  iszero\n  tag_35\n  jumpi\n    /* \"#utility.yul\":970:1049   */\n  tag_36\n  tag_16\n  jump\t// in\ntag_36:\n    /* \"#utility.yul\":932:1051   */\ntag_35:\n    /* \"#utility.yul\":1090:1091   */\n  0x00\n    /* \"#utility.yul\":1115:1179   */\n  tag_37\n    /* \"#utility.yul\":1171:1178   */\n  dup5\n    /* \"#utility.yul\":1162:1168   */\n  dup3\n    /* \"#utility.yul\":1151:1160   */\n  dup6\n    /* \"#utility.yul\":1147:1169   */\n  add\n    /* \"#utility.yul\":1115:1179   */\n  tag_21\n  jump\t// in\ntag_37:\n    /* \"#utility.yul\":1105:1179   */\n  swap2\n  pop\n    /* \"#utility.yul\":1061:1189   */\n  pop\n    /* \"#utility.yul\":845:1196   */\n  swap3\n  swap2\n  pop\n  pop\n  jump\t// out\n    /* \"contracts/Staking/staking.sol\":173:6199  contract Staking is Ownable{... */\ntag_12:\n  dataSize(sub_0)\n  dup1\n  dataOffset(sub_0)\n  0x00\n  codecopy\n  0x00\n  return\nstop\n\nsub_0: assembly {\n        /* \"contracts/Staking/staking.sol\":173:6199  contract Staking is Ownable{... */\n      mstore(0x40, 0x80)\n      callvalue\n      dup1\n      iszero\n      tag_1\n      jumpi\n      0x00\n      dup1\n      revert\n    tag_1:\n      pop\n      jumpi(tag_2, lt(calldatasize, 0x04))\n      shr(0xe0, calldataload(0x00))\n      dup1\n      0x8da5cb5b\n      gt\n      tag_20\n      jumpi\n      dup1\n      0xd313eb13\n      gt\n      tag_21\n      jumpi\n      dup1\n      0xd313eb13\n      eq\n      tag_15\n      jumpi\n      dup1\n      0xdcb51334\n      eq\n      tag_16\n      jumpi\n      dup1\n      0xeab88bf5\n      eq\n      tag_17\n      jumpi\n      dup1\n      0xf2fde38b\n      eq\n      tag_18\n      jumpi\n      dup1\n      0xfc0c546a\n      eq\n      tag_19\n      jumpi\n      jump(tag_2)\n    tag_21:\n      dup1\n      0x8da5cb5b\n      eq\n      tag_11\n      jumpi\n      dup1\n      0xb93a89f7\n      eq\n      tag_12\n      jumpi\n      dup1\n      0xbf8f0218\n      eq\n      tag_13\n      jumpi\n      dup1\n      0xd2d7231f\n      eq\n      tag_14\n      jumpi\n      jump(tag_2)\n    tag_20:\n      dup1\n      0x68a12b3a\n      gt\n      tag_22\n      jumpi\n      dup1\n      0x68a12b3a\n      eq\n      tag_7\n      jumpi\n      dup1\n      0x715018a6\n      eq\n      tag_8\n      jumpi\n      dup1\n      0x7ae2b5c7\n      eq\n      tag_9\n      jumpi\n      dup1\n      0x7b0472f0\n      eq\n      tag_10\n      jumpi\n      jump(tag_2)\n    tag_22:\n      dup1\n      0x0962ef79\n      eq\n      tag_3\n      jumpi\n      dup1\n      0x23b221a0\n      eq\n      tag_4\n      jumpi\n      dup1\n      0x3d1f924e\n      eq\n      tag_5\n      jumpi\n      dup1\n      0x54f9abfa\n      eq\n      tag_6\n      jumpi\n    tag_2:\n      0x00\n      dup1\n      revert\n        /* \"contracts/Staking/staking.sol\":3257:4213  function claimRewards(uint256 _id) public {... */\n    tag_3:\n      tag_23\n      0x04\n      dup1\n      calldatasize\n      sub\n      dup2\n      add\n      swap1\n      tag_24\n      swap2\n      swap1\n      tag_25\n      jump\t// in\n    tag_24:\n      tag_26\n      jump\t// in\n    tag_23:\n      stop\n        /* \"contracts/Staking/staking.sol\":2360:3249  function claimAmount(uint256 _id) public {... */\n    tag_4:\n      tag_27\n      0x04\n      dup1\n      calldatasize\n      sub\n      dup2\n      add\n      swap1\n      tag_28\n      swap2\n      swap1\n      tag_25\n      jump\t// in\n    tag_28:\n      tag_29\n      jump\t// in\n    tag_27:\n      stop\n        /* \"contracts/Staking/staking.sol\":403:439  stakerInfo[] public stakeInformation */\n    tag_5:\n      tag_30\n      0x04\n      dup1\n      calldatasize\n      sub\n      dup2\n      add\n      swap1\n      tag_31\n      swap2\n      swap1\n      tag_25\n      jump\t// in\n    tag_31:\n      tag_32\n      jump\t// in\n    tag_30:\n      mload(0x40)\n      tag_33\n      swap5\n      swap4\n      swap3\n      swap2\n      swap1\n      tag_34\n      jump\t// in\n    tag_33:\n      mload(0x40)\n      dup1\n      swap2\n      sub\n      swap1\n      return\n        /* \"contracts/Staking/staking.sol\":4350:4457  function idByAddress(address _user) public view returns(uint256 [] memory){... */\n    tag_6:\n      tag_35\n      0x04\n      dup1\n      calldatasize\n      sub\n      dup2\n      add\n      swap1\n      tag_36\n      swap2\n      swap1\n      tag_37\n      jump\t// in\n    tag_36:\n      tag_38\n      jump\t// in\n    tag_35:\n      mload(0x40)\n      tag_39\n      swap2\n      swap1\n      tag_40\n      jump\t// in\n    tag_39:\n      mload(0x40)\n      dup1\n      swap2\n      sub\n      swap1\n      return\n        /* \"contracts/Staking/staking.sol\":4989:5497  function calculateRewardTillTime(uint256 _id) public view returns (uint256, uint256) {... */\n    tag_7:\n      tag_41\n      0x04\n      dup1\n      calldatasize\n      sub\n      dup2\n      add\n      swap1\n      tag_42\n      swap2\n      swap1\n      tag_25\n      jump\t// in\n    tag_42:\n      tag_43\n      jump\t// in\n    tag_41:\n      mload(0x40)\n      tag_44\n      swap3\n      swap2\n      swap1\n      tag_45\n      jump\t// in\n    tag_44:\n      mload(0x40)\n      dup1\n      swap2\n      sub\n      swap1\n      return\n        /* \"@openzeppelin/contracts/access/Ownable.sol\":1824:1925  function renounceOwnership() public virtual onlyOwner {... */\n    tag_8:\n      tag_46\n      tag_47\n      jump\t// in\n    tag_46:\n      stop\n        /* \"contracts/Staking/staking.sol\":1284:1387  function min(uint256 a, uint256 b) public pure returns (uint256){... */\n    tag_9:\n      tag_48\n      0x04\n      dup1\n      calldatasize\n      sub\n      dup2\n      add\n      swap1\n      tag_49\n      swap2\n      swap1\n      tag_50\n      jump\t// in\n    tag_49:\n      tag_51\n      jump\t// in\n    tag_48:\n      mload(0x40)\n      tag_52\n      swap2\n      swap1\n      tag_53\n      jump\t// in\n    tag_52:\n      mload(0x40)\n      dup1\n      swap2\n      sub\n      swap1\n      return\n        /* \"contracts/Staking/staking.sol\":574:1274  function stake(uint256 _stakeAmount, uint256 _time) public returns (stakerInfo memory) {... */\n    tag_10:\n      tag_54\n      0x04\n      dup1\n      calldatasize\n      sub\n      dup2\n      add\n      swap1\n      tag_55\n      swap2\n      swap1\n      tag_50\n      jump\t// in\n    tag_55:\n      tag_56\n      jump\t// in\n    tag_54:\n      mload(0x40)\n      tag_57\n      swap2\n      swap1\n      tag_58\n      jump\t// in\n    tag_57:\n      mload(0x40)\n      dup1\n      swap2\n      sub\n      swap1\n      return\n        /* \"@openzeppelin/contracts/access/Ownable.sol\":1201:1286  function owner() public view virtual returns (address) {... */\n    tag_11:\n      tag_59\n      tag_60\n      jump\t// in\n    tag_59:\n      mload(0x40)\n      tag_61\n      swap2\n      swap1\n      tag_62\n      jump\t// in\n    tag_61:\n      mload(0x40)\n      dup1\n      swap2\n      sub\n      swap1\n      return\n        /* \"contracts/Staking/staking.sol\":4462:4582  function getDetails(uint256 _id) public view returns (stakerInfo memory) {... */\n    tag_12:\n      tag_63\n      0x04\n      dup1\n      calldatasize\n      sub\n      dup2\n      add\n      swap1\n      tag_64\n      swap2\n      swap1\n      tag_25\n      jump\t// in\n    tag_64:\n      tag_65\n      jump\t// in\n    tag_63:\n      mload(0x40)\n      tag_66\n      swap2\n      swap1\n      tag_58\n      jump\t// in\n    tag_66:\n      mload(0x40)\n      dup1\n      swap2\n      sub\n      swap1\n      return\n        /* \"contracts/Staking/staking.sol\":4222:4341  function getStakeContractBalance() public view returns (uint256) {... */\n    tag_13:\n      tag_67\n      tag_68\n      jump\t// in\n    tag_67:\n      mload(0x40)\n      tag_69\n      swap2\n      swap1\n      tag_53\n      jump\t// in\n    tag_69:\n      mload(0x40)\n      dup1\n      swap2\n      sub\n      swap1\n      return\n        /* \"contracts/Staking/staking.sol\":1393:2354  function calculateReward(uint256 _id) public view returns(uint256) {... */\n    tag_14:\n      tag_70\n      0x04\n      dup1\n      calldatasize\n      sub\n      dup2\n      add\n      swap1\n      tag_71\n      swap2\n      swap1\n      tag_25\n      jump\t// in\n    tag_71:\n      tag_72\n      jump\t// in\n    tag_70:\n      mload(0x40)\n      tag_73\n      swap2\n      swap1\n      tag_53\n      jump\t// in\n    tag_73:\n      mload(0x40)\n      dup1\n      swap2\n      sub\n      swap1\n      return\n        /* \"contracts/Staking/staking.sol\":447:485  mapping (address=>uint256[]) public id */\n    tag_15:\n      tag_74\n      0x04\n      dup1\n      calldatasize\n      sub\n      dup2\n      add\n      swap1\n      tag_75\n      swap2\n      swap1\n      tag_76\n      jump\t// in\n    tag_75:\n      tag_77\n      jump\t// in\n    tag_74:\n      mload(0x40)\n      tag_78\n      swap2\n      swap1\n      tag_53\n      jump\t// in\n    tag_78:\n      mload(0x40)\n      dup1\n      swap2\n      sub\n      swap1\n      return\n        /* \"contracts/Staking/staking.sol\":516:556  mapping (uint256=>uint256) public timeid */\n    tag_16:\n      tag_79\n      0x04\n      dup1\n      calldatasize\n      sub\n      dup2\n      add\n      swap1\n      tag_80\n      swap2\n      swap1\n      tag_25\n      jump\t// in\n    tag_80:\n      tag_81\n      jump\t// in\n    tag_79:\n      mload(0x40)\n      tag_82\n      swap2\n      swap1\n      tag_53\n      jump\t// in\n    tag_82:\n      mload(0x40)\n      dup1\n      swap2\n      sub\n      swap1\n      return\n        /* \"contracts/Staking/staking.sol\":4589:4986  function getStakingDetails(uint256 _id) public view returns (address user, uint256 amountStaked, uint256 tenure, uint256 time, uint256 claimableReward) {... */\n    tag_17:\n      tag_83\n      0x04\n      dup1\n      calldatasize\n      sub\n      dup2\n      add\n      swap1\n      tag_84\n      swap2\n      swap1\n      tag_25\n      jump\t// in\n    tag_84:\n      tag_85\n      jump\t// in\n    tag_83:\n      mload(0x40)\n      tag_86\n      swap6\n      swap5\n      swap4\n      swap3\n      swap2\n      swap1\n      tag_87\n      jump\t// in\n    tag_86:\n      mload(0x40)\n      dup1\n      swap2\n      sub\n      swap1\n      return\n        /* \"@openzeppelin/contracts/access/Ownable.sol\":2074:2272  function transferOwnership(address newOwner) public virtual onlyOwner {... */\n    tag_18:\n      tag_88\n      0x04\n      dup1\n      calldatasize\n      sub\n      dup2\n      add\n      swap1\n      tag_89\n      swap2\n      swap1\n      tag_37\n      jump\t// in\n    tag_89:\n      tag_90\n      jump\t// in\n    tag_88:\n      stop\n        /* \"contracts/Staking/staking.sol\":206:225  IERC20 public token */\n    tag_19:\n      tag_91\n      tag_92\n      jump\t// in\n    tag_91:\n      mload(0x40)\n      tag_93\n      swap2\n      swap1\n      tag_94\n      jump\t// in\n    tag_93:\n      mload(0x40)\n      dup1\n      swap2\n      sub\n      swap1\n      return\n        /* \"contracts/Staking/staking.sol\":3257:4213  function claimRewards(uint256 _id) public {... */\n    tag_26:\n        /* \"contracts/Staking/staking.sol\":3344:3347  _id */\n      dup1\n        /* \"contracts/Staking/staking.sol\":3317:3333  stakeInformation */\n      0x02\n        /* \"contracts/Staking/staking.sol\":3317:3340  stakeInformation.length */\n      dup1\n      sload\n      swap1\n      pop\n        /* \"contracts/Staking/staking.sol\":3317:3347  stakeInformation.length >= _id */\n      lt\n      iszero\n        /* \"contracts/Staking/staking.sol\":3309:3374  require(stakeInformation.length >= _id, \"This id does not exist\") */\n      tag_96\n      jumpi\n      mload(0x40)\n      0x08c379a000000000000000000000000000000000000000000000000000000000\n      dup2\n      mstore\n      0x04\n      add\n      tag_97\n      swap1\n      tag_98\n      jump\t// in\n    tag_97:\n      mload(0x40)\n      dup1\n      swap2\n      sub\n      swap1\n      revert\n    tag_96:\n        /* \"contracts/Staking/staking.sol\":3384:3414  stakerInfo memory _information */\n      0x00\n        /* \"contracts/Staking/staking.sol\":3417:3433  stakeInformation */\n      0x02\n        /* \"contracts/Staking/staking.sol\":3438:3439  1 */\n      0x01\n        /* \"contracts/Staking/staking.sol\":3434:3437  _id */\n      dup4\n        /* \"contracts/Staking/staking.sol\":3434:3439  _id-1 */\n      tag_99\n      swap2\n      swap1\n      tag_100\n      jump\t// in\n    tag_99:\n        /* \"contracts/Staking/staking.sol\":3417:3440  stakeInformation[_id-1] */\n      dup2\n      sload\n      dup2\n      lt\n      tag_101\n      jumpi\n      tag_102\n      tag_103\n      jump\t// in\n    tag_102:\n    tag_101:\n      swap1\n      0x00\n      mstore\n      keccak256(0x00, 0x20)\n      swap1\n      0x04\n      mul\n      add\n        /* \"contracts/Staking/staking.sol\":3384:3440  stakerInfo memory _information = stakeInformation[_id-1] */\n      mload(0x40)\n      dup1\n      0x80\n      add\n      0x40\n      mstore\n      swap1\n      dup2\n      0x00\n      dup3\n      add\n      0x00\n      swap1\n      sload\n      swap1\n      0x0100\n      exp\n      swap1\n      div\n      0xffffffffffffffffffffffffffffffffffffffff\n      and\n      0xffffffffffffffffffffffffffffffffffffffff\n      and\n      0xffffffffffffffffffffffffffffffffffffffff\n      and\n      dup2\n      mstore\n      0x20\n      add\n      0x01\n      dup3\n      add\n      sload\n      dup2\n      mstore\n      0x20\n      add\n      0x02\n      dup3\n      add\n      sload\n      dup2\n      mstore\n      0x20\n      add\n      0x03\n      dup3\n      add\n      sload\n      dup2\n      mstore\n      pop\n      pop\n      swap1\n      pop\n        /* \"contracts/Staking/staking.sol\":3487:3488  0 */\n      0x00\n        /* \"contracts/Staking/staking.sol\":3458:3489  _information.user != address(0) */\n      0xffffffffffffffffffffffffffffffffffffffff\n      and\n        /* \"contracts/Staking/staking.sol\":3458:3470  _information */\n      dup2\n        /* \"contracts/Staking/staking.sol\":3458:3475  _information.user */\n      0x00\n      add\n      mload\n        /* \"contracts/Staking/staking.sol\":3458:3489  _information.user != address(0) */\n      0xffffffffffffffffffffffffffffffffffffffff\n      and\n      sub\n        /* \"contracts/Staking/staking.sol\":3450:3555  require(_information.user != address(0), \"You use this ID before at present time this id does not exist\") */\n      tag_105\n      jumpi\n      mload(0x40)\n      0x08c379a000000000000000000000000000000000000000000000000000000000\n      dup2\n      mstore\n      0x04\n      add\n      tag_106\n      swap1\n      tag_107\n      jump\t// in\n    tag_106:\n      mload(0x40)\n      dup1\n      swap2\n      sub\n      swap1\n      revert\n    tag_105:\n        /* \"contracts/Staking/staking.sol\":3587:3599  _information */\n      dup1\n        /* \"contracts/Staking/staking.sol\":3587:3604  _information.user */\n      0x00\n      add\n      mload\n        /* \"contracts/Staking/staking.sol\":3573:3604  msg.sender == _information.user */\n      0xffffffffffffffffffffffffffffffffffffffff\n      and\n        /* \"contracts/Staking/staking.sol\":3573:3583  msg.sender */\n      caller\n        /* \"contracts/Staking/staking.sol\":3573:3604  msg.sender == _information.user */\n      0xffffffffffffffffffffffffffffffffffffffff\n      and\n      eq\n        /* \"contracts/Staking/staking.sol\":3565:3671  require(msg.sender == _information.user, \"You not claim this reward because you are not owner of this id\") */\n      tag_108\n      jumpi\n      mload(0x40)\n      0x08c379a000000000000000000000000000000000000000000000000000000000\n      dup2\n      mstore\n      0x04\n      add\n      tag_109\n      swap1\n      tag_110\n      jump\t// in\n    tag_109:\n      mload(0x40)\n      dup1\n      swap2\n      sub\n      swap1\n      revert\n    tag_108:\n        /* \"contracts/Staking/staking.sol\":3681:3694  uint256 _time */\n      0x00\n        /* \"contracts/Staking/staking.sol\":3732:3744  _information */\n      dup2\n        /* \"contracts/Staking/staking.sol\":3732:3751  _information.tenure */\n      0x60\n      add\n      mload\n        /* \"contracts/Staking/staking.sol\":3714:3726  _information */\n      dup3\n        /* \"contracts/Staking/staking.sol\":3714:3731  _information.time */\n      0x40\n      add\n      mload\n        /* \"contracts/Staking/staking.sol\":3714:3751  _information.time+_information.tenure */\n      tag_111\n      swap2\n      swap1\n      tag_112\n      jump\t// in\n    tag_111:\n        /* \"contracts/Staking/staking.sol\":3697:3712  block.timestamp */\n      timestamp\n        /* \"contracts/Staking/staking.sol\":3697:3752  block.timestamp-(_information.time+_information.tenure) */\n      tag_113\n      swap2\n      swap1\n      tag_100\n      jump\t// in\n    tag_113:\n        /* \"contracts/Staking/staking.sol\":3681:3752  uint256 _time = block.timestamp-(_information.time+_information.tenure) */\n      swap1\n      pop\n        /* \"contracts/Staking/staking.sol\":3778:3779  0 */\n      0x00\n        /* \"contracts/Staking/staking.sol\":3770:3775  _time */\n      dup2\n        /* \"contracts/Staking/staking.sol\":3770:3779  _time > 0 */\n      gt\n        /* \"contracts/Staking/staking.sol\":3762:3850  require(_time > 0, \"You does not claim reward because maturity period is not completed\") */\n      tag_114\n      jumpi\n      mload(0x40)\n      0x08c379a000000000000000000000000000000000000000000000000000000000\n      dup2\n      mstore\n      0x04\n      add\n      tag_115\n      swap1\n      tag_116\n      jump\t// in\n    tag_115:\n      mload(0x40)\n      dup1\n      swap2\n      sub\n      swap1\n      revert\n    tag_114:\n        /* \"contracts/Staking/staking.sol\":3860:3874  uint256 reward */\n      0x00\n        /* \"contracts/Staking/staking.sol\":3877:3897  calculateReward(_id) */\n      tag_117\n        /* \"contracts/Staking/staking.sol\":3893:3896  _id */\n      dup5\n        /* \"contracts/Staking/staking.sol\":3877:3892  calculateReward */\n      tag_72\n        /* \"contracts/Staking/staking.sol\":3877:3897  calculateReward(_id) */\n      jump\t// in\n    tag_117:\n        /* \"contracts/Staking/staking.sol\":3860:3897  uint256 reward = calculateReward(_id) */\n      swap1\n      pop\n        /* \"contracts/Staking/staking.sol\":3949:3955  reward */\n      dup1\n        /* \"contracts/Staking/staking.sol\":3915:3920  token */\n      0x01\n      0x00\n      swap1\n      sload\n      swap1\n      0x0100\n      exp\n      swap1\n      div\n      0xffffffffffffffffffffffffffffffffffffffff\n      and\n        /* \"contracts/Staking/staking.sol\":3915:3930  token.balanceOf */\n      0xffffffffffffffffffffffffffffffffffffffff\n      and\n      0x70a08231\n        /* \"contracts/Staking/staking.sol\":3939:3943  this */\n      address\n        /* \"contracts/Staking/staking.sol\":3915:3945  token.balanceOf(address(this)) */\n      mload(0x40)\n      dup3\n      0xffffffff\n      and\n      0xe0\n      shl\n      dup2\n      mstore\n      0x04\n      add\n      tag_118\n      swap2\n      swap1\n      tag_62\n      jump\t// in\n    tag_118:\n      0x20\n      mload(0x40)\n      dup1\n      dup4\n      sub\n      dup2\n      dup7\n      gas\n      staticcall\n      iszero\n      dup1\n      iszero\n      tag_120\n      jumpi\n      returndatasize\n      0x00\n      dup1\n      returndatacopy\n      revert(0x00, returndatasize)\n    tag_120:\n      pop\n      pop\n      pop\n      pop\n      mload(0x40)\n      returndatasize\n      not(0x1f)\n      0x1f\n      dup3\n      add\n      and\n      dup3\n      add\n      dup1\n      0x40\n      mstore\n      pop\n      dup2\n      add\n      swap1\n      tag_121\n      swap2\n      swap1\n      tag_122\n      jump\t// in\n    tag_121:\n        /* \"contracts/Staking/staking.sol\":3915:3955  token.balanceOf(address(this)) >= reward */\n      lt\n      iszero\n        /* \"contracts/Staking/staking.sol\":3907:4029  require(token.balanceOf(address(this)) >= reward, \"Sorry contract have no enough tokens. We resolve this problem shortly\") */\n      tag_123\n      jumpi\n      mload(0x40)\n      0x08c379a000000000000000000000000000000000000000000000000000000000\n      dup2\n      mstore\n      0x04\n      add\n      tag_124\n      swap1\n      tag_125\n      jump\t// in\n    tag_124:\n      mload(0x40)\n      dup1\n      swap2\n      sub\n      swap1\n      revert\n    tag_123:\n        /* \"contracts/Staking/staking.sol\":4053:4068  block.timestamp */\n      timestamp\n        /* \"contracts/Staking/staking.sol\":4039:4045  timeid */\n      0x04\n        /* \"contracts/Staking/staking.sol\":4039:4050  timeid[_id] */\n      0x00\n        /* \"contracts/Staking/staking.sol\":4046:4049  _id */\n      dup7\n        /* \"contracts/Staking/staking.sol\":4039:4050  timeid[_id] */\n      dup2\n      mstore\n      0x20\n      add\n      swap1\n      dup2\n      mstore\n      0x20\n      add\n      0x00\n      keccak256\n        /* \"contracts/Staking/staking.sol\":4039:4068  timeid[_id] = block.timestamp */\n      dup2\n      swap1\n      sstore\n      pop\n        /* \"contracts/Staking/staking.sol\":4078:4083  token */\n      0x01\n      0x00\n      swap1\n      sload\n      swap1\n      0x0100\n      exp\n      swap1\n      div\n      0xffffffffffffffffffffffffffffffffffffffff\n      and\n        /* \"contracts/Staking/staking.sol\":4078:4092  token.transfer */\n      0xffffffffffffffffffffffffffffffffffffffff\n      and\n      0xa9059cbb\n        /* \"contracts/Staking/staking.sol\":4093:4105  _information */\n      dup5\n        /* \"contracts/Staking/staking.sol\":4093:4110  _information.user */\n      0x00\n      add\n      mload\n        /* \"contracts/Staking/staking.sol\":4113:4119  reward */\n      dup4\n        /* \"contracts/Staking/staking.sol\":4078:4120  token.transfer(_information.user , reward) */\n      mload(0x40)\n      dup4\n      0xffffffff\n      and\n      0xe0\n      shl\n      dup2\n      mstore\n      0x04\n      add\n      tag_126\n      swap3\n      swap2\n      swap1\n      tag_127\n      jump\t// in\n    tag_126:\n      0x20\n      mload(0x40)\n      dup1\n      dup4\n      sub\n      dup2\n      0x00\n      dup8\n      gas\n      call\n      iszero\n      dup1\n      iszero\n      tag_129\n      jumpi\n      returndatasize\n      0x00\n      dup1\n      returndatacopy\n      revert(0x00, returndatasize)\n    tag_129:\n      pop\n      pop\n      pop\n      pop\n      mload(0x40)\n      returndatasize\n      not(0x1f)\n      0x1f\n      dup3\n      add\n      and\n      dup3\n      add\n      dup1\n      0x40\n      mstore\n      pop\n      dup2\n      add\n      swap1\n      tag_130\n      swap2\n      swap1\n      tag_131\n      jump\t// in\n    tag_130:\n      pop\n        /* \"contracts/Staking/staking.sol\":4163:4164  0 */\n      0x00\n        /* \"contracts/Staking/staking.sol\":4130:4146  stakeInformation */\n      0x02\n        /* \"contracts/Staking/staking.sol\":4151:4152  1 */\n      0x01\n        /* \"contracts/Staking/staking.sol\":4147:4150  _id */\n      dup7\n        /* \"contracts/Staking/staking.sol\":4147:4152  _id-1 */\n      tag_132\n      swap2\n      swap1\n      tag_100\n      jump\t// in\n    tag_132:\n        /* \"contracts/Staking/staking.sol\":4130:4153  stakeInformation[_id-1] */\n      dup2\n      sload\n      dup2\n      lt\n      tag_133\n      jumpi\n      tag_134\n      tag_103\n      jump\t// in\n    tag_134:\n    tag_133:\n      swap1\n      0x00\n      mstore\n      keccak256(0x00, 0x20)\n      swap1\n      0x04\n      mul\n      add\n        /* \"contracts/Staking/staking.sol\":4130:4160  stakeInformation[_id-1].tenure */\n      0x03\n      add\n        /* \"contracts/Staking/staking.sol\":4130:4164  stakeInformation[_id-1].tenure = 0 */\n      dup2\n      swap1\n      sstore\n      pop\n        /* \"contracts/Staking/staking.sol\":4205:4206  0 */\n      0x00\n        /* \"contracts/Staking/staking.sol\":4174:4190  stakeInformation */\n      0x02\n        /* \"contracts/Staking/staking.sol\":4195:4196  1 */\n      0x01\n        /* \"contracts/Staking/staking.sol\":4191:4194  _id */\n      dup7\n        /* \"contracts/Staking/staking.sol\":4191:4196  _id-1 */\n      tag_136\n      swap2\n      swap1\n      tag_100\n      jump\t// in\n    tag_136:\n        /* \"contracts/Staking/staking.sol\":4174:4197  stakeInformation[_id-1] */\n      dup2\n      sload\n      dup2\n      lt\n      tag_137\n      jumpi\n      tag_138\n      tag_103\n      jump\t// in\n    tag_138:\n    tag_137:\n      swap1\n      0x00\n      mstore\n      keccak256(0x00, 0x20)\n      swap1\n      0x04\n      mul\n      add\n        /* \"contracts/Staking/staking.sol\":4174:4202  stakeInformation[_id-1].time */\n      0x02\n      add\n        /* \"contracts/Staking/staking.sol\":4174:4206  stakeInformation[_id-1].time = 0 */\n      dup2\n      swap1\n      sstore\n      pop\n        /* \"contracts/Staking/staking.sol\":3299:4213  {... */\n      pop\n      pop\n      pop\n        /* \"contracts/Staking/staking.sol\":3257:4213  function claimRewards(uint256 _id) public {... */\n      pop\n      jump\t// out\n        /* \"contracts/Staking/staking.sol\":2360:3249  function claimAmount(uint256 _id) public {... */\n    tag_29:\n        /* \"contracts/Staking/staking.sol\":2411:2441  stakerInfo memory _information */\n      0x00\n        /* \"contracts/Staking/staking.sol\":2444:2460  stakeInformation */\n      0x02\n        /* \"contracts/Staking/staking.sol\":2465:2466  1 */\n      0x01\n        /* \"contracts/Staking/staking.sol\":2461:2464  _id */\n      dup4\n        /* \"contracts/Staking/staking.sol\":2461:2466  _id-1 */\n      tag_141\n      swap2\n      swap1\n      tag_100\n      jump\t// in\n    tag_141:\n        /* \"contracts/Staking/staking.sol\":2444:2467  stakeInformation[_id-1] */\n      dup2\n      sload\n      dup2\n      lt\n      tag_142\n      jumpi\n      tag_143\n      tag_103\n      jump\t// in\n    tag_143:\n    tag_142:\n      swap1\n      0x00\n      mstore\n      keccak256(0x00, 0x20)\n      swap1\n      0x04\n      mul\n      add\n        /* \"contracts/Staking/staking.sol\":2411:2467  stakerInfo memory _information = stakeInformation[_id-1] */\n      mload(0x40)\n      dup1\n      0x80\n      add\n      0x40\n      mstore\n      swap1\n      dup2\n      0x00\n      dup3\n      add\n      0x00\n      swap1\n      sload\n      swap1\n      0x0100\n      exp\n      swap1\n      div\n      0xffffffffffffffffffffffffffffffffffffffff\n      and\n      0xffffffffffffffffffffffffffffffffffffffff\n      and\n      0xffffffffffffffffffffffffffffffffffffffff\n      and\n      dup2\n      mstore\n      0x20\n      add\n      0x01\n      dup3\n      add\n      sload\n      dup2\n      mstore\n      0x20\n      add\n      0x02\n      dup3\n      add\n      sload\n      dup2\n      mstore\n      0x20\n      add\n      0x03\n      dup3\n      add\n      sload\n      dup2\n      mstore\n      pop\n      pop\n      swap1\n      pop\n        /* \"contracts/Staking/staking.sol\":2514:2515  0 */\n      0x00\n        /* \"contracts/Staking/staking.sol\":2485:2516  _information.user != address(0) */\n      0xffffffffffffffffffffffffffffffffffffffff\n      and\n        /* \"contracts/Staking/staking.sol\":2485:2497  _information */\n      dup2\n        /* \"contracts/Staking/staking.sol\":2485:2502  _information.user */\n      0x00\n      add\n      mload\n        /* \"contracts/Staking/staking.sol\":2485:2516  _information.user != address(0) */\n      0xffffffffffffffffffffffffffffffffffffffff\n      and\n      sub\n        /* \"contracts/Staking/staking.sol\":2477:2544  require(_information.user != address(0), \" this id does not exist\") */\n      tag_145\n      jumpi\n      mload(0x40)\n      0x08c379a000000000000000000000000000000000000000000000000000000000\n      dup2\n      mstore\n      0x04\n      add\n      tag_146\n      swap1\n      tag_147\n      jump\t// in\n    tag_146:\n      mload(0x40)\n      dup1\n      swap2\n      sub\n      swap1\n      revert\n    tag_145:\n        /* \"contracts/Staking/staking.sol\":2576:2588  _information */\n      dup1\n        /* \"contracts/Staking/staking.sol\":2576:2593  _information.user */\n      0x00\n      add\n      mload\n        /* \"contracts/Staking/staking.sol\":2562:2593  msg.sender == _information.user */\n      0xffffffffffffffffffffffffffffffffffffffff\n      and\n        /* \"contracts/Staking/staking.sol\":2562:2572  msg.sender */\n      caller\n        /* \"contracts/Staking/staking.sol\":2562:2593  msg.sender == _information.user */\n      0xffffffffffffffffffffffffffffffffffffffff\n      and\n      eq\n        /* \"contracts/Staking/staking.sol\":2554:2660  require(msg.sender == _information.user, \"You not claim this amount because you are not owner of this id\") */\n      tag_148\n      jumpi\n      mload(0x40)\n      0x08c379a000000000000000000000000000000000000000000000000000000000\n      dup2\n      mstore\n      0x04\n      add\n      tag_149\n      swap1\n      tag_150\n      jump\t// in\n    tag_149:\n      mload(0x40)\n      dup1\n      swap2\n      sub\n      swap1\n      revert\n    tag_148:\n        /* \"contracts/Staking/staking.sol\":2712:2713  0 */\n      0x00\n        /* \"contracts/Staking/staking.sol\":2678:2694  stakeInformation */\n      0x02\n        /* \"contracts/Staking/staking.sol\":2699:2700  1 */\n      0x01\n        /* \"contracts/Staking/staking.sol\":2695:2698  _id */\n      dup5\n        /* \"contracts/Staking/staking.sol\":2695:2700  _id-1 */\n      tag_151\n      swap2\n      swap1\n      tag_100\n      jump\t// in\n    tag_151:\n        /* \"contracts/Staking/staking.sol\":2678:2701  stakeInformation[_id-1] */\n      dup2\n      sload\n      dup2\n      lt\n      tag_152\n      jumpi\n      tag_153\n      tag_103\n      jump\t// in\n    tag_153:\n    tag_152:\n      swap1\n      0x00\n      mstore\n      keccak256(0x00, 0x20)\n      swap1\n      0x04\n      mul\n      add\n        /* \"contracts/Staking/staking.sol\":2678:2708  stakeInformation[_id-1].tenure */\n      0x03\n      add\n      sload\n        /* \"contracts/Staking/staking.sol\":2678:2713  stakeInformation[_id-1].tenure == 0 */\n      eq\n        /* \"contracts/Staking/staking.sol\":2670:2761  require(stakeInformation[_id-1].tenure == 0, \"You only claim amount after claiming reward\") */\n      tag_155\n      jumpi\n      mload(0x40)\n      0x08c379a000000000000000000000000000000000000000000000000000000000\n      dup2\n      mstore\n      0x04\n      add\n      tag_156\n      swap1\n      tag_157\n      jump\t// in\n    tag_156:\n      mload(0x40)\n      dup1\n      swap2\n      sub\n      swap1\n      revert\n    tag_155:\n        /* \"contracts/Staking/staking.sol\":2811:2814  120 */\n      0x78\n        /* \"contracts/Staking/staking.sol\":2796:2802  timeid */\n      0x04\n        /* \"contracts/Staking/staking.sol\":2796:2807  timeid[_id] */\n      0x00\n        /* \"contracts/Staking/staking.sol\":2803:2806  _id */\n      dup5\n        /* \"contracts/Staking/staking.sol\":2796:2807  timeid[_id] */\n      dup2\n      mstore\n      0x20\n      add\n      swap1\n      dup2\n      mstore\n      0x20\n      add\n      0x00\n      keccak256\n      sload\n        /* \"contracts/Staking/staking.sol\":2779:2794  block.timestamp */\n      timestamp\n        /* \"contracts/Staking/staking.sol\":2779:2807  block.timestamp -timeid[_id] */\n      tag_158\n      swap2\n      swap1\n      tag_100\n      jump\t// in\n    tag_158:\n        /* \"contracts/Staking/staking.sol\":2779:2814  block.timestamp -timeid[_id] >= 120 */\n      lt\n      iszero\n        /* \"contracts/Staking/staking.sol\":2771:2891  require(block.timestamp -timeid[_id] >= 120, \"You can claim amount only after 2 minutes from the time of Claim Rewards\") */\n      tag_159\n      jumpi\n      mload(0x40)\n      0x08c379a000000000000000000000000000000000000000000000000000000000\n      dup2\n      mstore\n      0x04\n      add\n      tag_160\n      swap1\n      tag_161\n      jump\t// in\n    tag_160:\n      mload(0x40)\n      dup1\n      swap2\n      sub\n      swap1\n      revert\n    tag_159:\n        /* \"contracts/Staking/staking.sol\":2915:2916  0 */\n      0x00\n        /* \"contracts/Staking/staking.sol\":2901:2907  timeid */\n      0x04\n        /* \"contracts/Staking/staking.sol\":2901:2912  timeid[_id] */\n      0x00\n        /* \"contracts/Staking/staking.sol\":2908:2911  _id */\n      dup5\n        /* \"contracts/Staking/staking.sol\":2901:2912  timeid[_id] */\n      dup2\n      mstore\n      0x20\n      add\n      swap1\n      dup2\n      mstore\n      0x20\n      add\n      0x00\n      keccak256\n        /* \"contracts/Staking/staking.sol\":2901:2916  timeid[_id] = 0 */\n      dup2\n      swap1\n      sstore\n      pop\n        /* \"contracts/Staking/staking.sol\":2926:2940  uint256 amount */\n      0x00\n        /* \"contracts/Staking/staking.sol\":2943:2955  _information */\n      dup2\n        /* \"contracts/Staking/staking.sol\":2943:2967  _information.amountStake */\n      0x20\n      add\n      mload\n        /* \"contracts/Staking/staking.sol\":2926:2967  uint256 amount = _information.amountStake */\n      swap1\n      pop\n        /* \"contracts/Staking/staking.sol\":3019:3025  amount */\n      dup1\n        /* \"contracts/Staking/staking.sol\":2985:2990  token */\n      0x01\n      0x00\n      swap1\n      sload\n      swap1\n      0x0100\n      exp\n      swap1\n      div\n      0xffffffffffffffffffffffffffffffffffffffff\n      and\n        /* \"contracts/Staking/staking.sol\":2985:3000  token.balanceOf */\n      0xffffffffffffffffffffffffffffffffffffffff\n      and\n      0x70a08231\n        /* \"contracts/Staking/staking.sol\":3009:3013  this */\n      address\n        /* \"contracts/Staking/staking.sol\":2985:3015  token.balanceOf(address(this)) */\n      mload(0x40)\n      dup3\n      0xffffffff\n      and\n      0xe0\n      shl\n      dup2\n      mstore\n      0x04\n      add\n      tag_162\n      swap2\n      swap1\n      tag_62\n      jump\t// in\n    tag_162:\n      0x20\n      mload(0x40)\n      dup1\n      dup4\n      sub\n      dup2\n      dup7\n      gas\n      staticcall\n      iszero\n      dup1\n      iszero\n      tag_164\n      jumpi\n      returndatasize\n      0x00\n      dup1\n      returndatacopy\n      revert(0x00, returndatasize)\n    tag_164:\n      pop\n      pop\n      pop\n      pop\n      mload(0x40)\n      returndatasize\n      not(0x1f)\n      0x1f\n      dup3\n      add\n      and\n      dup3\n      add\n      dup1\n      0x40\n      mstore\n      pop\n      dup2\n      add\n      swap1\n      tag_165\n      swap2\n      swap1\n      tag_122\n      jump\t// in\n    tag_165:\n        /* \"contracts/Staking/staking.sol\":2985:3025  token.balanceOf(address(this)) >= amount */\n      lt\n      iszero\n        /* \"contracts/Staking/staking.sol\":2977:3066  require(token.balanceOf(address(this)) >= amount, \"Sorry contract have no enough tokens\") */\n      tag_166\n      jumpi\n      mload(0x40)\n      0x08c379a000000000000000000000000000000000000000000000000000000000\n      dup2\n      mstore\n      0x04\n      add\n      tag_167\n      swap1\n      tag_168\n      jump\t// in\n    tag_167:\n      mload(0x40)\n      dup1\n      swap2\n      sub\n      swap1\n      revert\n    tag_166:\n        /* \"contracts/Staking/staking.sol\":3076:3081  token */\n      0x01\n      0x00\n      swap1\n      sload\n      swap1\n      0x0100\n      exp\n      swap1\n      div\n      0xffffffffffffffffffffffffffffffffffffffff\n      and\n        /* \"contracts/Staking/staking.sol\":3076:3090  token.transfer */\n      0xffffffffffffffffffffffffffffffffffffffff\n      and\n      0xa9059cbb\n        /* \"contracts/Staking/staking.sol\":3091:3103  _information */\n      dup4\n        /* \"contracts/Staking/staking.sol\":3091:3108  _information.user */\n      0x00\n      add\n      mload\n        /* \"contracts/Staking/staking.sol\":3110:3116  amount */\n      dup4\n        /* \"contracts/Staking/staking.sol\":3076:3117  token.transfer(_information.user, amount) */\n      mload(0x40)\n      dup4\n      0xffffffff\n      and\n      0xe0\n      shl\n      dup2\n      mstore\n      0x04\n      add\n      tag_169\n      swap3\n      swap2\n      swap1\n      tag_127\n      jump\t// in\n    tag_169:\n      0x20\n      mload(0x40)\n      dup1\n      dup4\n      sub\n      dup2\n      0x00\n      dup8\n      gas\n      call\n      iszero\n      dup1\n      iszero\n      tag_171\n      jumpi\n      returndatasize\n      0x00\n      dup1\n      returndatacopy\n      revert(0x00, returndatasize)\n    tag_171:\n      pop\n      pop\n      pop\n      pop\n      mload(0x40)\n      returndatasize\n      not(0x1f)\n      0x1f\n      dup3\n      add\n      and\n      dup3\n      add\n      dup1\n      0x40\n      mstore\n      pop\n      dup2\n      add\n      swap1\n      tag_172\n      swap2\n      swap1\n      tag_131\n      jump\t// in\n    tag_172:\n      pop\n        /* \"contracts/Staking/staking.sol\":3166:3167  0 */\n      0x00\n        /* \"contracts/Staking/staking.sol\":3127:3143  stakeInformation */\n      0x02\n        /* \"contracts/Staking/staking.sol\":3148:3149  1 */\n      0x01\n        /* \"contracts/Staking/staking.sol\":3144:3147  _id */\n      dup6\n        /* \"contracts/Staking/staking.sol\":3144:3149  _id-1 */\n      tag_173\n      swap2\n      swap1\n      tag_100\n      jump\t// in\n    tag_173:\n        /* \"contracts/Staking/staking.sol\":3127:3150  stakeInformation[_id-1] */\n      dup2\n      sload\n      dup2\n      lt\n      tag_174\n      jumpi\n      tag_175\n      tag_103\n      jump\t// in\n    tag_175:\n    tag_174:\n      swap1\n      0x00\n      mstore\n      keccak256(0x00, 0x20)\n      swap1\n      0x04\n      mul\n      add\n        /* \"contracts/Staking/staking.sol\":3127:3155  stakeInformation[_id-1].user */\n      0x00\n      add\n      0x00\n        /* \"contracts/Staking/staking.sol\":3127:3168  stakeInformation[_id-1].user = address(0) */\n      0x0100\n      exp\n      dup2\n      sload\n      dup2\n      0xffffffffffffffffffffffffffffffffffffffff\n      mul\n      not\n      and\n      swap1\n      dup4\n      0xffffffffffffffffffffffffffffffffffffffff\n      and\n      mul\n      or\n      swap1\n      sstore\n      pop\n        /* \"contracts/Staking/staking.sol\":3216:3217  0 */\n      0x00\n        /* \"contracts/Staking/staking.sol\":3178:3194  stakeInformation */\n      0x02\n        /* \"contracts/Staking/staking.sol\":3199:3200  1 */\n      0x01\n        /* \"contracts/Staking/staking.sol\":3195:3198  _id */\n      dup6\n        /* \"contracts/Staking/staking.sol\":3195:3200  _id-1 */\n      tag_177\n      swap2\n      swap1\n      tag_100\n      jump\t// in\n    tag_177:\n        /* \"contracts/Staking/staking.sol\":3178:3201  stakeInformation[_id-1] */\n      dup2\n      sload\n      dup2\n      lt\n      tag_178\n      jumpi\n      tag_179\n      tag_103\n      jump\t// in\n    tag_179:\n    tag_178:\n      swap1\n      0x00\n      mstore\n      keccak256(0x00, 0x20)\n      swap1\n      0x04\n      mul\n      add\n        /* \"contracts/Staking/staking.sol\":3178:3213  stakeInformation[_id-1].amountStake */\n      0x01\n      add\n        /* \"contracts/Staking/staking.sol\":3178:3217  stakeInformation[_id-1].amountStake = 0 */\n      dup2\n      swap1\n      sstore\n      pop\n        /* \"contracts/Staking/staking.sol\":3241:3242  0 */\n      0x00\n        /* \"contracts/Staking/staking.sol\":3227:3233  timeid */\n      0x04\n        /* \"contracts/Staking/staking.sol\":3227:3238  timeid[_id] */\n      0x00\n        /* \"contracts/Staking/staking.sol\":3234:3237  _id */\n      dup6\n        /* \"contracts/Staking/staking.sol\":3227:3238  timeid[_id] */\n      dup2\n      mstore\n      0x20\n      add\n      swap1\n      dup2\n      mstore\n      0x20\n      add\n      0x00\n      keccak256\n        /* \"contracts/Staking/staking.sol\":3227:3242  timeid[_id] = 0 */\n      dup2\n      swap1\n      sstore\n      pop\n        /* \"contracts/Staking/staking.sol\":2401:3249  {... */\n      pop\n      pop\n        /* \"contracts/Staking/staking.sol\":2360:3249  function claimAmount(uint256 _id) public {... */\n      pop\n      jump\t// out\n        /* \"contracts/Staking/staking.sol\":403:439  stakerInfo[] public stakeInformation */\n    tag_32:\n      0x02\n      dup2\n      dup2\n      sload\n      dup2\n      lt\n      tag_181\n      jumpi\n      0x00\n      dup1\n      revert\n    tag_181:\n      swap1\n      0x00\n      mstore\n      keccak256(0x00, 0x20)\n      swap1\n      0x04\n      mul\n      add\n      0x00\n      swap2\n      pop\n      swap1\n      pop\n      dup1\n      0x00\n      add\n      0x00\n      swap1\n      sload\n      swap1\n      0x0100\n      exp\n      swap1\n      div\n      0xffffffffffffffffffffffffffffffffffffffff\n      and\n      swap1\n      dup1\n      0x01\n      add\n      sload\n      swap1\n      dup1\n      0x02\n      add\n      sload\n      swap1\n      dup1\n      0x03\n      add\n      sload\n      swap1\n      pop\n      dup5\n      jump\t// out\n        /* \"contracts/Staking/staking.sol\":4350:4457  function idByAddress(address _user) public view returns(uint256 [] memory){... */\n    tag_38:\n        /* \"contracts/Staking/staking.sol\":4406:4423  uint256 [] memory */\n      0x60\n        /* \"contracts/Staking/staking.sol\":4441:4443  id */\n      0x03\n        /* \"contracts/Staking/staking.sol\":4441:4450  id[_user] */\n      0x00\n        /* \"contracts/Staking/staking.sol\":4444:4449  _user */\n      dup4\n        /* \"contracts/Staking/staking.sol\":4441:4450  id[_user] */\n      0xffffffffffffffffffffffffffffffffffffffff\n      and\n      0xffffffffffffffffffffffffffffffffffffffff\n      and\n      dup2\n      mstore\n      0x20\n      add\n      swap1\n      dup2\n      mstore\n      0x20\n      add\n      0x00\n      keccak256\n        /* \"contracts/Staking/staking.sol\":4434:4450  return id[_user] */\n      dup1\n      sload\n      dup1\n      0x20\n      mul\n      0x20\n      add\n      mload(0x40)\n      swap1\n      dup2\n      add\n      0x40\n      mstore\n      dup1\n      swap3\n      swap2\n      swap1\n      dup2\n      dup2\n      mstore\n      0x20\n      add\n      dup3\n      dup1\n      sload\n      dup1\n      iszero\n      tag_184\n      jumpi\n      0x20\n      mul\n      dup3\n      add\n      swap2\n      swap1\n      0x00\n      mstore\n      keccak256(0x00, 0x20)\n      swap1\n    tag_185:\n      dup2\n      sload\n      dup2\n      mstore\n      0x20\n      add\n      swap1\n      0x01\n      add\n      swap1\n      dup1\n      dup4\n      gt\n      tag_185\n      jumpi\n    tag_184:\n      pop\n      pop\n      pop\n      pop\n      pop\n      swap1\n      pop\n        /* \"contracts/Staking/staking.sol\":4350:4457  function idByAddress(address _user) public view returns(uint256 [] memory){... */\n      swap2\n      swap1\n      pop\n      jump\t// out\n        /* \"contracts/Staking/staking.sol\":4989:5497  function calculateRewardTillTime(uint256 _id) public view returns (uint256, uint256) {... */\n    tag_43:\n        /* \"contracts/Staking/staking.sol\":5056:5063  uint256 */\n      0x00\n        /* \"contracts/Staking/staking.sol\":5065:5072  uint256 */\n      dup1\n        /* \"contracts/Staking/staking.sol\":5117:5120  _id */\n      dup3\n        /* \"contracts/Staking/staking.sol\":5092:5108  stakeInformation */\n      0x02\n        /* \"contracts/Staking/staking.sol\":5092:5115  stakeInformation.length */\n      dup1\n      sload\n      swap1\n      pop\n        /* \"contracts/Staking/staking.sol\":5092:5120  stakeInformation.length>=_id */\n      lt\n      iszero\n        /* \"contracts/Staking/staking.sol\":5084:5160  require(stakeInformation.length>=_id,\"Invalid input: Input id doesnt exist\") */\n      tag_187\n      jumpi\n      mload(0x40)\n      0x08c379a000000000000000000000000000000000000000000000000000000000\n      dup2\n      mstore\n      0x04\n      add\n      tag_188\n      swap1\n      tag_189\n      jump\t// in\n    tag_188:\n      mload(0x40)\n      dup1\n      swap2\n      sub\n      swap1\n      revert\n    tag_187:\n        /* \"contracts/Staking/staking.sol\":5170:5193  stakerInfo memory _info */\n      0x00\n        /* \"contracts/Staking/staking.sol\":5196:5212  stakeInformation */\n      0x02\n        /* \"contracts/Staking/staking.sol\":5217:5218  1 */\n      0x01\n        /* \"contracts/Staking/staking.sol\":5213:5216  _id */\n      dup6\n        /* \"contracts/Staking/staking.sol\":5213:5218  _id-1 */\n      tag_190\n      swap2\n      swap1\n      tag_100\n      jump\t// in\n    tag_190:\n        /* \"contracts/Staking/staking.sol\":5196:5219  stakeInformation[_id-1] */\n      dup2\n      sload\n      dup2\n      lt\n      tag_191\n      jumpi\n      tag_192\n      tag_103\n      jump\t// in\n    tag_192:\n    tag_191:\n      swap1\n      0x00\n      mstore\n      keccak256(0x00, 0x20)\n      swap1\n      0x04\n      mul\n      add\n        /* \"contracts/Staking/staking.sol\":5170:5219  stakerInfo memory _info = stakeInformation[_id-1] */\n      mload(0x40)\n      dup1\n      0x80\n      add\n      0x40\n      mstore\n      swap1\n      dup2\n      0x00\n      dup3\n      add\n      0x00\n      swap1\n      sload\n      swap1\n      0x0100\n      exp\n      swap1\n      div\n      0xffffffffffffffffffffffffffffffffffffffff\n      and\n      0xffffffffffffffffffffffffffffffffffffffff\n      and\n      0xffffffffffffffffffffffffffffffffffffffff\n      and\n      dup2\n      mstore\n      0x20\n      add\n      0x01\n      dup3\n      add\n      sload\n      dup2\n      mstore\n      0x20\n      add\n      0x02\n      dup3\n      add\n      sload\n      dup2\n      mstore\n      0x20\n      add\n      0x03\n      dup3\n      add\n      sload\n      dup2\n      mstore\n      pop\n      pop\n      swap1\n      pop\n        /* \"contracts/Staking/staking.sol\":5259:5260  0 */\n      0x00\n        /* \"contracts/Staking/staking.sol\":5237:5261  _info.user != address(0) */\n      0xffffffffffffffffffffffffffffffffffffffff\n      and\n        /* \"contracts/Staking/staking.sol\":5237:5242  _info */\n      dup2\n        /* \"contracts/Staking/staking.sol\":5237:5247  _info.user */\n      0x00\n      add\n      mload\n        /* \"contracts/Staking/staking.sol\":5237:5261  _info.user != address(0) */\n      0xffffffffffffffffffffffffffffffffffffffff\n      and\n      sub\n        /* \"contracts/Staking/staking.sol\":5229:5314  require(_info.user != address(0) , \"This address corresonding to id is already used\") */\n      tag_194\n      jumpi\n      mload(0x40)\n      0x08c379a000000000000000000000000000000000000000000000000000000000\n      dup2\n      mstore\n      0x04\n      add\n      tag_195\n      swap1\n      tag_196\n      jump\t// in\n    tag_195:\n      mload(0x40)\n      dup1\n      swap2\n      sub\n      swap1\n      revert\n    tag_194:\n        /* \"contracts/Staking/staking.sol\":5324:5343  uint256 currentTime */\n      0x00\n        /* \"contracts/Staking/staking.sol\":5364:5369  _info */\n      dup2\n        /* \"contracts/Staking/staking.sol\":5364:5374  _info.time */\n      0x40\n      add\n      mload\n        /* \"contracts/Staking/staking.sol\":5346:5361  block.timestamp */\n      timestamp\n        /* \"contracts/Staking/staking.sol\":5346:5374  block.timestamp - _info.time */\n      tag_197\n      swap2\n      swap1\n      tag_100\n      jump\t// in\n    tag_197:\n        /* \"contracts/Staking/staking.sol\":5324:5374  uint256 currentTime = block.timestamp - _info.time */\n      swap1\n      pop\n        /* \"contracts/Staking/staking.sol\":5384:5405  uint256 currentTenure */\n      0x00\n        /* \"contracts/Staking/staking.sol\":5408:5413  _info */\n      dup3\n        /* \"contracts/Staking/staking.sol\":5408:5420  _info.tenure */\n      0x60\n      add\n      mload\n        /* \"contracts/Staking/staking.sol\":5384:5420  uint256 currentTenure = _info.tenure */\n      swap1\n      pop\n        /* \"contracts/Staking/staking.sol\":5438:5458  calculateReward(_id) */\n      tag_198\n        /* \"contracts/Staking/staking.sol\":5454:5457  _id */\n      dup7\n        /* \"contracts/Staking/staking.sol\":5438:5453  calculateReward */\n      tag_72\n        /* \"contracts/Staking/staking.sol\":5438:5458  calculateReward(_id) */\n      jump\t// in\n    tag_198:\n        /* \"contracts/Staking/staking.sol\":5459:5489  min(currentTime,currentTenure) */\n      tag_199\n        /* \"contracts/Staking/staking.sol\":5463:5474  currentTime */\n      dup4\n        /* \"contracts/Staking/staking.sol\":5475:5488  currentTenure */\n      dup4\n        /* \"contracts/Staking/staking.sol\":5459:5462  min */\n      tag_51\n        /* \"contracts/Staking/staking.sol\":5459:5489  min(currentTime,currentTenure) */\n      jump\t// in\n    tag_199:\n        /* \"contracts/Staking/staking.sol\":5430:5490  return (calculateReward(_id),min(currentTime,currentTenure)) */\n      swap5\n      pop\n      swap5\n      pop\n      pop\n      pop\n      pop\n        /* \"contracts/Staking/staking.sol\":4989:5497  function calculateRewardTillTime(uint256 _id) public view returns (uint256, uint256) {... */\n      swap2\n      pop\n      swap2\n      jump\t// out\n        /* \"@openzeppelin/contracts/access/Ownable.sol\":1824:1925  function renounceOwnership() public virtual onlyOwner {... */\n    tag_47:\n        /* \"@openzeppelin/contracts/access/Ownable.sol\":1094:1107  _checkOwner() */\n      tag_201\n        /* \"@openzeppelin/contracts/access/Ownable.sol\":1094:1105  _checkOwner */\n      tag_202\n        /* \"@openzeppelin/contracts/access/Ownable.sol\":1094:1107  _checkOwner() */\n      jump\t// in\n    tag_201:\n        /* \"@openzeppelin/contracts/access/Ownable.sol\":1888:1918  _transferOwnership(address(0)) */\n      tag_204\n        /* \"@openzeppelin/contracts/access/Ownable.sol\":1915:1916  0 */\n      0x00\n        /* \"@openzeppelin/contracts/access/Ownable.sol\":1888:1906  _transferOwnership */\n      tag_205\n        /* \"@openzeppelin/contracts/access/Ownable.sol\":1888:1918  _transferOwnership(address(0)) */\n      jump\t// in\n    tag_204:\n        /* \"@openzeppelin/contracts/access/Ownable.sol\":1824:1925  function renounceOwnership() public virtual onlyOwner {... */\n      jump\t// out\n        /* \"contracts/Staking/staking.sol\":1284:1387  function min(uint256 a, uint256 b) public pure returns (uint256){... */\n    tag_51:\n        /* \"contracts/Staking/staking.sol\":1340:1347  uint256 */\n      0x00\n        /* \"contracts/Staking/staking.sol\":1370:1371  b */\n      dup2\n        /* \"contracts/Staking/staking.sol\":1366:1367  a */\n      dup4\n        /* \"contracts/Staking/staking.sol\":1366:1371  a < b */\n      lt\n        /* \"contracts/Staking/staking.sol\":1365:1380  (a < b) ? a : b */\n      tag_207\n      jumpi\n        /* \"contracts/Staking/staking.sol\":1379:1380  b */\n      dup2\n        /* \"contracts/Staking/staking.sol\":1365:1380  (a < b) ? a : b */\n      jump(tag_208)\n    tag_207:\n        /* \"contracts/Staking/staking.sol\":1375:1376  a */\n      dup3\n        /* \"contracts/Staking/staking.sol\":1365:1380  (a < b) ? a : b */\n    tag_208:\n        /* \"contracts/Staking/staking.sol\":1358:1380  return (a < b) ? a : b */\n      swap1\n      pop\n        /* \"contracts/Staking/staking.sol\":1284:1387  function min(uint256 a, uint256 b) public pure returns (uint256){... */\n      swap3\n      swap2\n      pop\n      pop\n      jump\t// out\n        /* \"contracts/Staking/staking.sol\":574:1274  function stake(uint256 _stakeAmount, uint256 _time) public returns (stakerInfo memory) {... */\n    tag_56:\n        /* \"contracts/Staking/staking.sol\":642:659  stakerInfo memory */\n      tag_209\n      tag_210\n      jump\t// in\n    tag_209:\n        /* \"contracts/Staking/staking.sol\":690:691  0 */\n      0x00\n        /* \"contracts/Staking/staking.sol\":675:687  _stakeAmount */\n      dup4\n        /* \"contracts/Staking/staking.sol\":675:691  _stakeAmount > 0 */\n      gt\n        /* \"contracts/Staking/staking.sol\":667:725  require(_stakeAmount > 0, \"Stake amount must be non-zero\") */\n      tag_212\n      jumpi\n      mload(0x40)\n      0x08c379a000000000000000000000000000000000000000000000000000000000\n      dup2\n      mstore\n      0x04\n      add\n      tag_213\n      swap1\n      tag_214\n      jump\t// in\n    tag_213:\n      mload(0x40)\n      dup1\n      swap2\n      sub\n      swap1\n      revert\n    tag_212:\n        /* \"contracts/Staking/staking.sol\":770:782  _stakeAmount */\n      dup3\n        /* \"contracts/Staking/staking.sol\":739:744  token */\n      0x01\n      0x00\n      swap1\n      sload\n      swap1\n      0x0100\n      exp\n      swap1\n      div\n      0xffffffffffffffffffffffffffffffffffffffff\n      and\n        /* \"contracts/Staking/staking.sol\":739:754  token.balanceOf */\n      0xffffffffffffffffffffffffffffffffffffffff\n      and\n      0x70a08231\n        /* \"contracts/Staking/staking.sol\":755:765  msg.sender */\n      caller\n        /* \"contracts/Staking/staking.sol\":739:766  token.balanceOf(msg.sender) */\n      mload(0x40)\n      dup3\n      0xffffffff\n      and\n      0xe0\n      shl\n      dup2\n      mstore\n      0x04\n      add\n      tag_215\n      swap2\n      swap1\n      tag_62\n      jump\t// in\n    tag_215:\n      0x20\n      mload(0x40)\n      dup1\n      dup4\n      sub\n      dup2\n      dup7\n      gas\n      staticcall\n      iszero\n      dup1\n      iszero\n      tag_217\n      jumpi\n      returndatasize\n      0x00\n      dup1\n      returndatacopy\n      revert(0x00, returndatasize)\n    tag_217:\n      pop\n      pop\n      pop\n      pop\n      mload(0x40)\n      returndatasize\n      not(0x1f)\n      0x1f\n      dup3\n      add\n      and\n      dup3\n      add\n      dup1\n      0x40\n      mstore\n      pop\n      dup2\n      add\n      swap1\n      tag_218\n      swap2\n      swap1\n      tag_122\n      jump\t// in\n    tag_218:\n        /* \"contracts/Staking/staking.sol\":739:782  token.balanceOf(msg.sender) >= _stakeAmount */\n      lt\n      iszero\n        /* \"contracts/Staking/staking.sol\":731:807  require(token.balanceOf(msg.sender) >= _stakeAmount, \"Insufficient balance\") */\n      tag_219\n      jumpi\n      mload(0x40)\n      0x08c379a000000000000000000000000000000000000000000000000000000000\n      dup2\n      mstore\n      0x04\n      add\n      tag_220\n      swap1\n      tag_221\n      jump\t// in\n    tag_220:\n      mload(0x40)\n      dup1\n      swap2\n      sub\n      swap1\n      revert\n    tag_219:\n        /* \"contracts/Staking/staking.sol\":830:831  2 */\n      0x02\n        /* \"contracts/Staking/staking.sol\":821:826  _time */\n      dup3\n        /* \"contracts/Staking/staking.sol\":821:831  _time == 2 */\n      eq\n        /* \"contracts/Staking/staking.sol\":821:845  _time == 2 || _time == 4 */\n      dup1\n      tag_222\n      jumpi\n      pop\n        /* \"contracts/Staking/staking.sol\":844:845  4 */\n      0x04\n        /* \"contracts/Staking/staking.sol\":835:840  _time */\n      dup3\n        /* \"contracts/Staking/staking.sol\":835:845  _time == 4 */\n      eq\n        /* \"contracts/Staking/staking.sol\":821:845  _time == 2 || _time == 4 */\n    tag_222:\n        /* \"contracts/Staking/staking.sol\":821:859  _time == 2 || _time == 4 || _time == 6 */\n      dup1\n      tag_223\n      jumpi\n      pop\n        /* \"contracts/Staking/staking.sol\":858:859  6 */\n      0x06\n        /* \"contracts/Staking/staking.sol\":849:854  _time */\n      dup3\n        /* \"contracts/Staking/staking.sol\":849:859  _time == 6 */\n      eq\n        /* \"contracts/Staking/staking.sol\":821:859  _time == 2 || _time == 4 || _time == 6 */\n    tag_223:\n        /* \"contracts/Staking/staking.sol\":821:873  _time == 2 || _time == 4 || _time == 6 || _time == 8 */\n      dup1\n      tag_224\n      jumpi\n      pop\n        /* \"contracts/Staking/staking.sol\":872:873  8 */\n      0x08\n        /* \"contracts/Staking/staking.sol\":863:868  _time */\n      dup3\n        /* \"contracts/Staking/staking.sol\":863:873  _time == 8 */\n      eq\n        /* \"contracts/Staking/staking.sol\":821:873  _time == 2 || _time == 4 || _time == 6 || _time == 8 */\n    tag_224:\n        /* \"contracts/Staking/staking.sol\":821:888  _time == 2 || _time == 4 || _time == 6 || _time == 8 || _time == 10 */\n      dup1\n      tag_225\n      jumpi\n      pop\n        /* \"contracts/Staking/staking.sol\":886:888  10 */\n      0x0a\n        /* \"contracts/Staking/staking.sol\":877:882  _time */\n      dup3\n        /* \"contracts/Staking/staking.sol\":877:888  _time == 10 */\n      eq\n        /* \"contracts/Staking/staking.sol\":821:888  _time == 2 || _time == 4 || _time == 6 || _time == 8 || _time == 10 */\n    tag_225:\n        /* \"contracts/Staking/staking.sol\":813:954  require(_time == 2 || _time == 4 || _time == 6 || _time == 8 || _time == 10, \"Time can only be in even minutes and less than or equal to 10\") */\n      tag_226\n      jumpi\n      mload(0x40)\n      0x08c379a000000000000000000000000000000000000000000000000000000000\n      dup2\n      mstore\n      0x04\n      add\n      tag_227\n      swap1\n      tag_228\n      jump\t// in\n    tag_227:\n      mload(0x40)\n      dup1\n      swap2\n      sub\n      swap1\n      revert\n    tag_226:\n        /* \"contracts/Staking/staking.sol\":961:978  uint256 startTime */\n      0x00\n        /* \"contracts/Staking/staking.sol\":981:996  block.timestamp */\n      timestamp\n        /* \"contracts/Staking/staking.sol\":961:996  uint256 startTime = block.timestamp */\n      swap1\n      pop\n        /* \"contracts/Staking/staking.sol\":1002:1007  token */\n      0x01\n      0x00\n      swap1\n      sload\n      swap1\n      0x0100\n      exp\n      swap1\n      div\n      0xffffffffffffffffffffffffffffffffffffffff\n      and\n        /* \"contracts/Staking/staking.sol\":1002:1020  token.transferFrom */\n      0xffffffffffffffffffffffffffffffffffffffff\n      and\n      0x23b872dd\n        /* \"contracts/Staking/staking.sol\":1021:1031  msg.sender */\n      caller\n        /* \"contracts/Staking/staking.sol\":1041:1045  this */\n      address\n        /* \"contracts/Staking/staking.sol\":1048:1060  _stakeAmount */\n      dup8\n        /* \"contracts/Staking/staking.sol\":1002:1061  token.transferFrom(msg.sender, address(this), _stakeAmount) */\n      mload(0x40)\n      dup5\n      0xffffffff\n      and\n      0xe0\n      shl\n      dup2\n      mstore\n      0x04\n      add\n      tag_229\n      swap4\n      swap3\n      swap2\n      swap1\n      tag_230\n      jump\t// in\n    tag_229:\n      0x20\n      mload(0x40)\n      dup1\n      dup4\n      sub\n      dup2\n      0x00\n      dup8\n      gas\n      call\n      iszero\n      dup1\n      iszero\n      tag_232\n      jumpi\n      returndatasize\n      0x00\n      dup1\n      returndatacopy\n      revert(0x00, returndatasize)\n    tag_232:\n      pop\n      pop\n      pop\n      pop\n      mload(0x40)\n      returndatasize\n      not(0x1f)\n      0x1f\n      dup3\n      add\n      and\n      dup3\n      add\n      dup1\n      0x40\n      mstore\n      pop\n      dup2\n      add\n      swap1\n      tag_233\n      swap2\n      swap1\n      tag_131\n      jump\t// in\n    tag_233:\n      pop\n        /* \"contracts/Staking/staking.sol\":1068:1084  stakeInformation */\n      0x02\n        /* \"contracts/Staking/staking.sol\":1090:1144  stakerInfo(msg.sender, _stakeAmount, _time, startTime) */\n      mload(0x40)\n      dup1\n      0x80\n      add\n      0x40\n      mstore\n      dup1\n        /* \"contracts/Staking/staking.sol\":1101:1111  msg.sender */\n      caller\n        /* \"contracts/Staking/staking.sol\":1090:1144  stakerInfo(msg.sender, _stakeAmount, _time, startTime) */\n      0xffffffffffffffffffffffffffffffffffffffff\n      and\n      dup2\n      mstore\n      0x20\n      add\n        /* \"contracts/Staking/staking.sol\":1113:1125  _stakeAmount */\n      dup7\n        /* \"contracts/Staking/staking.sol\":1090:1144  stakerInfo(msg.sender, _stakeAmount, _time, startTime) */\n      dup2\n      mstore\n      0x20\n      add\n        /* \"contracts/Staking/staking.sol\":1127:1132  _time */\n      dup6\n        /* \"contracts/Staking/staking.sol\":1090:1144  stakerInfo(msg.sender, _stakeAmount, _time, startTime) */\n      dup2\n      mstore\n      0x20\n      add\n        /* \"contracts/Staking/staking.sol\":1134:1143  startTime */\n      dup4\n        /* \"contracts/Staking/staking.sol\":1090:1144  stakerInfo(msg.sender, _stakeAmount, _time, startTime) */\n      dup2\n      mstore\n      pop\n        /* \"contracts/Staking/staking.sol\":1068:1145  stakeInformation.push(stakerInfo(msg.sender, _stakeAmount, _time, startTime)) */\n      swap1\n      dup1\n      0x01\n      dup2\n      sload\n      add\n      dup1\n      dup3\n      sstore\n      dup1\n      swap2\n      pop\n      pop\n      0x01\n      swap1\n      sub\n      swap1\n      0x00\n      mstore\n      keccak256(0x00, 0x20)\n      swap1\n      0x04\n      mul\n      add\n      0x00\n      swap1\n      swap2\n      swap1\n      swap2\n      swap1\n      swap2\n      pop\n      0x00\n      dup3\n      add\n      mload\n      dup2\n      0x00\n      add\n      exp(0x0100, 0x00)\n      dup2\n      sload\n      dup2\n      0xffffffffffffffffffffffffffffffffffffffff\n      mul\n      not\n      and\n      swap1\n      dup4\n      0xffffffffffffffffffffffffffffffffffffffff\n      and\n      mul\n      or\n      swap1\n      sstore\n      pop\n      0x20\n      dup3\n      add\n      mload\n      dup2\n      0x01\n      add\n      sstore\n      0x40\n      dup3\n      add\n      mload\n      dup2\n      0x02\n      add\n      sstore\n      0x60\n      dup3\n      add\n      mload\n      dup2\n      0x03\n      add\n      sstore\n      pop\n      pop\n        /* \"contracts/Staking/staking.sol\":1151:1162  uint256 _id */\n      0x00\n        /* \"contracts/Staking/staking.sol\":1165:1181  stakeInformation */\n      0x02\n        /* \"contracts/Staking/staking.sol\":1165:1188  stakeInformation.length */\n      dup1\n      sload\n      swap1\n      pop\n        /* \"contracts/Staking/staking.sol\":1151:1188  uint256 _id = stakeInformation.length */\n      swap1\n      pop\n        /* \"contracts/Staking/staking.sol\":1194:1196  id */\n      0x03\n        /* \"contracts/Staking/staking.sol\":1194:1208  id[msg.sender] */\n      0x00\n        /* \"contracts/Staking/staking.sol\":1197:1207  msg.sender */\n      caller\n        /* \"contracts/Staking/staking.sol\":1194:1208  id[msg.sender] */\n      0xffffffffffffffffffffffffffffffffffffffff\n      and\n      0xffffffffffffffffffffffffffffffffffffffff\n      and\n      dup2\n      mstore\n      0x20\n      add\n      swap1\n      dup2\n      mstore\n      0x20\n      add\n      0x00\n      keccak256\n        /* \"contracts/Staking/staking.sol\":1214:1217  _id */\n      dup2\n        /* \"contracts/Staking/staking.sol\":1194:1218  id[msg.sender].push(_id) */\n      swap1\n      dup1\n      0x01\n      dup2\n      sload\n      add\n      dup1\n      dup3\n      sstore\n      dup1\n      swap2\n      pop\n      pop\n      0x01\n      swap1\n      sub\n      swap1\n      0x00\n      mstore\n      keccak256(0x00, 0x20)\n      add\n      0x00\n      swap1\n      swap2\n      swap1\n      swap2\n      swap1\n      swap2\n      pop\n      sstore\n        /* \"contracts/Staking/staking.sol\":1232:1248  stakeInformation */\n      0x02\n        /* \"contracts/Staking/staking.sol\":1255:1256  1 */\n      0x01\n        /* \"contracts/Staking/staking.sol\":1249:1252  _id */\n      dup3\n        /* \"contracts/Staking/staking.sol\":1249:1256  _id - 1 */\n      tag_236\n      swap2\n      swap1\n      tag_100\n      jump\t// in\n    tag_236:\n        /* \"contracts/Staking/staking.sol\":1232:1257  stakeInformation[_id - 1] */\n      dup2\n      sload\n      dup2\n      lt\n      tag_237\n      jumpi\n      tag_238\n      tag_103\n      jump\t// in\n    tag_238:\n    tag_237:\n      swap1\n      0x00\n      mstore\n      keccak256(0x00, 0x20)\n      swap1\n      0x04\n      mul\n      add\n        /* \"contracts/Staking/staking.sol\":1225:1257  return stakeInformation[_id - 1] */\n      mload(0x40)\n      dup1\n      0x80\n      add\n      0x40\n      mstore\n      swap1\n      dup2\n      0x00\n      dup3\n      add\n      0x00\n      swap1\n      sload\n      swap1\n      0x0100\n      exp\n      swap1\n      div\n      0xffffffffffffffffffffffffffffffffffffffff\n      and\n      0xffffffffffffffffffffffffffffffffffffffff\n      and\n      0xffffffffffffffffffffffffffffffffffffffff\n      and\n      dup2\n      mstore\n      0x20\n      add\n      0x01\n      dup3\n      add\n      sload\n      dup2\n      mstore\n      0x20\n      add\n      0x02\n      dup3\n      add\n      sload\n      dup2\n      mstore\n      0x20\n      add\n      0x03\n      dup3\n      add\n      sload\n      dup2\n      mstore\n      pop\n      pop\n      swap3\n      pop\n      pop\n      pop\n        /* \"contracts/Staking/staking.sol\":574:1274  function stake(uint256 _stakeAmount, uint256 _time) public returns (stakerInfo memory) {... */\n      swap3\n      swap2\n      pop\n      pop\n      jump\t// out\n        /* \"@openzeppelin/contracts/access/Ownable.sol\":1201:1286  function owner() public view virtual returns (address) {... */\n    tag_60:\n        /* \"@openzeppelin/contracts/access/Ownable.sol\":1247:1254  address */\n      0x00\n        /* \"@openzeppelin/contracts/access/Ownable.sol\":1273:1279  _owner */\n      dup1\n      0x00\n      swap1\n      sload\n      swap1\n      0x0100\n      exp\n      swap1\n      div\n      0xffffffffffffffffffffffffffffffffffffffff\n      and\n        /* \"@openzeppelin/contracts/access/Ownable.sol\":1266:1279  return _owner */\n      swap1\n      pop\n        /* \"@openzeppelin/contracts/access/Ownable.sol\":1201:1286  function owner() public view virtual returns (address) {... */\n      swap1\n      jump\t// out\n        /* \"contracts/Staking/staking.sol\":4462:4582  function getDetails(uint256 _id) public view returns (stakerInfo memory) {... */\n    tag_65:\n        /* \"contracts/Staking/staking.sol\":4516:4533  stakerInfo memory */\n      tag_241\n      tag_210\n      jump\t// in\n    tag_241:\n        /* \"contracts/Staking/staking.sol\":4552:4568  stakeInformation */\n      0x02\n        /* \"contracts/Staking/staking.sol\":4573:4574  1 */\n      0x01\n        /* \"contracts/Staking/staking.sol\":4569:4572  _id */\n      dup4\n        /* \"contracts/Staking/staking.sol\":4569:4574  _id-1 */\n      tag_243\n      swap2\n      swap1\n      tag_100\n      jump\t// in\n    tag_243:\n        /* \"contracts/Staking/staking.sol\":4552:4575  stakeInformation[_id-1] */\n      dup2\n      sload\n      dup2\n      lt\n      tag_244\n      jumpi\n      tag_245\n      tag_103\n      jump\t// in\n    tag_245:\n    tag_244:\n      swap1\n      0x00\n      mstore\n      keccak256(0x00, 0x20)\n      swap1\n      0x04\n      mul\n      add\n        /* \"contracts/Staking/staking.sol\":4545:4575  return stakeInformation[_id-1] */\n      mload(0x40)\n      dup1\n      0x80\n      add\n      0x40\n      mstore\n      swap1\n      dup2\n      0x00\n      dup3\n      add\n      0x00\n      swap1\n      sload\n      swap1\n      0x0100\n      exp\n      swap1\n      div\n      0xffffffffffffffffffffffffffffffffffffffff\n      and\n      0xffffffffffffffffffffffffffffffffffffffff\n      and\n      0xffffffffffffffffffffffffffffffffffffffff\n      and\n      dup2\n      mstore\n      0x20\n      add\n      0x01\n      dup3\n      add\n      sload\n      dup2\n      mstore\n      0x20\n      add\n      0x02\n      dup3\n      add\n      sload\n      dup2\n      mstore\n      0x20\n      add\n      0x03\n      dup3\n      add\n      sload\n      dup2\n      mstore\n      pop\n      pop\n      swap1\n      pop\n        /* \"contracts/Staking/staking.sol\":4462:4582  function getDetails(uint256 _id) public view returns (stakerInfo memory) {... */\n      swap2\n      swap1\n      pop\n      jump\t// out\n        /* \"contracts/Staking/staking.sol\":4222:4341  function getStakeContractBalance() public view returns (uint256) {... */\n    tag_68:\n        /* \"contracts/Staking/staking.sol\":4278:4285  uint256 */\n      0x00\n        /* \"contracts/Staking/staking.sol\":4304:4309  token */\n      0x01\n      0x00\n      swap1\n      sload\n      swap1\n      0x0100\n      exp\n      swap1\n      div\n      0xffffffffffffffffffffffffffffffffffffffff\n      and\n        /* \"contracts/Staking/staking.sol\":4304:4319  token.balanceOf */\n      0xffffffffffffffffffffffffffffffffffffffff\n      and\n      0x70a08231\n        /* \"contracts/Staking/staking.sol\":4328:4332  this */\n      address\n        /* \"contracts/Staking/staking.sol\":4304:4334  token.balanceOf(address(this)) */\n      mload(0x40)\n      dup3\n      0xffffffff\n      and\n      0xe0\n      shl\n      dup2\n      mstore\n      0x04\n      add\n      tag_248\n      swap2\n      swap1\n      tag_62\n      jump\t// in\n    tag_248:\n      0x20\n      mload(0x40)\n      dup1\n      dup4\n      sub\n      dup2\n      dup7\n      gas\n      staticcall\n      iszero\n      dup1\n      iszero\n      tag_250\n      jumpi\n      returndatasize\n      0x00\n      dup1\n      returndatacopy\n      revert(0x00, returndatasize)\n    tag_250:\n      pop\n      pop\n      pop\n      pop\n      mload(0x40)\n      returndatasize\n      not(0x1f)\n      0x1f\n      dup3\n      add\n      and\n      dup3\n      add\n      dup1\n      0x40\n      mstore\n      pop\n      dup2\n      add\n      swap1\n      tag_251\n      swap2\n      swap1\n      tag_122\n      jump\t// in\n    tag_251:\n        /* \"contracts/Staking/staking.sol\":4297:4334  return token.balanceOf(address(this)) */\n      swap1\n      pop\n        /* \"contracts/Staking/staking.sol\":4222:4341  function getStakeContractBalance() public view returns (uint256) {... */\n      swap1\n      jump\t// out\n        /* \"contracts/Staking/staking.sol\":1393:2354  function calculateReward(uint256 _id) public view returns(uint256) {... */\n    tag_72:\n        /* \"contracts/Staking/staking.sol\":1451:1458  uint256 */\n      0x00\n        /* \"contracts/Staking/staking.sol\":1470:1499  stakerInfo memory information */\n      dup1\n        /* \"contracts/Staking/staking.sol\":1500:1516  stakeInformation */\n      0x02\n        /* \"contracts/Staking/staking.sol\":1521:1522  1 */\n      0x01\n        /* \"contracts/Staking/staking.sol\":1517:1520  _id */\n      dup5\n        /* \"contracts/Staking/staking.sol\":1517:1522  _id-1 */\n      tag_253\n      swap2\n      swap1\n      tag_100\n      jump\t// in\n    tag_253:\n        /* \"contracts/Staking/staking.sol\":1500:1523  stakeInformation[_id-1] */\n      dup2\n      sload\n      dup2\n      lt\n      tag_254\n      jumpi\n      tag_255\n      tag_103\n      jump\t// in\n    tag_255:\n    tag_254:\n      swap1\n      0x00\n      mstore\n      keccak256(0x00, 0x20)\n      swap1\n      0x04\n      mul\n      add\n        /* \"contracts/Staking/staking.sol\":1470:1523  stakerInfo memory information=stakeInformation[_id-1] */\n      mload(0x40)\n      dup1\n      0x80\n      add\n      0x40\n      mstore\n      swap1\n      dup2\n      0x00\n      dup3\n      add\n      0x00\n      swap1\n      sload\n      swap1\n      0x0100\n      exp\n      swap1\n      div\n      0xffffffffffffffffffffffffffffffffffffffff\n      and\n      0xffffffffffffffffffffffffffffffffffffffff\n      and\n      0xffffffffffffffffffffffffffffffffffffffff\n      and\n      dup2\n      mstore\n      0x20\n      add\n      0x01\n      dup3\n      add\n      sload\n      dup2\n      mstore\n      0x20\n      add\n      0x02\n      dup3\n      add\n      sload\n      dup2\n      mstore\n      0x20\n      add\n      0x03\n      dup3\n      add\n      sload\n      dup2\n      mstore\n      pop\n      pop\n      swap1\n      pop\n        /* \"contracts/Staking/staking.sol\":1533:1554  uint256 currentTenure */\n      0x00\n        /* \"contracts/Staking/staking.sol\":1555:1566  information */\n      dup2\n        /* \"contracts/Staking/staking.sol\":1555:1573  information.tenure */\n      0x60\n      add\n      mload\n        /* \"contracts/Staking/staking.sol\":1533:1573  uint256 currentTenure=information.tenure */\n      swap1\n      pop\n        /* \"contracts/Staking/staking.sol\":1583:1602  uint256 currentTime */\n      0x00\n        /* \"contracts/Staking/staking.sol\":1603:1614  information */\n      dup3\n        /* \"contracts/Staking/staking.sol\":1603:1619  information.time */\n      0x40\n      add\n      mload\n        /* \"contracts/Staking/staking.sol\":1583:1619  uint256 currentTime=information.time */\n      swap1\n      pop\n        /* \"contracts/Staking/staking.sol\":1629:1643  uint256 reward */\n      0x00\n        /* \"contracts/Staking/staking.sol\":1682:1683  2 */\n      0x02\n        /* \"contracts/Staking/staking.sol\":1667:1680  currentTenure */\n      dup4\n        /* \"contracts/Staking/staking.sol\":1667:1683  currentTenure==2 */\n      sub\n        /* \"contracts/Staking/staking.sol\":1664:2308  if(currentTenure==2){... */\n      tag_257\n      jumpi\n        /* \"contracts/Staking/staking.sol\":1770:1773  100 */\n      0x64\n        /* \"contracts/Staking/staking.sol\":1767:1768  1 */\n      0x01\n        /* \"contracts/Staking/staking.sol\":1742:1753  information */\n      dup6\n        /* \"contracts/Staking/staking.sol\":1742:1765  information.amountStake */\n      0x20\n      add\n      mload\n        /* \"contracts/Staking/staking.sol\":1708:1741  min(currentTime,currentTenure*60) */\n      tag_258\n        /* \"contracts/Staking/staking.sol\":1712:1723  currentTime */\n      dup6\n        /* \"contracts/Staking/staking.sol\":1738:1740  60 */\n      0x3c\n        /* \"contracts/Staking/staking.sol\":1724:1737  currentTenure */\n      dup9\n        /* \"contracts/Staking/staking.sol\":1724:1740  currentTenure*60 */\n      tag_259\n      swap2\n      swap1\n      tag_260\n      jump\t// in\n    tag_259:\n        /* \"contracts/Staking/staking.sol\":1708:1711  min */\n      tag_51\n        /* \"contracts/Staking/staking.sol\":1708:1741  min(currentTime,currentTenure*60) */\n      jump\t// in\n    tag_258:\n        /* \"contracts/Staking/staking.sol\":1708:1765  min(currentTime,currentTenure*60)*information.amountStake */\n      tag_261\n      swap2\n      swap1\n      tag_260\n      jump\t// in\n    tag_261:\n        /* \"contracts/Staking/staking.sol\":1707:1768  (min(currentTime,currentTenure*60)*information.amountStake)*1 */\n      tag_262\n      swap2\n      swap1\n      tag_260\n      jump\t// in\n    tag_262:\n        /* \"contracts/Staking/staking.sol\":1706:1773  ((min(currentTime,currentTenure*60)*information.amountStake)*1)/100 */\n      tag_263\n      swap2\n      swap1\n      tag_264\n      jump\t// in\n    tag_263:\n        /* \"contracts/Staking/staking.sol\":1698:1774  reward=(((min(currentTime,currentTenure*60)*information.amountStake)*1)/100) */\n      swap1\n      pop\n        /* \"contracts/Staking/staking.sol\":1664:2308  if(currentTenure==2){... */\n      jump(tag_265)\n    tag_257:\n        /* \"contracts/Staking/staking.sol\":1820:1821  4 */\n      0x04\n        /* \"contracts/Staking/staking.sol\":1805:1818  currentTenure */\n      dup4\n        /* \"contracts/Staking/staking.sol\":1805:1821  currentTenure==4 */\n      sub\n        /* \"contracts/Staking/staking.sol\":1802:2308  if(currentTenure==4){... */\n      tag_266\n      jumpi\n        /* \"contracts/Staking/staking.sol\":1908:1911  100 */\n      0x64\n        /* \"contracts/Staking/staking.sol\":1905:1906  2 */\n      0x02\n        /* \"contracts/Staking/staking.sol\":1880:1891  information */\n      dup6\n        /* \"contracts/Staking/staking.sol\":1880:1903  information.amountStake */\n      0x20\n      add\n      mload\n        /* \"contracts/Staking/staking.sol\":1846:1879  min(currentTime,currentTenure*60) */\n      tag_267\n        /* \"contracts/Staking/staking.sol\":1850:1861  currentTime */\n      dup6\n        /* \"contracts/Staking/staking.sol\":1876:1878  60 */\n      0x3c\n        /* \"contracts/Staking/staking.sol\":1862:1875  currentTenure */\n      dup9\n        /* \"contracts/Staking/staking.sol\":1862:1878  currentTenure*60 */\n      tag_268\n      swap2\n      swap1\n      tag_260\n      jump\t// in\n    tag_268:\n        /* \"contracts/Staking/staking.sol\":1846:1849  min */\n      tag_51\n        /* \"contracts/Staking/staking.sol\":1846:1879  min(currentTime,currentTenure*60) */\n      jump\t// in\n    tag_267:\n        /* \"contracts/Staking/staking.sol\":1846:1903  min(currentTime,currentTenure*60)*information.amountStake */\n      tag_269\n      swap2\n      swap1\n      tag_260\n      jump\t// in\n    tag_269:\n        /* \"contracts/Staking/staking.sol\":1845:1906  (min(currentTime,currentTenure*60)*information.amountStake)*2 */\n      tag_270\n      swap2\n      swap1\n      tag_260\n      jump\t// in\n    tag_270:\n        /* \"contracts/Staking/staking.sol\":1844:1911  ((min(currentTime,currentTenure*60)*information.amountStake)*2)/100 */\n      tag_271\n      swap2\n      swap1\n      tag_264\n      jump\t// in\n    tag_271:\n        /* \"contracts/Staking/staking.sol\":1836:1912  reward=(((min(currentTime,currentTenure*60)*information.amountStake)*2)/100) */\n      swap1\n      pop\n        /* \"contracts/Staking/staking.sol\":1802:2308  if(currentTenure==4){... */\n      jump(tag_272)\n    tag_266:\n        /* \"contracts/Staking/staking.sol\":1960:1961  6 */\n      0x06\n        /* \"contracts/Staking/staking.sol\":1945:1958  currentTenure */\n      dup4\n        /* \"contracts/Staking/staking.sol\":1945:1961  currentTenure==6 */\n      sub\n        /* \"contracts/Staking/staking.sol\":1942:2308  if(currentTenure==6){... */\n      tag_273\n      jumpi\n        /* \"contracts/Staking/staking.sol\":2048:2051  100 */\n      0x64\n        /* \"contracts/Staking/staking.sol\":2045:2046  3 */\n      0x03\n        /* \"contracts/Staking/staking.sol\":2020:2031  information */\n      dup6\n        /* \"contracts/Staking/staking.sol\":2020:2043  information.amountStake */\n      0x20\n      add\n      mload\n        /* \"contracts/Staking/staking.sol\":1986:2019  min(currentTime,currentTenure*60) */\n      tag_274\n        /* \"contracts/Staking/staking.sol\":1990:2001  currentTime */\n      dup6\n        /* \"contracts/Staking/staking.sol\":2016:2018  60 */\n      0x3c\n        /* \"contracts/Staking/staking.sol\":2002:2015  currentTenure */\n      dup9\n        /* \"contracts/Staking/staking.sol\":2002:2018  currentTenure*60 */\n      tag_275\n      swap2\n      swap1\n      tag_260\n      jump\t// in\n    tag_275:\n        /* \"contracts/Staking/staking.sol\":1986:1989  min */\n      tag_51\n        /* \"contracts/Staking/staking.sol\":1986:2019  min(currentTime,currentTenure*60) */\n      jump\t// in\n    tag_274:\n        /* \"contracts/Staking/staking.sol\":1986:2043  min(currentTime,currentTenure*60)*information.amountStake */\n      tag_276\n      swap2\n      swap1\n      tag_260\n      jump\t// in\n    tag_276:\n        /* \"contracts/Staking/staking.sol\":1985:2046  (min(currentTime,currentTenure*60)*information.amountStake)*3 */\n      tag_277\n      swap2\n      swap1\n      tag_260\n      jump\t// in\n    tag_277:\n        /* \"contracts/Staking/staking.sol\":1984:2051  ((min(currentTime,currentTenure*60)*information.amountStake)*3)/100 */\n      tag_278\n      swap2\n      swap1\n      tag_264\n      jump\t// in\n    tag_278:\n        /* \"contracts/Staking/staking.sol\":1976:2052  reward=(((min(currentTime,currentTenure*60)*information.amountStake)*3)/100) */\n      swap1\n      pop\n        /* \"contracts/Staking/staking.sol\":1942:2308  if(currentTenure==6){... */\n      jump(tag_279)\n    tag_273:\n        /* \"contracts/Staking/staking.sol\":2099:2100  8 */\n      0x08\n        /* \"contracts/Staking/staking.sol\":2084:2097  currentTenure */\n      dup4\n        /* \"contracts/Staking/staking.sol\":2084:2100  currentTenure==8 */\n      sub\n        /* \"contracts/Staking/staking.sol\":2081:2308  if(currentTenure==8){... */\n      tag_280\n      jumpi\n        /* \"contracts/Staking/staking.sol\":2187:2190  100 */\n      0x64\n        /* \"contracts/Staking/staking.sol\":2184:2185  4 */\n      0x04\n        /* \"contracts/Staking/staking.sol\":2159:2170  information */\n      dup6\n        /* \"contracts/Staking/staking.sol\":2159:2182  information.amountStake */\n      0x20\n      add\n      mload\n        /* \"contracts/Staking/staking.sol\":2125:2158  min(currentTime,currentTenure*60) */\n      tag_281\n        /* \"contracts/Staking/staking.sol\":2129:2140  currentTime */\n      dup6\n        /* \"contracts/Staking/staking.sol\":2155:2157  60 */\n      0x3c\n        /* \"contracts/Staking/staking.sol\":2141:2154  currentTenure */\n      dup9\n        /* \"contracts/Staking/staking.sol\":2141:2157  currentTenure*60 */\n      tag_282\n      swap2\n      swap1\n      tag_260\n      jump\t// in\n    tag_282:\n        /* \"contracts/Staking/staking.sol\":2125:2128  min */\n      tag_51\n        /* \"contracts/Staking/staking.sol\":2125:2158  min(currentTime,currentTenure*60) */\n      jump\t// in\n    tag_281:\n        /* \"contracts/Staking/staking.sol\":2125:2182  min(currentTime,currentTenure*60)*information.amountStake */\n      tag_283\n      swap2\n      swap1\n      tag_260\n      jump\t// in\n    tag_283:\n        /* \"contracts/Staking/staking.sol\":2124:2185  (min(currentTime,currentTenure*60)*information.amountStake)*4 */\n      tag_284\n      swap2\n      swap1\n      tag_260\n      jump\t// in\n    tag_284:\n        /* \"contracts/Staking/staking.sol\":2123:2190  ((min(currentTime,currentTenure*60)*information.amountStake)*4)/100 */\n      tag_285\n      swap2\n      swap1\n      tag_264\n      jump\t// in\n    tag_285:\n        /* \"contracts/Staking/staking.sol\":2115:2191  reward=(((min(currentTime,currentTenure*60)*information.amountStake)*4)/100) */\n      swap1\n      pop\n        /* \"contracts/Staking/staking.sol\":2081:2308  if(currentTenure==8){... */\n      jump(tag_286)\n    tag_280:\n        /* \"contracts/Staking/staking.sol\":2304:2307  100 */\n      0x64\n        /* \"contracts/Staking/staking.sol\":2301:2302  5 */\n      0x05\n        /* \"contracts/Staking/staking.sol\":2276:2287  information */\n      dup6\n        /* \"contracts/Staking/staking.sol\":2276:2299  information.amountStake */\n      0x20\n      add\n      mload\n        /* \"contracts/Staking/staking.sol\":2242:2275  min(currentTime,currentTenure*60) */\n      tag_287\n        /* \"contracts/Staking/staking.sol\":2246:2257  currentTime */\n      dup6\n        /* \"contracts/Staking/staking.sol\":2272:2274  60 */\n      0x3c\n        /* \"contracts/Staking/staking.sol\":2258:2271  currentTenure */\n      dup9\n        /* \"contracts/Staking/staking.sol\":2258:2274  currentTenure*60 */\n      tag_288\n      swap2\n      swap1\n      tag_260\n      jump\t// in\n    tag_288:\n        /* \"contracts/Staking/staking.sol\":2242:2245  min */\n      tag_51\n        /* \"contracts/Staking/staking.sol\":2242:2275  min(currentTime,currentTenure*60) */\n      jump\t// in\n    tag_287:\n        /* \"contracts/Staking/staking.sol\":2242:2299  min(currentTime,currentTenure*60)*information.amountStake */\n      tag_289\n      swap2\n      swap1\n      tag_260\n      jump\t// in\n    tag_289:\n        /* \"contracts/Staking/staking.sol\":2241:2302  (min(currentTime,currentTenure*60)*information.amountStake)*5 */\n      tag_290\n      swap2\n      swap1\n      tag_260\n      jump\t// in\n    tag_290:\n        /* \"contracts/Staking/staking.sol\":2240:2307  ((min(currentTime,currentTenure*60)*information.amountStake)*5)/100 */\n      tag_291\n      swap2\n      swap1\n      tag_264\n      jump\t// in\n    tag_291:\n        /* \"contracts/Staking/staking.sol\":2232:2308  reward=(((min(currentTime,currentTenure*60)*information.amountStake)*5)/100) */\n      swap1\n      pop\n        /* \"contracts/Staking/staking.sol\":2081:2308  if(currentTenure==8){... */\n    tag_286:\n        /* \"contracts/Staking/staking.sol\":1942:2308  if(currentTenure==6){... */\n    tag_279:\n        /* \"contracts/Staking/staking.sol\":1802:2308  if(currentTenure==4){... */\n    tag_272:\n        /* \"contracts/Staking/staking.sol\":1664:2308  if(currentTenure==2){... */\n    tag_265:\n        /* \"contracts/Staking/staking.sol\":2339:2345  reward */\n      dup1\n        /* \"contracts/Staking/staking.sol\":2332:2345  return reward */\n      swap5\n      pop\n      pop\n      pop\n      pop\n      pop\n        /* \"contracts/Staking/staking.sol\":1393:2354  function calculateReward(uint256 _id) public view returns(uint256) {... */\n      swap2\n      swap1\n      pop\n      jump\t// out\n        /* \"contracts/Staking/staking.sol\":447:485  mapping (address=>uint256[]) public id */\n    tag_77:\n      mstore(0x20, 0x03)\n      dup2\n      0x00\n      mstore\n      keccak256(0x00, 0x40)\n      dup2\n      dup2\n      sload\n      dup2\n      lt\n      tag_292\n      jumpi\n      0x00\n      dup1\n      revert\n    tag_292:\n      swap1\n      0x00\n      mstore\n      keccak256(0x00, 0x20)\n      add\n      0x00\n      swap2\n      pop\n      swap2\n      pop\n      pop\n      sload\n      dup2\n      jump\t// out\n        /* \"contracts/Staking/staking.sol\":516:556  mapping (uint256=>uint256) public timeid */\n    tag_81:\n      mstore(0x20, 0x04)\n      dup1\n      0x00\n      mstore\n      keccak256(0x00, 0x40)\n      0x00\n      swap2\n      pop\n      swap1\n      pop\n      sload\n      dup2\n      jump\t// out\n        /* \"contracts/Staking/staking.sol\":4589:4986  function getStakingDetails(uint256 _id) public view returns (address user, uint256 amountStaked, uint256 tenure, uint256 time, uint256 claimableReward) {... */\n    tag_85:\n        /* \"contracts/Staking/staking.sol\":4650:4662  address user */\n      0x00\n        /* \"contracts/Staking/staking.sol\":4664:4684  uint256 amountStaked */\n      dup1\n        /* \"contracts/Staking/staking.sol\":4686:4700  uint256 tenure */\n      0x00\n        /* \"contracts/Staking/staking.sol\":4702:4714  uint256 time */\n      dup1\n        /* \"contracts/Staking/staking.sol\":4716:4739  uint256 claimableReward */\n      0x00\n        /* \"contracts/Staking/staking.sol\":4762:4778  stakeInformation */\n      0x02\n        /* \"contracts/Staking/staking.sol\":4762:4785  stakeInformation.length */\n      dup1\n      sload\n      swap1\n      pop\n        /* \"contracts/Staking/staking.sol\":4755:4758  _id */\n      dup7\n        /* \"contracts/Staking/staking.sol\":4755:4785  _id <= stakeInformation.length */\n      gt\n      iszero\n        /* \"contracts/Staking/staking.sol\":4747:4808  require(_id <= stakeInformation.length, \"Invalid staking ID\") */\n      tag_295\n      jumpi\n      mload(0x40)\n      0x08c379a000000000000000000000000000000000000000000000000000000000\n      dup2\n      mstore\n      0x04\n      add\n      tag_296\n      swap1\n      tag_297\n      jump\t// in\n    tag_296:\n      mload(0x40)\n      dup1\n      swap2\n      sub\n      swap1\n      revert\n    tag_295:\n        /* \"contracts/Staking/staking.sol\":4815:4837  stakerInfo memory info */\n      0x00\n        /* \"contracts/Staking/staking.sol\":4840:4856  stakeInformation */\n      0x02\n        /* \"contracts/Staking/staking.sol\":4863:4864  1 */\n      0x01\n        /* \"contracts/Staking/staking.sol\":4857:4860  _id */\n      dup9\n        /* \"contracts/Staking/staking.sol\":4857:4864  _id - 1 */\n      tag_298\n      swap2\n      swap1\n      tag_100\n      jump\t// in\n    tag_298:\n        /* \"contracts/Staking/staking.sol\":4840:4865  stakeInformation[_id - 1] */\n      dup2\n      sload\n      dup2\n      lt\n      tag_299\n      jumpi\n      tag_300\n      tag_103\n      jump\t// in\n    tag_300:\n    tag_299:\n      swap1\n      0x00\n      mstore\n      keccak256(0x00, 0x20)\n      swap1\n      0x04\n      mul\n      add\n        /* \"contracts/Staking/staking.sol\":4815:4865  stakerInfo memory info = stakeInformation[_id - 1] */\n      mload(0x40)\n      dup1\n      0x80\n      add\n      0x40\n      mstore\n      swap1\n      dup2\n      0x00\n      dup3\n      add\n      0x00\n      swap1\n      sload\n      swap1\n      0x0100\n      exp\n      swap1\n      div\n      0xffffffffffffffffffffffffffffffffffffffff\n      and\n      0xffffffffffffffffffffffffffffffffffffffff\n      and\n      0xffffffffffffffffffffffffffffffffffffffff\n      and\n      dup2\n      mstore\n      0x20\n      add\n      0x01\n      dup3\n      add\n      sload\n      dup2\n      mstore\n      0x20\n      add\n      0x02\n      dup3\n      add\n      sload\n      dup2\n      mstore\n      0x20\n      add\n      0x03\n      dup3\n      add\n      sload\n      dup2\n      mstore\n      pop\n      pop\n      swap1\n      pop\n        /* \"contracts/Staking/staking.sol\":4871:4885  uint256 reward */\n      0x00\n        /* \"contracts/Staking/staking.sol\":4888:4908  calculateReward(_id) */\n      tag_302\n        /* \"contracts/Staking/staking.sol\":4904:4907  _id */\n      dup9\n        /* \"contracts/Staking/staking.sol\":4888:4903  calculateReward */\n      tag_72\n        /* \"contracts/Staking/staking.sol\":4888:4908  calculateReward(_id) */\n      jump\t// in\n    tag_302:\n        /* \"contracts/Staking/staking.sol\":4871:4908  uint256 reward = calculateReward(_id) */\n      swap1\n      pop\n        /* \"contracts/Staking/staking.sol\":4923:4927  info */\n      dup2\n        /* \"contracts/Staking/staking.sol\":4923:4932  info.user */\n      0x00\n      add\n      mload\n        /* \"contracts/Staking/staking.sol\":4934:4938  info */\n      dup3\n        /* \"contracts/Staking/staking.sol\":4934:4950  info.amountStake */\n      0x20\n      add\n      mload\n        /* \"contracts/Staking/staking.sol\":4952:4956  info */\n      dup4\n        /* \"contracts/Staking/staking.sol\":4952:4963  info.tenure */\n      0x60\n      add\n      mload\n        /* \"contracts/Staking/staking.sol\":4965:4969  info */\n      dup5\n        /* \"contracts/Staking/staking.sol\":4965:4974  info.time */\n      0x40\n      add\n      mload\n        /* \"contracts/Staking/staking.sol\":4976:4982  reward */\n      dup5\n        /* \"contracts/Staking/staking.sol\":4915:4983  return (info.user, info.amountStake, info.tenure, info.time, reward) */\n      swap7\n      pop\n      swap7\n      pop\n      swap7\n      pop\n      swap7\n      pop\n      swap7\n      pop\n      pop\n      pop\n        /* \"contracts/Staking/staking.sol\":4589:4986  function getStakingDetails(uint256 _id) public view returns (address user, uint256 amountStaked, uint256 tenure, uint256 time, uint256 claimableReward) {... */\n      swap2\n      swap4\n      swap6\n      swap1\n      swap3\n      swap5\n      pop\n      jump\t// out\n        /* \"@openzeppelin/contracts/access/Ownable.sol\":2074:2272  function transferOwnership(address newOwner) public virtual onlyOwner {... */\n    tag_90:\n        /* \"@openzeppelin/contracts/access/Ownable.sol\":1094:1107  _checkOwner() */\n      tag_304\n        /* \"@openzeppelin/contracts/access/Ownable.sol\":1094:1105  _checkOwner */\n      tag_202\n        /* \"@openzeppelin/contracts/access/Ownable.sol\":1094:1107  _checkOwner() */\n      jump\t// in\n    tag_304:\n        /* \"@openzeppelin/contracts/access/Ownable.sol\":2182:2183  0 */\n      0x00\n        /* \"@openzeppelin/contracts/access/Ownable.sol\":2162:2184  newOwner != address(0) */\n      0xffffffffffffffffffffffffffffffffffffffff\n      and\n        /* \"@openzeppelin/contracts/access/Ownable.sol\":2162:2170  newOwner */\n      dup2\n        /* \"@openzeppelin/contracts/access/Ownable.sol\":2162:2184  newOwner != address(0) */\n      0xffffffffffffffffffffffffffffffffffffffff\n      and\n      sub\n        /* \"@openzeppelin/contracts/access/Ownable.sol\":2154:2227  require(newOwner != address(0), \"Ownable: new owner is the zero address\") */\n      tag_306\n      jumpi\n      mload(0x40)\n      0x08c379a000000000000000000000000000000000000000000000000000000000\n      dup2\n      mstore\n      0x04\n      add\n      tag_307\n      swap1\n      tag_308\n      jump\t// in\n    tag_307:\n      mload(0x40)\n      dup1\n      swap2\n      sub\n      swap1\n      revert\n    tag_306:\n        /* \"@openzeppelin/contracts/access/Ownable.sol\":2237:2265  _transferOwnership(newOwner) */\n      tag_309\n        /* \"@openzeppelin/contracts/access/Ownable.sol\":2256:2264  newOwner */\n      dup2\n        /* \"@openzeppelin/contracts/access/Ownable.sol\":2237:2255  _transferOwnership */\n      tag_205\n        /* \"@openzeppelin/contracts/access/Ownable.sol\":2237:2265  _transferOwnership(newOwner) */\n      jump\t// in\n    tag_309:\n        /* \"@openzeppelin/contracts/access/Ownable.sol\":2074:2272  function transferOwnership(address newOwner) public virtual onlyOwner {... */\n      pop\n      jump\t// out\n        /* \"contracts/Staking/staking.sol\":206:225  IERC20 public token */\n    tag_92:\n      0x01\n      0x00\n      swap1\n      sload\n      swap1\n      0x0100\n      exp\n      swap1\n      div\n      0xffffffffffffffffffffffffffffffffffffffff\n      and\n      dup2\n      jump\t// out\n        /* \"@openzeppelin/contracts/access/Ownable.sol\":1359:1489  function _checkOwner() internal view virtual {... */\n    tag_202:\n        /* \"@openzeppelin/contracts/access/Ownable.sol\":1433:1445  _msgSender() */\n      tag_311\n        /* \"@openzeppelin/contracts/access/Ownable.sol\":1433:1443  _msgSender */\n      tag_312\n        /* \"@openzeppelin/contracts/access/Ownable.sol\":1433:1445  _msgSender() */\n      jump\t// in\n    tag_311:\n        /* \"@openzeppelin/contracts/access/Ownable.sol\":1422:1445  owner() == _msgSender() */\n      0xffffffffffffffffffffffffffffffffffffffff\n      and\n        /* \"@openzeppelin/contracts/access/Ownable.sol\":1422:1429  owner() */\n      tag_313\n        /* \"@openzeppelin/contracts/access/Ownable.sol\":1422:1427  owner */\n      tag_60\n        /* \"@openzeppelin/contracts/access/Ownable.sol\":1422:1429  owner() */\n      jump\t// in\n    tag_313:\n        /* \"@openzeppelin/contracts/access/Ownable.sol\":1422:1445  owner() == _msgSender() */\n      0xffffffffffffffffffffffffffffffffffffffff\n      and\n      eq\n        /* \"@openzeppelin/contracts/access/Ownable.sol\":1414:1482  require(owner() == _msgSender(), \"Ownable: caller is not the owner\") */\n      tag_314\n      jumpi\n      mload(0x40)\n      0x08c379a000000000000000000000000000000000000000000000000000000000\n      dup2\n      mstore\n      0x04\n      add\n      tag_315\n      swap1\n      tag_316\n      jump\t// in\n    tag_315:\n      mload(0x40)\n      dup1\n      swap2\n      sub\n      swap1\n      revert\n    tag_314:\n        /* \"@openzeppelin/contracts/access/Ownable.sol\":1359:1489  function _checkOwner() internal view virtual {... */\n      jump\t// out\n        /* \"@openzeppelin/contracts/access/Ownable.sol\":2426:2613  function _transferOwnership(address newOwner) internal virtual {... */\n    tag_205:\n        /* \"@openzeppelin/contracts/access/Ownable.sol\":2499:2515  address oldOwner */\n      0x00\n        /* \"@openzeppelin/contracts/access/Ownable.sol\":2518:2524  _owner */\n      dup1\n      0x00\n      swap1\n      sload\n      swap1\n      0x0100\n      exp\n      swap1\n      div\n      0xffffffffffffffffffffffffffffffffffffffff\n      and\n        /* \"@openzeppelin/contracts/access/Ownable.sol\":2499:2524  address oldOwner = _owner */\n      swap1\n      pop\n        /* \"@openzeppelin/contracts/access/Ownable.sol\":2543:2551  newOwner */\n      dup2\n        /* \"@openzeppelin/contracts/access/Ownable.sol\":2534:2540  _owner */\n      0x00\n      dup1\n        /* \"@openzeppelin/contracts/access/Ownable.sol\":2534:2551  _owner = newOwner */\n      0x0100\n      exp\n      dup2\n      sload\n      dup2\n      0xffffffffffffffffffffffffffffffffffffffff\n      mul\n      not\n      and\n      swap1\n      dup4\n      0xffffffffffffffffffffffffffffffffffffffff\n      and\n      mul\n      or\n      swap1\n      sstore\n      pop\n        /* \"@openzeppelin/contracts/access/Ownable.sol\":2597:2605  newOwner */\n      dup2\n        /* \"@openzeppelin/contracts/access/Ownable.sol\":2566:2606  OwnershipTransferred(oldOwner, newOwner) */\n      0xffffffffffffffffffffffffffffffffffffffff\n      and\n        /* \"@openzeppelin/contracts/access/Ownable.sol\":2587:2595  oldOwner */\n      dup2\n        /* \"@openzeppelin/contracts/access/Ownable.sol\":2566:2606  OwnershipTransferred(oldOwner, newOwner) */\n      0xffffffffffffffffffffffffffffffffffffffff\n      and\n      0x8be0079c531659141344cd1fd0a4f28419497f9722a3daafe3b4186f6b6457e0\n      mload(0x40)\n      mload(0x40)\n      dup1\n      swap2\n      sub\n      swap1\n      log3\n        /* \"@openzeppelin/contracts/access/Ownable.sol\":2489:2613  {... */\n      pop\n        /* \"@openzeppelin/contracts/access/Ownable.sol\":2426:2613  function _transferOwnership(address newOwner) internal virtual {... */\n      pop\n      jump\t// out\n        /* \"@openzeppelin/contracts/utils/Context.sol\":640:736  function _msgSender() internal view virtual returns (address) {... */\n    tag_312:\n        /* \"@openzeppelin/contracts/utils/Context.sol\":693:700  address */\n      0x00\n        /* \"@openzeppelin/contracts/utils/Context.sol\":719:729  msg.sender */\n      caller\n        /* \"@openzeppelin/contracts/utils/Context.sol\":712:729  return msg.sender */\n      swap1\n      pop\n        /* \"@openzeppelin/contracts/utils/Context.sol\":640:736  function _msgSender() internal view virtual returns (address) {... */\n      swap1\n      jump\t// out\n    tag_210:\n      mload(0x40)\n      dup1\n      0x80\n      add\n      0x40\n      mstore\n      dup1\n      and(0xffffffffffffffffffffffffffffffffffffffff, 0x00)\n      dup2\n      mstore\n      0x20\n      add\n      0x00\n      dup2\n      mstore\n      0x20\n      add\n      0x00\n      dup2\n      mstore\n      0x20\n      add\n      0x00\n      dup2\n      mstore\n      pop\n      swap1\n      jump\t// out\n        /* \"#utility.yul\":88:205   */\n    tag_320:\n        /* \"#utility.yul\":197:198   */\n      0x00\n        /* \"#utility.yul\":194:195   */\n      dup1\n        /* \"#utility.yul\":187:199   */\n      revert\n        /* \"#utility.yul\":334:411   */\n    tag_322:\n        /* \"#utility.yul\":371:378   */\n      0x00\n        /* \"#utility.yul\":400:405   */\n      dup2\n        /* \"#utility.yul\":389:405   */\n      swap1\n      pop\n        /* \"#utility.yul\":334:411   */\n      swap2\n      swap1\n      pop\n      jump\t// out\n        /* \"#utility.yul\":417:539   */\n    tag_323:\n        /* \"#utility.yul\":490:514   */\n      tag_394\n        /* \"#utility.yul\":508:513   */\n      dup2\n        /* \"#utility.yul\":490:514   */\n      tag_322\n      jump\t// in\n    tag_394:\n        /* \"#utility.yul\":483:488   */\n      dup2\n        /* \"#utility.yul\":480:515   */\n      eq\n        /* \"#utility.yul\":470:533   */\n      tag_395\n      jumpi\n        /* \"#utility.yul\":529:530   */\n      0x00\n        /* \"#utility.yul\":526:527   */\n      dup1\n        /* \"#utility.yul\":519:531   */\n      revert\n        /* \"#utility.yul\":470:533   */\n    tag_395:\n        /* \"#utility.yul\":417:539   */\n      pop\n      jump\t// out\n        /* \"#utility.yul\":545:684   */\n    tag_324:\n        /* \"#utility.yul\":591:596   */\n      0x00\n        /* \"#utility.yul\":629:635   */\n      dup2\n        /* \"#utility.yul\":616:636   */\n      calldataload\n        /* \"#utility.yul\":607:636   */\n      swap1\n      pop\n        /* \"#utility.yul\":645:678   */\n      tag_397\n        /* \"#utility.yul\":672:677   */\n      dup2\n        /* \"#utility.yul\":645:678   */\n      tag_323\n      jump\t// in\n    tag_397:\n        /* \"#utility.yul\":545:684   */\n      swap3\n      swap2\n      pop\n      pop\n      jump\t// out\n        /* \"#utility.yul\":690:1019   */\n    tag_25:\n        /* \"#utility.yul\":749:755   */\n      0x00\n        /* \"#utility.yul\":798:800   */\n      0x20\n        /* \"#utility.yul\":786:795   */\n      dup3\n        /* \"#utility.yul\":777:784   */\n      dup5\n        /* \"#utility.yul\":773:796   */\n      sub\n        /* \"#utility.yul\":769:801   */\n      slt\n        /* \"#utility.yul\":766:885   */\n      iszero\n      tag_399\n      jumpi\n        /* \"#utility.yul\":804:883   */\n      tag_400\n      tag_320\n      jump\t// in\n    tag_400:\n        /* \"#utility.yul\":766:885   */\n    tag_399:\n        /* \"#utility.yul\":924:925   */\n      0x00\n        /* \"#utility.yul\":949:1002   */\n      tag_401\n        /* \"#utility.yul\":994:1001   */\n      dup5\n        /* \"#utility.yul\":985:991   */\n      dup3\n        /* \"#utility.yul\":974:983   */\n      dup6\n        /* \"#utility.yul\":970:992   */\n      add\n        /* \"#utility.yul\":949:1002   */\n      tag_324\n      jump\t// in\n    tag_401:\n        /* \"#utility.yul\":939:1002   */\n      swap2\n      pop\n        /* \"#utility.yul\":895:1012   */\n      pop\n        /* \"#utility.yul\":690:1019   */\n      swap3\n      swap2\n      pop\n      pop\n      jump\t// out\n        /* \"#utility.yul\":1025:1151   */\n    tag_325:\n        /* \"#utility.yul\":1062:1069   */\n      0x00\n        /* \"#utility.yul\":1102:1144   */\n      0xffffffffffffffffffffffffffffffffffffffff\n        /* \"#utility.yul\":1095:1100   */\n      dup3\n        /* \"#utility.yul\":1091:1145   */\n      and\n        /* \"#utility.yul\":1080:1145   */\n      swap1\n      pop\n        /* \"#utility.yul\":1025:1151   */\n      swap2\n      swap1\n      pop\n      jump\t// out\n        /* \"#utility.yul\":1157:1253   */\n    tag_326:\n        /* \"#utility.yul\":1194:1201   */\n      0x00\n        /* \"#utility.yul\":1223:1247   */\n      tag_404\n        /* \"#utility.yul\":1241:1246   */\n      dup3\n        /* \"#utility.yul\":1223:1247   */\n      tag_325\n      jump\t// in\n    tag_404:\n        /* \"#utility.yul\":1212:1247   */\n      swap1\n      pop\n        /* \"#utility.yul\":1157:1253   */\n      swap2\n      swap1\n      pop\n      jump\t// out\n        /* \"#utility.yul\":1259:1377   */\n    tag_327:\n        /* \"#utility.yul\":1346:1370   */\n      tag_406\n        /* \"#utility.yul\":1364:1369   */\n      dup2\n        /* \"#utility.yul\":1346:1370   */\n      tag_326\n      jump\t// in\n    tag_406:\n        /* \"#utility.yul\":1341:1344   */\n      dup3\n        /* \"#utility.yul\":1334:1371   */\n      mstore\n        /* \"#utility.yul\":1259:1377   */\n      pop\n      pop\n      jump\t// out\n        /* \"#utility.yul\":1383:1501   */\n    tag_328:\n        /* \"#utility.yul\":1470:1494   */\n      tag_408\n        /* \"#utility.yul\":1488:1493   */\n      dup2\n        /* \"#utility.yul\":1470:1494   */\n      tag_322\n      jump\t// in\n    tag_408:\n        /* \"#utility.yul\":1465:1468   */\n      dup3\n        /* \"#utility.yul\":1458:1495   */\n      mstore\n        /* \"#utility.yul\":1383:1501   */\n      pop\n      pop\n      jump\t// out\n        /* \"#utility.yul\":1507:2060   */\n    tag_34:\n        /* \"#utility.yul\":1684:1688   */\n      0x00\n        /* \"#utility.yul\":1722:1725   */\n      0x80\n        /* \"#utility.yul\":1711:1720   */\n      dup3\n        /* \"#utility.yul\":1707:1726   */\n      add\n        /* \"#utility.yul\":1699:1726   */\n      swap1\n      pop\n        /* \"#utility.yul\":1736:1807   */\n      tag_410\n        /* \"#utility.yul\":1804:1805   */\n      0x00\n        /* \"#utility.yul\":1793:1802   */\n      dup4\n        /* \"#utility.yul\":1789:1806   */\n      add\n        /* \"#utility.yul\":1780:1786   */\n      dup8\n        /* \"#utility.yul\":1736:1807   */\n      tag_327\n      jump\t// in\n    tag_410:\n        /* \"#utility.yul\":1817:1889   */\n      tag_411\n        /* \"#utility.yul\":1885:1887   */\n      0x20\n        /* \"#utility.yul\":1874:1883   */\n      dup4\n        /* \"#utility.yul\":1870:1888   */\n      add\n        /* \"#utility.yul\":1861:1867   */\n      dup7\n        /* \"#utility.yul\":1817:1889   */\n      tag_328\n      jump\t// in\n    tag_411:\n        /* \"#utility.yul\":1899:1971   */\n      tag_412\n        /* \"#utility.yul\":1967:1969   */\n      0x40\n        /* \"#utility.yul\":1956:1965   */\n      dup4\n        /* \"#utility.yul\":1952:1970   */\n      add\n        /* \"#utility.yul\":1943:1949   */\n      dup6\n        /* \"#utility.yul\":1899:1971   */\n      tag_328\n      jump\t// in\n    tag_412:\n        /* \"#utility.yul\":1981:2053   */\n      tag_413\n        /* \"#utility.yul\":2049:2051   */\n      0x60\n        /* \"#utility.yul\":2038:2047   */\n      dup4\n        /* \"#utility.yul\":2034:2052   */\n      add\n        /* \"#utility.yul\":2025:2031   */\n      dup5\n        /* \"#utility.yul\":1981:2053   */\n      tag_328\n      jump\t// in\n    tag_413:\n        /* \"#utility.yul\":1507:2060   */\n      swap6\n      swap5\n      pop\n      pop\n      pop\n      pop\n      pop\n      jump\t// out\n        /* \"#utility.yul\":2066:2188   */\n    tag_329:\n        /* \"#utility.yul\":2139:2163   */\n      tag_415\n        /* \"#utility.yul\":2157:2162   */\n      dup2\n        /* \"#utility.yul\":2139:2163   */\n      tag_326\n      jump\t// in\n    tag_415:\n        /* \"#utility.yul\":2132:2137   */\n      dup2\n        /* \"#utility.yul\":2129:2164   */\n      eq\n        /* \"#utility.yul\":2119:2182   */\n      tag_416\n      jumpi\n        /* \"#utility.yul\":2178:2179   */\n      0x00\n        /* \"#utility.yul\":2175:2176   */\n      dup1\n        /* \"#utility.yul\":2168:2180   */\n      revert\n        /* \"#utility.yul\":2119:2182   */\n    tag_416:\n        /* \"#utility.yul\":2066:2188   */\n      pop\n      jump\t// out\n        /* \"#utility.yul\":2194:2333   */\n    tag_330:\n        /* \"#utility.yul\":2240:2245   */\n      0x00\n        /* \"#utility.yul\":2278:2284   */\n      dup2\n        /* \"#utility.yul\":2265:2285   */\n      calldataload\n        /* \"#utility.yul\":2256:2285   */\n      swap1\n      pop\n        /* \"#utility.yul\":2294:2327   */\n      tag_418\n        /* \"#utility.yul\":2321:2326   */\n      dup2\n        /* \"#utility.yul\":2294:2327   */\n      tag_329\n      jump\t// in\n    tag_418:\n        /* \"#utility.yul\":2194:2333   */\n      swap3\n      swap2\n      pop\n      pop\n      jump\t// out\n        /* \"#utility.yul\":2339:2668   */\n    tag_37:\n        /* \"#utility.yul\":2398:2404   */\n      0x00\n        /* \"#utility.yul\":2447:2449   */\n      0x20\n        /* \"#utility.yul\":2435:2444   */\n      dup3\n        /* \"#utility.yul\":2426:2433   */\n      dup5\n        /* \"#utility.yul\":2422:2445   */\n      sub\n        /* \"#utility.yul\":2418:2450   */\n      slt\n        /* \"#utility.yul\":2415:2534   */\n      iszero\n      tag_420\n      jumpi\n        /* \"#utility.yul\":2453:2532   */\n      tag_421\n      tag_320\n      jump\t// in\n    tag_421:\n        /* \"#utility.yul\":2415:2534   */\n    tag_420:\n        /* \"#utility.yul\":2573:2574   */\n      0x00\n        /* \"#utility.yul\":2598:2651   */\n      tag_422\n        /* \"#utility.yul\":2643:2650   */\n      dup5\n        /* \"#utility.yul\":2634:2640   */\n      dup3\n        /* \"#utility.yul\":2623:2632   */\n      dup6\n        /* \"#utility.yul\":2619:2641   */\n      add\n        /* \"#utility.yul\":2598:2651   */\n      tag_330\n      jump\t// in\n    tag_422:\n        /* \"#utility.yul\":2588:2651   */\n      swap2\n      pop\n        /* \"#utility.yul\":2544:2661   */\n      pop\n        /* \"#utility.yul\":2339:2668   */\n      swap3\n      swap2\n      pop\n      pop\n      jump\t// out\n        /* \"#utility.yul\":2674:2788   */\n    tag_331:\n        /* \"#utility.yul\":2741:2747   */\n      0x00\n        /* \"#utility.yul\":2775:2780   */\n      dup2\n        /* \"#utility.yul\":2769:2781   */\n      mload\n        /* \"#utility.yul\":2759:2781   */\n      swap1\n      pop\n        /* \"#utility.yul\":2674:2788   */\n      swap2\n      swap1\n      pop\n      jump\t// out\n        /* \"#utility.yul\":2794:2978   */\n    tag_332:\n        /* \"#utility.yul\":2893:2904   */\n      0x00\n        /* \"#utility.yul\":2927:2933   */\n      dup3\n        /* \"#utility.yul\":2922:2925   */\n      dup3\n        /* \"#utility.yul\":2915:2934   */\n      mstore\n        /* \"#utility.yul\":2967:2971   */\n      0x20\n        /* \"#utility.yul\":2962:2965   */\n      dup3\n        /* \"#utility.yul\":2958:2972   */\n      add\n        /* \"#utility.yul\":2943:2972   */\n      swap1\n      pop\n        /* \"#utility.yul\":2794:2978   */\n      swap3\n      swap2\n      pop\n      pop\n      jump\t// out\n        /* \"#utility.yul\":2984:3116   */\n    tag_333:\n        /* \"#utility.yul\":3051:3055   */\n      0x00\n        /* \"#utility.yul\":3074:3077   */\n      dup2\n        /* \"#utility.yul\":3066:3077   */\n      swap1\n      pop\n        /* \"#utility.yul\":3104:3108   */\n      0x20\n        /* \"#utility.yul\":3099:3102   */\n      dup3\n        /* \"#utility.yul\":3095:3109   */\n      add\n        /* \"#utility.yul\":3087:3109   */\n      swap1\n      pop\n        /* \"#utility.yul\":2984:3116   */\n      swap2\n      swap1\n      pop\n      jump\t// out\n        /* \"#utility.yul\":3122:3230   */\n    tag_334:\n        /* \"#utility.yul\":3199:3223   */\n      tag_427\n        /* \"#utility.yul\":3217:3222   */\n      dup2\n        /* \"#utility.yul\":3199:3223   */\n      tag_322\n      jump\t// in\n    tag_427:\n        /* \"#utility.yul\":3194:3197   */\n      dup3\n        /* \"#utility.yul\":3187:3224   */\n      mstore\n        /* \"#utility.yul\":3122:3230   */\n      pop\n      pop\n      jump\t// out\n        /* \"#utility.yul\":3236:3415   */\n    tag_335:\n        /* \"#utility.yul\":3305:3315   */\n      0x00\n        /* \"#utility.yul\":3326:3372   */\n      tag_429\n        /* \"#utility.yul\":3368:3371   */\n      dup4\n        /* \"#utility.yul\":3360:3366   */\n      dup4\n        /* \"#utility.yul\":3326:3372   */\n      tag_334\n      jump\t// in\n    tag_429:\n        /* \"#utility.yul\":3404:3408   */\n      0x20\n        /* \"#utility.yul\":3399:3402   */\n      dup4\n        /* \"#utility.yul\":3395:3409   */\n      add\n        /* \"#utility.yul\":3381:3409   */\n      swap1\n      pop\n        /* \"#utility.yul\":3236:3415   */\n      swap3\n      swap2\n      pop\n      pop\n      jump\t// out\n        /* \"#utility.yul\":3421:3534   */\n    tag_336:\n        /* \"#utility.yul\":3491:3495   */\n      0x00\n        /* \"#utility.yul\":3523:3527   */\n      0x20\n        /* \"#utility.yul\":3518:3521   */\n      dup3\n        /* \"#utility.yul\":3514:3528   */\n      add\n        /* \"#utility.yul\":3506:3528   */\n      swap1\n      pop\n        /* \"#utility.yul\":3421:3534   */\n      swap2\n      swap1\n      pop\n      jump\t// out\n        /* \"#utility.yul\":3570:4302   */\n    tag_337:\n        /* \"#utility.yul\":3689:3692   */\n      0x00\n        /* \"#utility.yul\":3718:3772   */\n      tag_432\n        /* \"#utility.yul\":3766:3771   */\n      dup3\n        /* \"#utility.yul\":3718:3772   */\n      tag_331\n      jump\t// in\n    tag_432:\n        /* \"#utility.yul\":3788:3874   */\n      tag_433\n        /* \"#utility.yul\":3867:3873   */\n      dup2\n        /* \"#utility.yul\":3862:3865   */\n      dup6\n        /* \"#utility.yul\":3788:3874   */\n      tag_332\n      jump\t// in\n    tag_433:\n        /* \"#utility.yul\":3781:3874   */\n      swap4\n      pop\n        /* \"#utility.yul\":3898:3954   */\n      tag_434\n        /* \"#utility.yul\":3948:3953   */\n      dup4\n        /* \"#utility.yul\":3898:3954   */\n      tag_333\n      jump\t// in\n    tag_434:\n        /* \"#utility.yul\":3977:3984   */\n      dup1\n        /* \"#utility.yul\":4008:4009   */\n      0x00\n        /* \"#utility.yul\":3993:4277   */\n    tag_435:\n        /* \"#utility.yul\":4018:4024   */\n      dup4\n        /* \"#utility.yul\":4015:4016   */\n      dup2\n        /* \"#utility.yul\":4012:4025   */\n      lt\n        /* \"#utility.yul\":3993:4277   */\n      iszero\n      tag_437\n      jumpi\n        /* \"#utility.yul\":4094:4100   */\n      dup2\n        /* \"#utility.yul\":4088:4101   */\n      mload\n        /* \"#utility.yul\":4121:4184   */\n      tag_438\n        /* \"#utility.yul\":4180:4183   */\n      dup9\n        /* \"#utility.yul\":4165:4178   */\n      dup3\n        /* \"#utility.yul\":4121:4184   */\n      tag_335\n      jump\t// in\n    tag_438:\n        /* \"#utility.yul\":4114:4184   */\n      swap8\n      pop\n        /* \"#utility.yul\":4207:4267   */\n      tag_439\n        /* \"#utility.yul\":4260:4266   */\n      dup4\n        /* \"#utility.yul\":4207:4267   */\n      tag_336\n      jump\t// in\n    tag_439:\n        /* \"#utility.yul\":4197:4267   */\n      swap3\n      pop\n        /* \"#utility.yul\":4053:4277   */\n      pop\n        /* \"#utility.yul\":4040:4041   */\n      0x01\n        /* \"#utility.yul\":4037:4038   */\n      dup2\n        /* \"#utility.yul\":4033:4042   */\n      add\n        /* \"#utility.yul\":4028:4042   */\n      swap1\n      pop\n        /* \"#utility.yul\":3993:4277   */\n      jump(tag_435)\n    tag_437:\n        /* \"#utility.yul\":3997:4011   */\n      pop\n        /* \"#utility.yul\":4293:4296   */\n      dup6\n        /* \"#utility.yul\":4286:4296   */\n      swap4\n      pop\n        /* \"#utility.yul\":3694:4302   */\n      pop\n      pop\n      pop\n        /* \"#utility.yul\":3570:4302   */\n      swap3\n      swap2\n      pop\n      pop\n      jump\t// out\n        /* \"#utility.yul\":4308:4681   */\n    tag_40:\n        /* \"#utility.yul\":4451:4455   */\n      0x00\n        /* \"#utility.yul\":4489:4491   */\n      0x20\n        /* \"#utility.yul\":4478:4487   */\n      dup3\n        /* \"#utility.yul\":4474:4492   */\n      add\n        /* \"#utility.yul\":4466:4492   */\n      swap1\n      pop\n        /* \"#utility.yul\":4538:4547   */\n      dup2\n        /* \"#utility.yul\":4532:4536   */\n      dup2\n        /* \"#utility.yul\":4528:4548   */\n      sub\n        /* \"#utility.yul\":4524:4525   */\n      0x00\n        /* \"#utility.yul\":4513:4522   */\n      dup4\n        /* \"#utility.yul\":4509:4526   */\n      add\n        /* \"#utility.yul\":4502:4549   */\n      mstore\n        /* \"#utility.yul\":4566:4674   */\n      tag_441\n        /* \"#utility.yul\":4669:4673   */\n      dup2\n        /* \"#utility.yul\":4660:4666   */\n      dup5\n        /* \"#utility.yul\":4566:4674   */\n      tag_337\n      jump\t// in\n    tag_441:\n        /* \"#utility.yul\":4558:4674   */\n      swap1\n      pop\n        /* \"#utility.yul\":4308:4681   */\n      swap3\n      swap2\n      pop\n      pop\n      jump\t// out\n        /* \"#utility.yul\":4687:5019   */\n    tag_45:\n        /* \"#utility.yul\":4808:4812   */\n      0x00\n        /* \"#utility.yul\":4846:4848   */\n      0x40\n        /* \"#utility.yul\":4835:4844   */\n      dup3\n        /* \"#utility.yul\":4831:4849   */\n      add\n        /* \"#utility.yul\":4823:4849   */\n      swap1\n      pop\n        /* \"#utility.yul\":4859:4930   */\n      tag_443\n        /* \"#utility.yul\":4927:4928   */\n      0x00\n        /* \"#utility.yul\":4916:4925   */\n      dup4\n        /* \"#utility.yul\":4912:4929   */\n      add\n        /* \"#utility.yul\":4903:4909   */\n      dup6\n        /* \"#utility.yul\":4859:4930   */\n      tag_328\n      jump\t// in\n    tag_443:\n        /* \"#utility.yul\":4940:5012   */\n      tag_444\n        /* \"#utility.yul\":5008:5010   */\n      0x20\n        /* \"#utility.yul\":4997:5006   */\n      dup4\n        /* \"#utility.yul\":4993:5011   */\n      add\n        /* \"#utility.yul\":4984:4990   */\n      dup5\n        /* \"#utility.yul\":4940:5012   */\n      tag_328\n      jump\t// in\n    tag_444:\n        /* \"#utility.yul\":4687:5019   */\n      swap4\n      swap3\n      pop\n      pop\n      pop\n      jump\t// out\n        /* \"#utility.yul\":5025:5499   */\n    tag_50:\n        /* \"#utility.yul\":5093:5099   */\n      0x00\n        /* \"#utility.yul\":5101:5107   */\n      dup1\n        /* \"#utility.yul\":5150:5152   */\n      0x40\n        /* \"#utility.yul\":5138:5147   */\n      dup4\n        /* \"#utility.yul\":5129:5136   */\n      dup6\n        /* \"#utility.yul\":5125:5148   */\n      sub\n        /* \"#utility.yul\":5121:5153   */\n      slt\n        /* \"#utility.yul\":5118:5237   */\n      iszero\n      tag_446\n      jumpi\n        /* \"#utility.yul\":5156:5235   */\n      tag_447\n      tag_320\n      jump\t// in\n    tag_447:\n        /* \"#utility.yul\":5118:5237   */\n    tag_446:\n        /* \"#utility.yul\":5276:5277   */\n      0x00\n        /* \"#utility.yul\":5301:5354   */\n      tag_448\n        /* \"#utility.yul\":5346:5353   */\n      dup6\n        /* \"#utility.yul\":5337:5343   */\n      dup3\n        /* \"#utility.yul\":5326:5335   */\n      dup7\n        /* \"#utility.yul\":5322:5344   */\n      add\n        /* \"#utility.yul\":5301:5354   */\n      tag_324\n      jump\t// in\n    tag_448:\n        /* \"#utility.yul\":5291:5354   */\n      swap3\n      pop\n        /* \"#utility.yul\":5247:5364   */\n      pop\n        /* \"#utility.yul\":5403:5405   */\n      0x20\n        /* \"#utility.yul\":5429:5482   */\n      tag_449\n        /* \"#utility.yul\":5474:5481   */\n      dup6\n        /* \"#utility.yul\":5465:5471   */\n      dup3\n        /* \"#utility.yul\":5454:5463   */\n      dup7\n        /* \"#utility.yul\":5450:5472   */\n      add\n        /* \"#utility.yul\":5429:5482   */\n      tag_324\n      jump\t// in\n    tag_449:\n        /* \"#utility.yul\":5419:5482   */\n      swap2\n      pop\n        /* \"#utility.yul\":5374:5492   */\n      pop\n        /* \"#utility.yul\":5025:5499   */\n      swap3\n      pop\n      swap3\n      swap1\n      pop\n      jump\t// out\n        /* \"#utility.yul\":5505:5727   */\n    tag_53:\n        /* \"#utility.yul\":5598:5602   */\n      0x00\n        /* \"#utility.yul\":5636:5638   */\n      0x20\n        /* \"#utility.yul\":5625:5634   */\n      dup3\n        /* \"#utility.yul\":5621:5639   */\n      add\n        /* \"#utility.yul\":5613:5639   */\n      swap1\n      pop\n        /* \"#utility.yul\":5649:5720   */\n      tag_451\n        /* \"#utility.yul\":5717:5718   */\n      0x00\n        /* \"#utility.yul\":5706:5715   */\n      dup4\n        /* \"#utility.yul\":5702:5719   */\n      add\n        /* \"#utility.yul\":5693:5699   */\n      dup5\n        /* \"#utility.yul\":5649:5720   */\n      tag_328\n      jump\t// in\n    tag_451:\n        /* \"#utility.yul\":5505:5727   */\n      swap3\n      swap2\n      pop\n      pop\n      jump\t// out\n        /* \"#utility.yul\":5733:5841   */\n    tag_338:\n        /* \"#utility.yul\":5810:5834   */\n      tag_453\n        /* \"#utility.yul\":5828:5833   */\n      dup2\n        /* \"#utility.yul\":5810:5834   */\n      tag_326\n      jump\t// in\n    tag_453:\n        /* \"#utility.yul\":5805:5808   */\n      dup3\n        /* \"#utility.yul\":5798:5835   */\n      mstore\n        /* \"#utility.yul\":5733:5841   */\n      pop\n      pop\n      jump\t// out\n        /* \"#utility.yul\":5909:6777   */\n    tag_339:\n        /* \"#utility.yul\":6060:6064   */\n      0x80\n        /* \"#utility.yul\":6055:6058   */\n      dup3\n        /* \"#utility.yul\":6051:6065   */\n      add\n        /* \"#utility.yul\":6147:6151   */\n      0x00\n        /* \"#utility.yul\":6140:6145   */\n      dup3\n        /* \"#utility.yul\":6136:6152   */\n      add\n        /* \"#utility.yul\":6130:6153   */\n      mload\n        /* \"#utility.yul\":6166:6229   */\n      tag_455\n        /* \"#utility.yul\":6223:6227   */\n      0x00\n        /* \"#utility.yul\":6218:6221   */\n      dup6\n        /* \"#utility.yul\":6214:6228   */\n      add\n        /* \"#utility.yul\":6200:6212   */\n      dup3\n        /* \"#utility.yul\":6166:6229   */\n      tag_338\n      jump\t// in\n    tag_455:\n        /* \"#utility.yul\":6075:6239   */\n      pop\n        /* \"#utility.yul\":6328:6332   */\n      0x20\n        /* \"#utility.yul\":6321:6326   */\n      dup3\n        /* \"#utility.yul\":6317:6333   */\n      add\n        /* \"#utility.yul\":6311:6334   */\n      mload\n        /* \"#utility.yul\":6347:6410   */\n      tag_456\n        /* \"#utility.yul\":6404:6408   */\n      0x20\n        /* \"#utility.yul\":6399:6402   */\n      dup6\n        /* \"#utility.yul\":6395:6409   */\n      add\n        /* \"#utility.yul\":6381:6393   */\n      dup3\n        /* \"#utility.yul\":6347:6410   */\n      tag_334\n      jump\t// in\n    tag_456:\n        /* \"#utility.yul\":6249:6420   */\n      pop\n        /* \"#utility.yul\":6502:6506   */\n      0x40\n        /* \"#utility.yul\":6495:6500   */\n      dup3\n        /* \"#utility.yul\":6491:6507   */\n      add\n        /* \"#utility.yul\":6485:6508   */\n      mload\n        /* \"#utility.yul\":6521:6584   */\n      tag_457\n        /* \"#utility.yul\":6578:6582   */\n      0x40\n        /* \"#utility.yul\":6573:6576   */\n      dup6\n        /* \"#utility.yul\":6569:6583   */\n      add\n        /* \"#utility.yul\":6555:6567   */\n      dup3\n        /* \"#utility.yul\":6521:6584   */\n      tag_334\n      jump\t// in\n    tag_457:\n        /* \"#utility.yul\":6430:6594   */\n      pop\n        /* \"#utility.yul\":6678:6682   */\n      0x60\n        /* \"#utility.yul\":6671:6676   */\n      dup3\n        /* \"#utility.yul\":6667:6683   */\n      add\n        /* \"#utility.yul\":6661:6684   */\n      mload\n        /* \"#utility.yul\":6697:6760   */\n      tag_458\n        /* \"#utility.yul\":6754:6758   */\n      0x60\n        /* \"#utility.yul\":6749:6752   */\n      dup6\n        /* \"#utility.yul\":6745:6759   */\n      add\n        /* \"#utility.yul\":6731:6743   */\n      dup3\n        /* \"#utility.yul\":6697:6760   */\n      tag_334\n      jump\t// in\n    tag_458:\n        /* \"#utility.yul\":6604:6770   */\n      pop\n        /* \"#utility.yul\":6029:6777   */\n      pop\n        /* \"#utility.yul\":5909:6777   */\n      pop\n      pop\n      jump\t// out\n        /* \"#utility.yul\":6783:7114   */\n    tag_58:\n        /* \"#utility.yul\":6930:6934   */\n      0x00\n        /* \"#utility.yul\":6968:6971   */\n      0x80\n        /* \"#utility.yul\":6957:6966   */\n      dup3\n        /* \"#utility.yul\":6953:6972   */\n      add\n        /* \"#utility.yul\":6945:6972   */\n      swap1\n      pop\n        /* \"#utility.yul\":6982:7107   */\n      tag_460\n        /* \"#utility.yul\":7104:7105   */\n      0x00\n        /* \"#utility.yul\":7093:7102   */\n      dup4\n        /* \"#utility.yul\":7089:7106   */\n      add\n        /* \"#utility.yul\":7080:7086   */\n      dup5\n        /* \"#utility.yul\":6982:7107   */\n      tag_339\n      jump\t// in\n    tag_460:\n        /* \"#utility.yul\":6783:7114   */\n      swap3\n      swap2\n      pop\n      pop\n      jump\t// out\n        /* \"#utility.yul\":7120:7342   */\n    tag_62:\n        /* \"#utility.yul\":7213:7217   */\n      0x00\n        /* \"#utility.yul\":7251:7253   */\n      0x20\n        /* \"#utility.yul\":7240:7249   */\n      dup3\n        /* \"#utility.yul\":7236:7254   */\n      add\n        /* \"#utility.yul\":7228:7254   */\n      swap1\n      pop\n        /* \"#utility.yul\":7264:7335   */\n      tag_462\n        /* \"#utility.yul\":7332:7333   */\n      0x00\n        /* \"#utility.yul\":7321:7330   */\n      dup4\n        /* \"#utility.yul\":7317:7334   */\n      add\n        /* \"#utility.yul\":7308:7314   */\n      dup5\n        /* \"#utility.yul\":7264:7335   */\n      tag_327\n      jump\t// in\n    tag_462:\n        /* \"#utility.yul\":7120:7342   */\n      swap3\n      swap2\n      pop\n      pop\n      jump\t// out\n        /* \"#utility.yul\":7348:7822   */\n    tag_76:\n        /* \"#utility.yul\":7416:7422   */\n      0x00\n        /* \"#utility.yul\":7424:7430   */\n      dup1\n        /* \"#utility.yul\":7473:7475   */\n      0x40\n        /* \"#utility.yul\":7461:7470   */\n      dup4\n        /* \"#utility.yul\":7452:7459   */\n      dup6\n        /* \"#utility.yul\":7448:7471   */\n      sub\n        /* \"#utility.yul\":7444:7476   */\n      slt\n        /* \"#utility.yul\":7441:7560   */\n      iszero\n      tag_464\n      jumpi\n        /* \"#utility.yul\":7479:7558   */\n      tag_465\n      tag_320\n      jump\t// in\n    tag_465:\n        /* \"#utility.yul\":7441:7560   */\n    tag_464:\n        /* \"#utility.yul\":7599:7600   */\n      0x00\n        /* \"#utility.yul\":7624:7677   */\n      tag_466\n        /* \"#utility.yul\":7669:7676   */\n      dup6\n        /* \"#utility.yul\":7660:7666   */\n      dup3\n        /* \"#utility.yul\":7649:7658   */\n      dup7\n        /* \"#utility.yul\":7645:7667   */\n      add\n        /* \"#utility.yul\":7624:7677   */\n      tag_330\n      jump\t// in\n    tag_466:\n        /* \"#utility.yul\":7614:7677   */\n      swap3\n      pop\n        /* \"#utility.yul\":7570:7687   */\n      pop\n        /* \"#utility.yul\":7726:7728   */\n      0x20\n        /* \"#utility.yul\":7752:7805   */\n      tag_467\n        /* \"#utility.yul\":7797:7804   */\n      dup6\n        /* \"#utility.yul\":7788:7794   */\n      dup3\n        /* \"#utility.yul\":7777:7786   */\n      dup7\n        /* \"#utility.yul\":7773:7795   */\n      add\n        /* \"#utility.yul\":7752:7805   */\n      tag_324\n      jump\t// in\n    tag_467:\n        /* \"#utility.yul\":7742:7805   */\n      swap2\n      pop\n        /* \"#utility.yul\":7697:7815   */\n      pop\n        /* \"#utility.yul\":7348:7822   */\n      swap3\n      pop\n      swap3\n      swap1\n      pop\n      jump\t// out\n        /* \"#utility.yul\":7828:8492   */\n    tag_87:\n        /* \"#utility.yul\":8033:8037   */\n      0x00\n        /* \"#utility.yul\":8071:8074   */\n      0xa0\n        /* \"#utility.yul\":8060:8069   */\n      dup3\n        /* \"#utility.yul\":8056:8075   */\n      add\n        /* \"#utility.yul\":8048:8075   */\n      swap1\n      pop\n        /* \"#utility.yul\":8085:8156   */\n      tag_469\n        /* \"#utility.yul\":8153:8154   */\n      0x00\n        /* \"#utility.yul\":8142:8151   */\n      dup4\n        /* \"#utility.yul\":8138:8155   */\n      add\n        /* \"#utility.yul\":8129:8135   */\n      dup9\n        /* \"#utility.yul\":8085:8156   */\n      tag_327\n      jump\t// in\n    tag_469:\n        /* \"#utility.yul\":8166:8238   */\n      tag_470\n        /* \"#utility.yul\":8234:8236   */\n      0x20\n        /* \"#utility.yul\":8223:8232   */\n      dup4\n        /* \"#utility.yul\":8219:8237   */\n      add\n        /* \"#utility.yul\":8210:8216   */\n      dup8\n        /* \"#utility.yul\":8166:8238   */\n      tag_328\n      jump\t// in\n    tag_470:\n        /* \"#utility.yul\":8248:8320   */\n      tag_471\n        /* \"#utility.yul\":8316:8318   */\n      0x40\n        /* \"#utility.yul\":8305:8314   */\n      dup4\n        /* \"#utility.yul\":8301:8319   */\n      add\n        /* \"#utility.yul\":8292:8298   */\n      dup7\n        /* \"#utility.yul\":8248:8320   */\n      tag_328\n      jump\t// in\n    tag_471:\n        /* \"#utility.yul\":8330:8402   */\n      tag_472\n        /* \"#utility.yul\":8398:8400   */\n      0x60\n        /* \"#utility.yul\":8387:8396   */\n      dup4\n        /* \"#utility.yul\":8383:8401   */\n      add\n        /* \"#utility.yul\":8374:8380   */\n      dup6\n        /* \"#utility.yul\":8330:8402   */\n      tag_328\n      jump\t// in\n    tag_472:\n        /* \"#utility.yul\":8412:8485   */\n      tag_473\n        /* \"#utility.yul\":8480:8483   */\n      0x80\n        /* \"#utility.yul\":8469:8478   */\n      dup4\n        /* \"#utility.yul\":8465:8484   */\n      add\n        /* \"#utility.yul\":8456:8462   */\n      dup5\n        /* \"#utility.yul\":8412:8485   */\n      tag_328\n      jump\t// in\n    tag_473:\n        /* \"#utility.yul\":7828:8492   */\n      swap7\n      swap6\n      pop\n      pop\n      pop\n      pop\n      pop\n      pop\n      jump\t// out\n        /* \"#utility.yul\":8498:8558   */\n    tag_340:\n        /* \"#utility.yul\":8526:8529   */\n      0x00\n        /* \"#utility.yul\":8547:8552   */\n      dup2\n        /* \"#utility.yul\":8540:8552   */\n      swap1\n      pop\n        /* \"#utility.yul\":8498:8558   */\n      swap2\n      swap1\n      pop\n      jump\t// out\n        /* \"#utility.yul\":8564:8706   */\n    tag_341:\n        /* \"#utility.yul\":8614:8623   */\n      0x00\n        /* \"#utility.yul\":8647:8700   */\n      tag_476\n        /* \"#utility.yul\":8665:8699   */\n      tag_477\n        /* \"#utility.yul\":8674:8698   */\n      tag_478\n        /* \"#utility.yul\":8692:8697   */\n      dup5\n        /* \"#utility.yul\":8674:8698   */\n      tag_325\n      jump\t// in\n    tag_478:\n        /* \"#utility.yul\":8665:8699   */\n      tag_340\n      jump\t// in\n    tag_477:\n        /* \"#utility.yul\":8647:8700   */\n      tag_325\n      jump\t// in\n    tag_476:\n        /* \"#utility.yul\":8634:8700   */\n      swap1\n      pop\n        /* \"#utility.yul\":8564:8706   */\n      swap2\n      swap1\n      pop\n      jump\t// out\n        /* \"#utility.yul\":8712:8838   */\n    tag_342:\n        /* \"#utility.yul\":8762:8771   */\n      0x00\n        /* \"#utility.yul\":8795:8832   */\n      tag_480\n        /* \"#utility.yul\":8826:8831   */\n      dup3\n        /* \"#utility.yul\":8795:8832   */\n      tag_341\n      jump\t// in\n    tag_480:\n        /* \"#utility.yul\":8782:8832   */\n      swap1\n      pop\n        /* \"#utility.yul\":8712:8838   */\n      swap2\n      swap1\n      pop\n      jump\t// out\n        /* \"#utility.yul\":8844:8984   */\n    tag_343:\n        /* \"#utility.yul\":8908:8917   */\n      0x00\n        /* \"#utility.yul\":8941:8978   */\n      tag_482\n        /* \"#utility.yul\":8972:8977   */\n      dup3\n        /* \"#utility.yul\":8941:8978   */\n      tag_342\n      jump\t// in\n    tag_482:\n        /* \"#utility.yul\":8928:8978   */\n      swap1\n      pop\n        /* \"#utility.yul\":8844:8984   */\n      swap2\n      swap1\n      pop\n      jump\t// out\n        /* \"#utility.yul\":8990:9149   */\n    tag_344:\n        /* \"#utility.yul\":9091:9142   */\n      tag_484\n        /* \"#utility.yul\":9136:9141   */\n      dup2\n        /* \"#utility.yul\":9091:9142   */\n      tag_343\n      jump\t// in\n    tag_484:\n        /* \"#utility.yul\":9086:9089   */\n      dup3\n        /* \"#utility.yul\":9079:9143   */\n      mstore\n        /* \"#utility.yul\":8990:9149   */\n      pop\n      pop\n      jump\t// out\n        /* \"#utility.yul\":9155:9405   */\n    tag_94:\n        /* \"#utility.yul\":9262:9266   */\n      0x00\n        /* \"#utility.yul\":9300:9302   */\n      0x20\n        /* \"#utility.yul\":9289:9298   */\n      dup3\n        /* \"#utility.yul\":9285:9303   */\n      add\n        /* \"#utility.yul\":9277:9303   */\n      swap1\n      pop\n        /* \"#utility.yul\":9313:9398   */\n      tag_486\n        /* \"#utility.yul\":9395:9396   */\n      0x00\n        /* \"#utility.yul\":9384:9393   */\n      dup4\n        /* \"#utility.yul\":9380:9397   */\n      add\n        /* \"#utility.yul\":9371:9377   */\n      dup5\n        /* \"#utility.yul\":9313:9398   */\n      tag_344\n      jump\t// in\n    tag_486:\n        /* \"#utility.yul\":9155:9405   */\n      swap3\n      swap2\n      pop\n      pop\n      jump\t// out\n        /* \"#utility.yul\":9411:9580   */\n    tag_345:\n        /* \"#utility.yul\":9495:9506   */\n      0x00\n        /* \"#utility.yul\":9529:9535   */\n      dup3\n        /* \"#utility.yul\":9524:9527   */\n      dup3\n        /* \"#utility.yul\":9517:9536   */\n      mstore\n        /* \"#utility.yul\":9569:9573   */\n      0x20\n        /* \"#utility.yul\":9564:9567   */\n      dup3\n        /* \"#utility.yul\":9560:9574   */\n      add\n        /* \"#utility.yul\":9545:9574   */\n      swap1\n      pop\n        /* \"#utility.yul\":9411:9580   */\n      swap3\n      swap2\n      pop\n      pop\n      jump\t// out\n        /* \"#utility.yul\":9586:9758   */\n    tag_346:\n        /* \"#utility.yul\":9726:9750   */\n      0x5468697320696420646f6573206e6f7420657869737400000000000000000000\n        /* \"#utility.yul\":9722:9723   */\n      0x00\n        /* \"#utility.yul\":9714:9720   */\n      dup3\n        /* \"#utility.yul\":9710:9724   */\n      add\n        /* \"#utility.yul\":9703:9751   */\n      mstore\n        /* \"#utility.yul\":9586:9758   */\n      pop\n      jump\t// out\n        /* \"#utility.yul\":9764:10130   */\n    tag_347:\n        /* \"#utility.yul\":9906:9909   */\n      0x00\n        /* \"#utility.yul\":9927:9994   */\n      tag_490\n        /* \"#utility.yul\":9991:9993   */\n      0x16\n        /* \"#utility.yul\":9986:9989   */\n      dup4\n        /* \"#utility.yul\":9927:9994   */\n      tag_345\n      jump\t// in\n    tag_490:\n        /* \"#utility.yul\":9920:9994   */\n      swap2\n      pop\n        /* \"#utility.yul\":10003:10096   */\n      tag_491\n        /* \"#utility.yul\":10092:10095   */\n      dup3\n        /* \"#utility.yul\":10003:10096   */\n      tag_346\n      jump\t// in\n    tag_491:\n        /* \"#utility.yul\":10121:10123   */\n      0x20\n        /* \"#utility.yul\":10116:10119   */\n      dup3\n        /* \"#utility.yul\":10112:10124   */\n      add\n        /* \"#utility.yul\":10105:10124   */\n      swap1\n      pop\n        /* \"#utility.yul\":9764:10130   */\n      swap2\n      swap1\n      pop\n      jump\t// out\n        /* \"#utility.yul\":10136:10555   */\n    tag_98:\n        /* \"#utility.yul\":10302:10306   */\n      0x00\n        /* \"#utility.yul\":10340:10342   */\n      0x20\n        /* \"#utility.yul\":10329:10338   */\n      dup3\n        /* \"#utility.yul\":10325:10343   */\n      add\n        /* \"#utility.yul\":10317:10343   */\n      swap1\n      pop\n        /* \"#utility.yul\":10389:10398   */\n      dup2\n        /* \"#utility.yul\":10383:10387   */\n      dup2\n        /* \"#utility.yul\":10379:10399   */\n      sub\n        /* \"#utility.yul\":10375:10376   */\n      0x00\n        /* \"#utility.yul\":10364:10373   */\n      dup4\n        /* \"#utility.yul\":10360:10377   */\n      add\n        /* \"#utility.yul\":10353:10400   */\n      mstore\n        /* \"#utility.yul\":10417:10548   */\n      tag_493\n        /* \"#utility.yul\":10543:10547   */\n      dup2\n        /* \"#utility.yul\":10417:10548   */\n      tag_347\n      jump\t// in\n    tag_493:\n        /* \"#utility.yul\":10409:10548   */\n      swap1\n      pop\n        /* \"#utility.yul\":10136:10555   */\n      swap2\n      swap1\n      pop\n      jump\t// out\n        /* \"#utility.yul\":10561:10741   */\n    tag_348:\n        /* \"#utility.yul\":10609:10686   */\n      0x4e487b7100000000000000000000000000000000000000000000000000000000\n        /* \"#utility.yul\":10606:10607   */\n      0x00\n        /* \"#utility.yul\":10599:10687   */\n      mstore\n        /* \"#utility.yul\":10706:10710   */\n      0x11\n        /* \"#utility.yul\":10703:10704   */\n      0x04\n        /* \"#utility.yul\":10696:10711   */\n      mstore\n        /* \"#utility.yul\":10730:10734   */\n      0x24\n        /* \"#utility.yul\":10727:10728   */\n      0x00\n        /* \"#utility.yul\":10720:10735   */\n      revert\n        /* \"#utility.yul\":10747:10941   */\n    tag_100:\n        /* \"#utility.yul\":10787:10791   */\n      0x00\n        /* \"#utility.yul\":10807:10827   */\n      tag_496\n        /* \"#utility.yul\":10825:10826   */\n      dup3\n        /* \"#utility.yul\":10807:10827   */\n      tag_322\n      jump\t// in\n    tag_496:\n        /* \"#utility.yul\":10802:10827   */\n      swap2\n      pop\n        /* \"#utility.yul\":10841:10861   */\n      tag_497\n        /* \"#utility.yul\":10859:10860   */\n      dup4\n        /* \"#utility.yul\":10841:10861   */\n      tag_322\n      jump\t// in\n    tag_497:\n        /* \"#utility.yul\":10836:10861   */\n      swap3\n      pop\n        /* \"#utility.yul\":10885:10886   */\n      dup3\n        /* \"#utility.yul\":10882:10883   */\n      dup3\n        /* \"#utility.yul\":10878:10887   */\n      sub\n        /* \"#utility.yul\":10870:10887   */\n      swap1\n      pop\n        /* \"#utility.yul\":10909:10910   */\n      dup2\n        /* \"#utility.yul\":10903:10907   */\n      dup2\n        /* \"#utility.yul\":10900:10911   */\n      gt\n        /* \"#utility.yul\":10897:10934   */\n      iszero\n      tag_498\n      jumpi\n        /* \"#utility.yul\":10914:10932   */\n      tag_499\n      tag_348\n      jump\t// in\n    tag_499:\n        /* \"#utility.yul\":10897:10934   */\n    tag_498:\n        /* \"#utility.yul\":10747:10941   */\n      swap3\n      swap2\n      pop\n      pop\n      jump\t// out\n        /* \"#utility.yul\":10947:11127   */\n    tag_103:\n        /* \"#utility.yul\":10995:11072   */\n      0x4e487b7100000000000000000000000000000000000000000000000000000000\n        /* \"#utility.yul\":10992:10993   */\n      0x00\n        /* \"#utility.yul\":10985:11073   */\n      mstore\n        /* \"#utility.yul\":11092:11096   */\n      0x32\n        /* \"#utility.yul\":11089:11090   */\n      0x04\n        /* \"#utility.yul\":11082:11097   */\n      mstore\n        /* \"#utility.yul\":11116:11120   */\n      0x24\n        /* \"#utility.yul\":11113:11114   */\n      0x00\n        /* \"#utility.yul\":11106:11121   */\n      revert\n        /* \"#utility.yul\":11133:11381   */\n    tag_349:\n        /* \"#utility.yul\":11273:11307   */\n      0x596f75207573652074686973204944206265666f72652061742070726573656e\n        /* \"#utility.yul\":11269:11270   */\n      0x00\n        /* \"#utility.yul\":11261:11267   */\n      dup3\n        /* \"#utility.yul\":11257:11271   */\n      add\n        /* \"#utility.yul\":11250:11308   */\n      mstore\n        /* \"#utility.yul\":11342:11373   */\n      0x742074696d65207468697320696420646f6573206e6f74206578697374000000\n        /* \"#utility.yul\":11337:11339   */\n      0x20\n        /* \"#utility.yul\":11329:11335   */\n      dup3\n        /* \"#utility.yul\":11325:11340   */\n      add\n        /* \"#utility.yul\":11318:11374   */\n      mstore\n        /* \"#utility.yul\":11133:11381   */\n      pop\n      jump\t// out\n        /* \"#utility.yul\":11387:11753   */\n    tag_350:\n        /* \"#utility.yul\":11529:11532   */\n      0x00\n        /* \"#utility.yul\":11550:11617   */\n      tag_503\n        /* \"#utility.yul\":11614:11616   */\n      0x3d\n        /* \"#utility.yul\":11609:11612   */\n      dup4\n        /* \"#utility.yul\":11550:11617   */\n      tag_345\n      jump\t// in\n    tag_503:\n        /* \"#utility.yul\":11543:11617   */\n      swap2\n      pop\n        /* \"#utility.yul\":11626:11719   */\n      tag_504\n        /* \"#utility.yul\":11715:11718   */\n      dup3\n        /* \"#utility.yul\":11626:11719   */\n      tag_349\n      jump\t// in\n    tag_504:\n        /* \"#utility.yul\":11744:11746   */\n      0x40\n        /* \"#utility.yul\":11739:11742   */\n      dup3\n        /* \"#utility.yul\":11735:11747   */\n      add\n        /* \"#utility.yul\":11728:11747   */\n      swap1\n      pop\n        /* \"#utility.yul\":11387:11753   */\n      swap2\n      swap1\n      pop\n      jump\t// out\n        /* \"#utility.yul\":11759:12178   */\n    tag_107:\n        /* \"#utility.yul\":11925:11929   */\n      0x00\n        /* \"#utility.yul\":11963:11965   */\n      0x20\n        /* \"#utility.yul\":11952:11961   */\n      dup3\n        /* \"#utility.yul\":11948:11966   */\n      add\n        /* \"#utility.yul\":11940:11966   */\n      swap1\n      pop\n        /* \"#utility.yul\":12012:12021   */\n      dup2\n        /* \"#utility.yul\":12006:12010   */\n      dup2\n        /* \"#utility.yul\":12002:12022   */\n      sub\n        /* \"#utility.yul\":11998:11999   */\n      0x00\n        /* \"#utility.yul\":11987:11996   */\n      dup4\n        /* \"#utility.yul\":11983:12000   */\n      add\n        /* \"#utility.yul\":11976:12023   */\n      mstore\n        /* \"#utility.yul\":12040:12171   */\n      tag_506\n        /* \"#utility.yul\":12166:12170   */\n      dup2\n        /* \"#utility.yul\":12040:12171   */\n      tag_350\n      jump\t// in\n    tag_506:\n        /* \"#utility.yul\":12032:12171   */\n      swap1\n      pop\n        /* \"#utility.yul\":11759:12178   */\n      swap2\n      swap1\n      pop\n      jump\t// out\n        /* \"#utility.yul\":12184:12433   */\n    tag_351:\n        /* \"#utility.yul\":12324:12358   */\n      0x596f75206e6f7420636c61696d20746869732072657761726420626563617573\n        /* \"#utility.yul\":12320:12321   */\n      0x00\n        /* \"#utility.yul\":12312:12318   */\n      dup3\n        /* \"#utility.yul\":12308:12322   */\n      add\n        /* \"#utility.yul\":12301:12359   */\n      mstore\n        /* \"#utility.yul\":12393:12425   */\n      0x6520796f7520617265206e6f74206f776e6572206f6620746869732069640000\n        /* \"#utility.yul\":12388:12390   */\n      0x20\n        /* \"#utility.yul\":12380:12386   */\n      dup3\n        /* \"#utility.yul\":12376:12391   */\n      add\n        /* \"#utility.yul\":12369:12426   */\n      mstore\n        /* \"#utility.yul\":12184:12433   */\n      pop\n      jump\t// out\n        /* \"#utility.yul\":12439:12805   */\n    tag_352:\n        /* \"#utility.yul\":12581:12584   */\n      0x00\n        /* \"#utility.yul\":12602:12669   */\n      tag_509\n        /* \"#utility.yul\":12666:12668   */\n      0x3e\n        /* \"#utility.yul\":12661:12664   */\n      dup4\n        /* \"#utility.yul\":12602:12669   */\n      tag_345\n      jump\t// in\n    tag_509:\n        /* \"#utility.yul\":12595:12669   */\n      swap2\n      pop\n        /* \"#utility.yul\":12678:12771   */\n      tag_510\n        /* \"#utility.yul\":12767:12770   */\n      dup3\n        /* \"#utility.yul\":12678:12771   */\n      tag_351\n      jump\t// in\n    tag_510:\n        /* \"#utility.yul\":12796:12798   */\n      0x40\n        /* \"#utility.yul\":12791:12794   */\n      dup3\n        /* \"#utility.yul\":12787:12799   */\n      add\n        /* \"#utility.yul\":12780:12799   */\n      swap1\n      pop\n        /* \"#utility.yul\":12439:12805   */\n      swap2\n      swap1\n      pop\n      jump\t// out\n        /* \"#utility.yul\":12811:13230   */\n    tag_110:\n        /* \"#utility.yul\":12977:12981   */\n      0x00\n        /* \"#utility.yul\":13015:13017   */\n      0x20\n        /* \"#utility.yul\":13004:13013   */\n      dup3\n        /* \"#utility.yul\":13000:13018   */\n      add\n        /* \"#utility.yul\":12992:13018   */\n      swap1\n      pop\n        /* \"#utility.yul\":13064:13073   */\n      dup2\n        /* \"#utility.yul\":13058:13062   */\n      dup2\n        /* \"#utility.yul\":13054:13074   */\n      sub\n        /* \"#utility.yul\":13050:13051   */\n      0x00\n        /* \"#utility.yul\":13039:13048   */\n      dup4\n        /* \"#utility.yul\":13035:13052   */\n      add\n        /* \"#utility.yul\":13028:13075   */\n      mstore\n        /* \"#utility.yul\":13092:13223   */\n      tag_512\n        /* \"#utility.yul\":13218:13222   */\n      dup2\n        /* \"#utility.yul\":13092:13223   */\n      tag_352\n      jump\t// in\n    tag_512:\n        /* \"#utility.yul\":13084:13223   */\n      swap1\n      pop\n        /* \"#utility.yul\":12811:13230   */\n      swap2\n      swap1\n      pop\n      jump\t// out\n        /* \"#utility.yul\":13236:13427   */\n    tag_112:\n        /* \"#utility.yul\":13276:13279   */\n      0x00\n        /* \"#utility.yul\":13295:13315   */\n      tag_514\n        /* \"#utility.yul\":13313:13314   */\n      dup3\n        /* \"#utility.yul\":13295:13315   */\n      tag_322\n      jump\t// in\n    tag_514:\n        /* \"#utility.yul\":13290:13315   */\n      swap2\n      pop\n        /* \"#utility.yul\":13329:13349   */\n      tag_515\n        /* \"#utility.yul\":13347:13348   */\n      dup4\n        /* \"#utility.yul\":13329:13349   */\n      tag_322\n      jump\t// in\n    tag_515:\n        /* \"#utility.yul\":13324:13349   */\n      swap3\n      pop\n        /* \"#utility.yul\":13372:13373   */\n      dup3\n        /* \"#utility.yul\":13369:13370   */\n      dup3\n        /* \"#utility.yul\":13365:13374   */\n      add\n        /* \"#utility.yul\":13358:13374   */\n      swap1\n      pop\n        /* \"#utility.yul\":13393:13396   */\n      dup1\n        /* \"#utility.yul\":13390:13391   */\n      dup3\n        /* \"#utility.yul\":13387:13397   */\n      gt\n        /* \"#utility.yul\":13384:13420   */\n      iszero\n      tag_516\n      jumpi\n        /* \"#utility.yul\":13400:13418   */\n      tag_517\n      tag_348\n      jump\t// in\n    tag_517:\n        /* \"#utility.yul\":13384:13420   */\n    tag_516:\n        /* \"#utility.yul\":13236:13427   */\n      swap3\n      swap2\n      pop\n      pop\n      jump\t// out\n        /* \"#utility.yul\":13433:13723   */\n    tag_353:\n        /* \"#utility.yul\":13573:13607   */\n      0x596f7520646f6573206e6f7420636c61696d2072657761726420626563617573\n        /* \"#utility.yul\":13569:13570   */\n      0x00\n        /* \"#utility.yul\":13561:13567   */\n      dup3\n        /* \"#utility.yul\":13557:13571   */\n      add\n        /* \"#utility.yul\":13550:13608   */\n      mstore\n        /* \"#utility.yul\":13642:13676   */\n      0x65206d6174757269747920706572696f64206973206e6f7420636f6d706c6574\n        /* \"#utility.yul\":13637:13639   */\n      0x20\n        /* \"#utility.yul\":13629:13635   */\n      dup3\n        /* \"#utility.yul\":13625:13640   */\n      add\n        /* \"#utility.yul\":13618:13677   */\n      mstore\n        /* \"#utility.yul\":13711:13715   */\n      0x6564000000000000000000000000000000000000000000000000000000000000\n        /* \"#utility.yul\":13706:13708   */\n      0x40\n        /* \"#utility.yul\":13698:13704   */\n      dup3\n        /* \"#utility.yul\":13694:13709   */\n      add\n        /* \"#utility.yul\":13687:13716   */\n      mstore\n        /* \"#utility.yul\":13433:13723   */\n      pop\n      jump\t// out\n        /* \"#utility.yul\":13729:14095   */\n    tag_354:\n        /* \"#utility.yul\":13871:13874   */\n      0x00\n        /* \"#utility.yul\":13892:13959   */\n      tag_520\n        /* \"#utility.yul\":13956:13958   */\n      0x42\n        /* \"#utility.yul\":13951:13954   */\n      dup4\n        /* \"#utility.yul\":13892:13959   */\n      tag_345\n      jump\t// in\n    tag_520:\n        /* \"#utility.yul\":13885:13959   */\n      swap2\n      pop\n        /* \"#utility.yul\":13968:14061   */\n      tag_521\n        /* \"#utility.yul\":14057:14060   */\n      dup3\n        /* \"#utility.yul\":13968:14061   */\n      tag_353\n      jump\t// in\n    tag_521:\n        /* \"#utility.yul\":14086:14088   */\n      0x60\n        /* \"#utility.yul\":14081:14084   */\n      dup3\n        /* \"#utility.yul\":14077:14089   */\n      add\n        /* \"#utility.yul\":14070:14089   */\n      swap1\n      pop\n        /* \"#utility.yul\":13729:14095   */\n      swap2\n      swap1\n      pop\n      jump\t// out\n        /* \"#utility.yul\":14101:14520   */\n    tag_116:\n        /* \"#utility.yul\":14267:14271   */\n      0x00\n        /* \"#utility.yul\":14305:14307   */\n      0x20\n        /* \"#utility.yul\":14294:14303   */\n      dup3\n        /* \"#utility.yul\":14290:14308   */\n      add\n        /* \"#utility.yul\":14282:14308   */\n      swap1\n      pop\n        /* \"#utility.yul\":14354:14363   */\n      dup2\n        /* \"#utility.yul\":14348:14352   */\n      dup2\n        /* \"#utility.yul\":14344:14364   */\n      sub\n        /* \"#utility.yul\":14340:14341   */\n      0x00\n        /* \"#utility.yul\":14329:14338   */\n      dup4\n        /* \"#utility.yul\":14325:14342   */\n      add\n        /* \"#utility.yul\":14318:14365   */\n      mstore\n        /* \"#utility.yul\":14382:14513   */\n      tag_523\n        /* \"#utility.yul\":14508:14512   */\n      dup2\n        /* \"#utility.yul\":14382:14513   */\n      tag_354\n      jump\t// in\n    tag_523:\n        /* \"#utility.yul\":14374:14513   */\n      swap1\n      pop\n        /* \"#utility.yul\":14101:14520   */\n      swap2\n      swap1\n      pop\n      jump\t// out\n        /* \"#utility.yul\":14526:14669   */\n    tag_355:\n        /* \"#utility.yul\":14583:14588   */\n      0x00\n        /* \"#utility.yul\":14614:14620   */\n      dup2\n        /* \"#utility.yul\":14608:14621   */\n      mload\n        /* \"#utility.yul\":14599:14621   */\n      swap1\n      pop\n        /* \"#utility.yul\":14630:14663   */\n      tag_525\n        /* \"#utility.yul\":14657:14662   */\n      dup2\n        /* \"#utility.yul\":14630:14663   */\n      tag_323\n      jump\t// in\n    tag_525:\n        /* \"#utility.yul\":14526:14669   */\n      swap3\n      swap2\n      pop\n      pop\n      jump\t// out\n        /* \"#utility.yul\":14675:15026   */\n    tag_122:\n        /* \"#utility.yul\":14745:14751   */\n      0x00\n        /* \"#utility.yul\":14794:14796   */\n      0x20\n        /* \"#utility.yul\":14782:14791   */\n      dup3\n        /* \"#utility.yul\":14773:14780   */\n      dup5\n        /* \"#utility.yul\":14769:14792   */\n      sub\n        /* \"#utility.yul\":14765:14797   */\n      slt\n        /* \"#utility.yul\":14762:14881   */\n      iszero\n      tag_527\n      jumpi\n        /* \"#utility.yul\":14800:14879   */\n      tag_528\n      tag_320\n      jump\t// in\n    tag_528:\n        /* \"#utility.yul\":14762:14881   */\n    tag_527:\n        /* \"#utility.yul\":14920:14921   */\n      0x00\n        /* \"#utility.yul\":14945:15009   */\n      tag_529\n        /* \"#utility.yul\":15001:15008   */\n      dup5\n        /* \"#utility.yul\":14992:14998   */\n      dup3\n        /* \"#utility.yul\":14981:14990   */\n      dup6\n        /* \"#utility.yul\":14977:14999   */\n      add\n        /* \"#utility.yul\":14945:15009   */\n      tag_355\n      jump\t// in\n    tag_529:\n        /* \"#utility.yul\":14935:15009   */\n      swap2\n      pop\n        /* \"#utility.yul\":14891:15019   */\n      pop\n        /* \"#utility.yul\":14675:15026   */\n      swap3\n      swap2\n      pop\n      pop\n      jump\t// out\n        /* \"#utility.yul\":15032:15325   */\n    tag_356:\n        /* \"#utility.yul\":15172:15206   */\n      0x536f72727920636f6e74726163742068617665206e6f20656e6f75676820746f\n        /* \"#utility.yul\":15168:15169   */\n      0x00\n        /* \"#utility.yul\":15160:15166   */\n      dup3\n        /* \"#utility.yul\":15156:15170   */\n      add\n        /* \"#utility.yul\":15149:15207   */\n      mstore\n        /* \"#utility.yul\":15241:15275   */\n      0x6b656e732e205765207265736f6c766520746869732070726f626c656d207368\n        /* \"#utility.yul\":15236:15238   */\n      0x20\n        /* \"#utility.yul\":15228:15234   */\n      dup3\n        /* \"#utility.yul\":15224:15239   */\n      add\n        /* \"#utility.yul\":15217:15276   */\n      mstore\n        /* \"#utility.yul\":15310:15317   */\n      0x6f72746c79000000000000000000000000000000000000000000000000000000\n        /* \"#utility.yul\":15305:15307   */\n      0x40\n        /* \"#utility.yul\":15297:15303   */\n      dup3\n        /* \"#utility.yul\":15293:15308   */\n      add\n        /* \"#utility.yul\":15286:15318   */\n      mstore\n        /* \"#utility.yul\":15032:15325   */\n      pop\n      jump\t// out\n        /* \"#utility.yul\":15331:15697   */\n    tag_357:\n        /* \"#utility.yul\":15473:15476   */\n      0x00\n        /* \"#utility.yul\":15494:15561   */\n      tag_532\n        /* \"#utility.yul\":15558:15560   */\n      0x45\n        /* \"#utility.yul\":15553:15556   */\n      dup4\n        /* \"#utility.yul\":15494:15561   */\n      tag_345\n      jump\t// in\n    tag_532:\n        /* \"#utility.yul\":15487:15561   */\n      swap2\n      pop\n        /* \"#utility.yul\":15570:15663   */\n      tag_533\n        /* \"#utility.yul\":15659:15662   */\n      dup3\n        /* \"#utility.yul\":15570:15663   */\n      tag_356\n      jump\t// in\n    tag_533:\n        /* \"#utility.yul\":15688:15690   */\n      0x60\n        /* \"#utility.yul\":15683:15686   */\n      dup3\n        /* \"#utility.yul\":15679:15691   */\n      add\n        /* \"#utility.yul\":15672:15691   */\n      swap1\n      pop\n        /* \"#utility.yul\":15331:15697   */\n      swap2\n      swap1\n      pop\n      jump\t// out\n        /* \"#utility.yul\":15703:16122   */\n    tag_125:\n        /* \"#utility.yul\":15869:15873   */\n      0x00\n        /* \"#utility.yul\":15907:15909   */\n      0x20\n        /* \"#utility.yul\":15896:15905   */\n      dup3\n        /* \"#utility.yul\":15892:15910   */\n      add\n        /* \"#utility.yul\":15884:15910   */\n      swap1\n      pop\n        /* \"#utility.yul\":15956:15965   */\n      dup2\n        /* \"#utility.yul\":15950:15954   */\n      dup2\n        /* \"#utility.yul\":15946:15966   */\n      sub\n        /* \"#utility.yul\":15942:15943   */\n      0x00\n        /* \"#utility.yul\":15931:15940   */\n      dup4\n        /* \"#utility.yul\":15927:15944   */\n      add\n        /* \"#utility.yul\":15920:15967   */\n      mstore\n        /* \"#utility.yul\":15984:16115   */\n      tag_535\n        /* \"#utility.yul\":16110:16114   */\n      dup2\n        /* \"#utility.yul\":15984:16115   */\n      tag_357\n      jump\t// in\n    tag_535:\n        /* \"#utility.yul\":15976:16115   */\n      swap1\n      pop\n        /* \"#utility.yul\":15703:16122   */\n      swap2\n      swap1\n      pop\n      jump\t// out\n        /* \"#utility.yul\":16128:16460   */\n    tag_127:\n        /* \"#utility.yul\":16249:16253   */\n      0x00\n        /* \"#utility.yul\":16287:16289   */\n      0x40\n        /* \"#utility.yul\":16276:16285   */\n      dup3\n        /* \"#utility.yul\":16272:16290   */\n      add\n        /* \"#utility.yul\":16264:16290   */\n      swap1\n      pop\n        /* \"#utility.yul\":16300:16371   */\n      tag_537\n        /* \"#utility.yul\":16368:16369   */\n      0x00\n        /* \"#utility.yul\":16357:16366   */\n      dup4\n        /* \"#utility.yul\":16353:16370   */\n      add\n        /* \"#utility.yul\":16344:16350   */\n      dup6\n        /* \"#utility.yul\":16300:16371   */\n      tag_327\n      jump\t// in\n    tag_537:\n        /* \"#utility.yul\":16381:16453   */\n      tag_538\n        /* \"#utility.yul\":16449:16451   */\n      0x20\n        /* \"#utility.yul\":16438:16447   */\n      dup4\n        /* \"#utility.yul\":16434:16452   */\n      add\n        /* \"#utility.yul\":16425:16431   */\n      dup5\n        /* \"#utility.yul\":16381:16453   */\n      tag_328\n      jump\t// in\n    tag_538:\n        /* \"#utility.yul\":16128:16460   */\n      swap4\n      swap3\n      pop\n      pop\n      pop\n      jump\t// out\n        /* \"#utility.yul\":16466:16556   */\n    tag_358:\n        /* \"#utility.yul\":16500:16507   */\n      0x00\n        /* \"#utility.yul\":16543:16548   */\n      dup2\n        /* \"#utility.yul\":16536:16549   */\n      iszero\n        /* \"#utility.yul\":16529:16550   */\n      iszero\n        /* \"#utility.yul\":16518:16550   */\n      swap1\n      pop\n        /* \"#utility.yul\":16466:16556   */\n      swap2\n      swap1\n      pop\n      jump\t// out\n        /* \"#utility.yul\":16562:16678   */\n    tag_359:\n        /* \"#utility.yul\":16632:16653   */\n      tag_541\n        /* \"#utility.yul\":16647:16652   */\n      dup2\n        /* \"#utility.yul\":16632:16653   */\n      tag_358\n      jump\t// in\n    tag_541:\n        /* \"#utility.yul\":16625:16630   */\n      dup2\n        /* \"#utility.yul\":16622:16654   */\n      eq\n        /* \"#utility.yul\":16612:16672   */\n      tag_542\n      jumpi\n        /* \"#utility.yul\":16668:16669   */\n      0x00\n        /* \"#utility.yul\":16665:16666   */\n      dup1\n        /* \"#utility.yul\":16658:16670   */\n      revert\n        /* \"#utility.yul\":16612:16672   */\n    tag_542:\n        /* \"#utility.yul\":16562:16678   */\n      pop\n      jump\t// out\n        /* \"#utility.yul\":16684:16821   */\n    tag_360:\n        /* \"#utility.yul\":16738:16743   */\n      0x00\n        /* \"#utility.yul\":16769:16775   */\n      dup2\n        /* \"#utility.yul\":16763:16776   */\n      mload\n        /* \"#utility.yul\":16754:16776   */\n      swap1\n      pop\n        /* \"#utility.yul\":16785:16815   */\n      tag_544\n        /* \"#utility.yul\":16809:16814   */\n      dup2\n        /* \"#utility.yul\":16785:16815   */\n      tag_359\n      jump\t// in\n    tag_544:\n        /* \"#utility.yul\":16684:16821   */\n      swap3\n      swap2\n      pop\n      pop\n      jump\t// out\n        /* \"#utility.yul\":16827:17172   */\n    tag_131:\n        /* \"#utility.yul\":16894:16900   */\n      0x00\n        /* \"#utility.yul\":16943:16945   */\n      0x20\n        /* \"#utility.yul\":16931:16940   */\n      dup3\n        /* \"#utility.yul\":16922:16929   */\n      dup5\n        /* \"#utility.yul\":16918:16941   */\n      sub\n        /* \"#utility.yul\":16914:16946   */\n      slt\n        /* \"#utility.yul\":16911:17030   */\n      iszero\n      tag_546\n      jumpi\n        /* \"#utility.yul\":16949:17028   */\n      tag_547\n      tag_320\n      jump\t// in\n    tag_547:\n        /* \"#utility.yul\":16911:17030   */\n    tag_546:\n        /* \"#utility.yul\":17069:17070   */\n      0x00\n        /* \"#utility.yul\":17094:17155   */\n      tag_548\n        /* \"#utility.yul\":17147:17154   */\n      dup5\n        /* \"#utility.yul\":17138:17144   */\n      dup3\n        /* \"#utility.yul\":17127:17136   */\n      dup6\n        /* \"#utility.yul\":17123:17145   */\n      add\n        /* \"#utility.yul\":17094:17155   */\n      tag_360\n      jump\t// in\n    tag_548:\n        /* \"#utility.yul\":17084:17155   */\n      swap2\n      pop\n        /* \"#utility.yul\":17040:17165   */\n      pop\n        /* \"#utility.yul\":16827:17172   */\n      swap3\n      swap2\n      pop\n      pop\n      jump\t// out\n        /* \"#utility.yul\":17178:17351   */\n    tag_361:\n        /* \"#utility.yul\":17318:17343   */\n      0x207468697320696420646f6573206e6f74206578697374000000000000000000\n        /* \"#utility.yul\":17314:17315   */\n      0x00\n        /* \"#utility.yul\":17306:17312   */\n      dup3\n        /* \"#utility.yul\":17302:17316   */\n      add\n        /* \"#utility.yul\":17295:17344   */\n      mstore\n        /* \"#utility.yul\":17178:17351   */\n      pop\n      jump\t// out\n        /* \"#utility.yul\":17357:17723   */\n    tag_362:\n        /* \"#utility.yul\":17499:17502   */\n      0x00\n        /* \"#utility.yul\":17520:17587   */\n      tag_551\n        /* \"#utility.yul\":17584:17586   */\n      0x17\n        /* \"#utility.yul\":17579:17582   */\n      dup4\n        /* \"#utility.yul\":17520:17587   */\n      tag_345\n      jump\t// in\n    tag_551:\n        /* \"#utility.yul\":17513:17587   */\n      swap2\n      pop\n        /* \"#utility.yul\":17596:17689   */\n      tag_552\n        /* \"#utility.yul\":17685:17688   */\n      dup3\n        /* \"#utility.yul\":17596:17689   */\n      tag_361\n      jump\t// in\n    tag_552:\n        /* \"#utility.yul\":17714:17716   */\n      0x20\n        /* \"#utility.yul\":17709:17712   */\n      dup3\n        /* \"#utility.yul\":17705:17717   */\n      add\n        /* \"#utility.yul\":17698:17717   */\n      swap1\n      pop\n        /* \"#utility.yul\":17357:17723   */\n      swap2\n      swap1\n      pop\n      jump\t// out\n        /* \"#utility.yul\":17729:18148   */\n    tag_147:\n        /* \"#utility.yul\":17895:17899   */\n      0x00\n        /* \"#utility.yul\":17933:17935   */\n      0x20\n        /* \"#utility.yul\":17922:17931   */\n      dup3\n        /* \"#utility.yul\":17918:17936   */\n      add\n        /* \"#utility.yul\":17910:17936   */\n      swap1\n      pop\n        /* \"#utility.yul\":17982:17991   */\n      dup2\n        /* \"#utility.yul\":17976:17980   */\n      dup2\n        /* \"#utility.yul\":17972:17992   */\n      sub\n        /* \"#utility.yul\":17968:17969   */\n      0x00\n        /* \"#utility.yul\":17957:17966   */\n      dup4\n        /* \"#utility.yul\":17953:17970   */\n      add\n        /* \"#utility.yul\":17946:17993   */\n      mstore\n        /* \"#utility.yul\":18010:18141   */\n      tag_554\n        /* \"#utility.yul\":18136:18140   */\n      dup2\n        /* \"#utility.yul\":18010:18141   */\n      tag_362\n      jump\t// in\n    tag_554:\n        /* \"#utility.yul\":18002:18141   */\n      swap1\n      pop\n        /* \"#utility.yul\":17729:18148   */\n      swap2\n      swap1\n      pop\n      jump\t// out\n        /* \"#utility.yul\":18154:18403   */\n    tag_363:\n        /* \"#utility.yul\":18294:18328   */\n      0x596f75206e6f7420636c61696d207468697320616d6f756e7420626563617573\n        /* \"#utility.yul\":18290:18291   */\n      0x00\n        /* \"#utility.yul\":18282:18288   */\n      dup3\n        /* \"#utility.yul\":18278:18292   */\n      add\n        /* \"#utility.yul\":18271:18329   */\n      mstore\n        /* \"#utility.yul\":18363:18395   */\n      0x6520796f7520617265206e6f74206f776e6572206f6620746869732069640000\n        /* \"#utility.yul\":18358:18360   */\n      0x20\n        /* \"#utility.yul\":18350:18356   */\n      dup3\n        /* \"#utility.yul\":18346:18361   */\n      add\n        /* \"#utility.yul\":18339:18396   */\n      mstore\n        /* \"#utility.yul\":18154:18403   */\n      pop\n      jump\t// out\n        /* \"#utility.yul\":18409:18775   */\n    tag_364:\n        /* \"#utility.yul\":18551:18554   */\n      0x00\n        /* \"#utility.yul\":18572:18639   */\n      tag_557\n        /* \"#utility.yul\":18636:18638   */\n      0x3e\n        /* \"#utility.yul\":18631:18634   */\n      dup4\n        /* \"#utility.yul\":18572:18639   */\n      tag_345\n      jump\t// in\n    tag_557:\n        /* \"#utility.yul\":18565:18639   */\n      swap2\n      pop\n        /* \"#utility.yul\":18648:18741   */\n      tag_558\n        /* \"#utility.yul\":18737:18740   */\n      dup3\n        /* \"#utility.yul\":18648:18741   */\n      tag_363\n      jump\t// in\n    tag_558:\n        /* \"#utility.yul\":18766:18768   */\n      0x40\n        /* \"#utility.yul\":18761:18764   */\n      dup3\n        /* \"#utility.yul\":18757:18769   */\n      add\n        /* \"#utility.yul\":18750:18769   */\n      swap1\n      pop\n        /* \"#utility.yul\":18409:18775   */\n      swap2\n      swap1\n      pop\n      jump\t// out\n        /* \"#utility.yul\":18781:19200   */\n    tag_150:\n        /* \"#utility.yul\":18947:18951   */\n      0x00\n        /* \"#utility.yul\":18985:18987   */\n      0x20\n        /* \"#utility.yul\":18974:18983   */\n      dup3\n        /* \"#utility.yul\":18970:18988   */\n      add\n        /* \"#utility.yul\":18962:18988   */\n      swap1\n      pop\n        /* \"#utility.yul\":19034:19043   */\n      dup2\n        /* \"#utility.yul\":19028:19032   */\n      dup2\n        /* \"#utility.yul\":19024:19044   */\n      sub\n        /* \"#utility.yul\":19020:19021   */\n      0x00\n        /* \"#utility.yul\":19009:19018   */\n      dup4\n        /* \"#utility.yul\":19005:19022   */\n      add\n        /* \"#utility.yul\":18998:19045   */\n      mstore\n        /* \"#utility.yul\":19062:19193   */\n      tag_560\n        /* \"#utility.yul\":19188:19192   */\n      dup2\n        /* \"#utility.yul\":19062:19193   */\n      tag_364\n      jump\t// in\n    tag_560:\n        /* \"#utility.yul\":19054:19193   */\n      swap1\n      pop\n        /* \"#utility.yul\":18781:19200   */\n      swap2\n      swap1\n      pop\n      jump\t// out\n        /* \"#utility.yul\":19206:19436   */\n    tag_365:\n        /* \"#utility.yul\":19346:19380   */\n      0x596f75206f6e6c7920636c61696d20616d6f756e7420616674657220636c6169\n        /* \"#utility.yul\":19342:19343   */\n      0x00\n        /* \"#utility.yul\":19334:19340   */\n      dup3\n        /* \"#utility.yul\":19330:19344   */\n      add\n        /* \"#utility.yul\":19323:19381   */\n      mstore\n        /* \"#utility.yul\":19415:19428   */\n      0x6d696e6720726577617264000000000000000000000000000000000000000000\n        /* \"#utility.yul\":19410:19412   */\n      0x20\n        /* \"#utility.yul\":19402:19408   */\n      dup3\n        /* \"#utility.yul\":19398:19413   */\n      add\n        /* \"#utility.yul\":19391:19429   */\n      mstore\n        /* \"#utility.yul\":19206:19436   */\n      pop\n      jump\t// out\n        /* \"#utility.yul\":19442:19808   */\n    tag_366:\n        /* \"#utility.yul\":19584:19587   */\n      0x00\n        /* \"#utility.yul\":19605:19672   */\n      tag_563\n        /* \"#utility.yul\":19669:19671   */\n      0x2b\n        /* \"#utility.yul\":19664:19667   */\n      dup4\n        /* \"#utility.yul\":19605:19672   */\n      tag_345\n      jump\t// in\n    tag_563:\n        /* \"#utility.yul\":19598:19672   */\n      swap2\n      pop\n        /* \"#utility.yul\":19681:19774   */\n      tag_564\n        /* \"#utility.yul\":19770:19773   */\n      dup3\n        /* \"#utility.yul\":19681:19774   */\n      tag_365\n      jump\t// in\n    tag_564:\n        /* \"#utility.yul\":19799:19801   */\n      0x40\n        /* \"#utility.yul\":19794:19797   */\n      dup3\n        /* \"#utility.yul\":19790:19802   */\n      add\n        /* \"#utility.yul\":19783:19802   */\n      swap1\n      pop\n        /* \"#utility.yul\":19442:19808   */\n      swap2\n      swap1\n      pop\n      jump\t// out\n        /* \"#utility.yul\":19814:20233   */\n    tag_157:\n        /* \"#utility.yul\":19980:19984   */\n      0x00\n        /* \"#utility.yul\":20018:20020   */\n      0x20\n        /* \"#utility.yul\":20007:20016   */\n      dup3\n        /* \"#utility.yul\":20003:20021   */\n      add\n        /* \"#utility.yul\":19995:20021   */\n      swap1\n      pop\n        /* \"#utility.yul\":20067:20076   */\n      dup2\n        /* \"#utility.yul\":20061:20065   */\n      dup2\n        /* \"#utility.yul\":20057:20077   */\n      sub\n        /* \"#utility.yul\":20053:20054   */\n      0x00\n        /* \"#utility.yul\":20042:20051   */\n      dup4\n        /* \"#utility.yul\":20038:20055   */\n      add\n        /* \"#utility.yul\":20031:20078   */\n      mstore\n        /* \"#utility.yul\":20095:20226   */\n      tag_566\n        /* \"#utility.yul\":20221:20225   */\n      dup2\n        /* \"#utility.yul\":20095:20226   */\n      tag_366\n      jump\t// in\n    tag_566:\n        /* \"#utility.yul\":20087:20226   */\n      swap1\n      pop\n        /* \"#utility.yul\":19814:20233   */\n      swap2\n      swap1\n      pop\n      jump\t// out\n        /* \"#utility.yul\":20239:20535   */\n    tag_367:\n        /* \"#utility.yul\":20379:20413   */\n      0x596f752063616e20636c61696d20616d6f756e74206f6e6c7920616674657220\n        /* \"#utility.yul\":20375:20376   */\n      0x00\n        /* \"#utility.yul\":20367:20373   */\n      dup3\n        /* \"#utility.yul\":20363:20377   */\n      add\n        /* \"#utility.yul\":20356:20414   */\n      mstore\n        /* \"#utility.yul\":20448:20482   */\n      0x32206d696e757465732066726f6d207468652074696d65206f6620436c61696d\n        /* \"#utility.yul\":20443:20445   */\n      0x20\n        /* \"#utility.yul\":20435:20441   */\n      dup3\n        /* \"#utility.yul\":20431:20446   */\n      add\n        /* \"#utility.yul\":20424:20483   */\n      mstore\n        /* \"#utility.yul\":20517:20527   */\n      0x2052657761726473000000000000000000000000000000000000000000000000\n        /* \"#utility.yul\":20512:20514   */\n      0x40\n        /* \"#utility.yul\":20504:20510   */\n      dup3\n        /* \"#utility.yul\":20500:20515   */\n      add\n        /* \"#utility.yul\":20493:20528   */\n      mstore\n        /* \"#utility.yul\":20239:20535   */\n      pop\n      jump\t// out\n        /* \"#utility.yul\":20541:20907   */\n    tag_368:\n        /* \"#utility.yul\":20683:20686   */\n      0x00\n        /* \"#utility.yul\":20704:20771   */\n      tag_569\n        /* \"#utility.yul\":20768:20770   */\n      0x48\n        /* \"#utility.yul\":20763:20766   */\n      dup4\n        /* \"#utility.yul\":20704:20771   */\n      tag_345\n      jump\t// in\n    tag_569:\n        /* \"#utility.yul\":20697:20771   */\n      swap2\n      pop\n        /* \"#utility.yul\":20780:20873   */\n      tag_570\n        /* \"#utility.yul\":20869:20872   */\n      dup3\n        /* \"#utility.yul\":20780:20873   */\n      tag_367\n      jump\t// in\n    tag_570:\n        /* \"#utility.yul\":20898:20900   */\n      0x60\n        /* \"#utility.yul\":20893:20896   */\n      dup3\n        /* \"#utility.yul\":20889:20901   */\n      add\n        /* \"#utility.yul\":20882:20901   */\n      swap1\n      pop\n        /* \"#utility.yul\":20541:20907   */\n      swap2\n      swap1\n      pop\n      jump\t// out\n        /* \"#utility.yul\":20913:21332   */\n    tag_161:\n        /* \"#utility.yul\":21079:21083   */\n      0x00\n        /* \"#utility.yul\":21117:21119   */\n      0x20\n        /* \"#utility.yul\":21106:21115   */\n      dup3\n        /* \"#utility.yul\":21102:21120   */\n      add\n        /* \"#utility.yul\":21094:21120   */\n      swap1\n      pop\n        /* \"#utility.yul\":21166:21175   */\n      dup2\n        /* \"#utility.yul\":21160:21164   */\n      dup2\n        /* \"#utility.yul\":21156:21176   */\n      sub\n        /* \"#utility.yul\":21152:21153   */\n      0x00\n        /* \"#utility.yul\":21141:21150   */\n      dup4\n        /* \"#utility.yul\":21137:21154   */\n      add\n        /* \"#utility.yul\":21130:21177   */\n      mstore\n        /* \"#utility.yul\":21194:21325   */\n      tag_572\n        /* \"#utility.yul\":21320:21324   */\n      dup2\n        /* \"#utility.yul\":21194:21325   */\n      tag_368\n      jump\t// in\n    tag_572:\n        /* \"#utility.yul\":21186:21325   */\n      swap1\n      pop\n        /* \"#utility.yul\":20913:21332   */\n      swap2\n      swap1\n      pop\n      jump\t// out\n        /* \"#utility.yul\":21338:21561   */\n    tag_369:\n        /* \"#utility.yul\":21478:21512   */\n      0x536f72727920636f6e74726163742068617665206e6f20656e6f75676820746f\n        /* \"#utility.yul\":21474:21475   */\n      0x00\n        /* \"#utility.yul\":21466:21472   */\n      dup3\n        /* \"#utility.yul\":21462:21476   */\n      add\n        /* \"#utility.yul\":21455:21513   */\n      mstore\n        /* \"#utility.yul\":21547:21553   */\n      0x6b656e7300000000000000000000000000000000000000000000000000000000\n        /* \"#utility.yul\":21542:21544   */\n      0x20\n        /* \"#utility.yul\":21534:21540   */\n      dup3\n        /* \"#utility.yul\":21530:21545   */\n      add\n        /* \"#utility.yul\":21523:21554   */\n      mstore\n        /* \"#utility.yul\":21338:21561   */\n      pop\n      jump\t// out\n        /* \"#utility.yul\":21567:21933   */\n    tag_370:\n        /* \"#utility.yul\":21709:21712   */\n      0x00\n        /* \"#utility.yul\":21730:21797   */\n      tag_575\n        /* \"#utility.yul\":21794:21796   */\n      0x24\n        /* \"#utility.yul\":21789:21792   */\n      dup4\n        /* \"#utility.yul\":21730:21797   */\n      tag_345\n      jump\t// in\n    tag_575:\n        /* \"#utility.yul\":21723:21797   */\n      swap2\n      pop\n        /* \"#utility.yul\":21806:21899   */\n      tag_576\n        /* \"#utility.yul\":21895:21898   */\n      dup3\n        /* \"#utility.yul\":21806:21899   */\n      tag_369\n      jump\t// in\n    tag_576:\n        /* \"#utility.yul\":21924:21926   */\n      0x40\n        /* \"#utility.yul\":21919:21922   */\n      dup3\n        /* \"#utility.yul\":21915:21927   */\n      add\n        /* \"#utility.yul\":21908:21927   */\n      swap1\n      pop\n        /* \"#utility.yul\":21567:21933   */\n      swap2\n      swap1\n      pop\n      jump\t// out\n        /* \"#utility.yul\":21939:22358   */\n    tag_168:\n        /* \"#utility.yul\":22105:22109   */\n      0x00\n        /* \"#utility.yul\":22143:22145   */\n      0x20\n        /* \"#utility.yul\":22132:22141   */\n      dup3\n        /* \"#utility.yul\":22128:22146   */\n      add\n        /* \"#utility.yul\":22120:22146   */\n      swap1\n      pop\n        /* \"#utility.yul\":22192:22201   */\n      dup2\n        /* \"#utility.yul\":22186:22190   */\n      dup2\n        /* \"#utility.yul\":22182:22202   */\n      sub\n        /* \"#utility.yul\":22178:22179   */\n      0x00\n        /* \"#utility.yul\":22167:22176   */\n      dup4\n        /* \"#utility.yul\":22163:22180   */\n      add\n        /* \"#utility.yul\":22156:22203   */\n      mstore\n        /* \"#utility.yul\":22220:22351   */\n      tag_578\n        /* \"#utility.yul\":22346:22350   */\n      dup2\n        /* \"#utility.yul\":22220:22351   */\n      tag_370\n      jump\t// in\n    tag_578:\n        /* \"#utility.yul\":22212:22351   */\n      swap1\n      pop\n        /* \"#utility.yul\":21939:22358   */\n      swap2\n      swap1\n      pop\n      jump\t// out\n        /* \"#utility.yul\":22364:22587   */\n    tag_371:\n        /* \"#utility.yul\":22504:22538   */\n      0x496e76616c696420696e7075743a20496e70757420696420646f65736e742065\n        /* \"#utility.yul\":22500:22501   */\n      0x00\n        /* \"#utility.yul\":22492:22498   */\n      dup3\n        /* \"#utility.yul\":22488:22502   */\n      add\n        /* \"#utility.yul\":22481:22539   */\n      mstore\n        /* \"#utility.yul\":22573:22579   */\n      0x7869737400000000000000000000000000000000000000000000000000000000\n        /* \"#utility.yul\":22568:22570   */\n      0x20\n        /* \"#utility.yul\":22560:22566   */\n      dup3\n        /* \"#utility.yul\":22556:22571   */\n      add\n        /* \"#utility.yul\":22549:22580   */\n      mstore\n        /* \"#utility.yul\":22364:22587   */\n      pop\n      jump\t// out\n        /* \"#utility.yul\":22593:22959   */\n    tag_372:\n        /* \"#utility.yul\":22735:22738   */\n      0x00\n        /* \"#utility.yul\":22756:22823   */\n      tag_581\n        /* \"#utility.yul\":22820:22822   */\n      0x24\n        /* \"#utility.yul\":22815:22818   */\n      dup4\n        /* \"#utility.yul\":22756:22823   */\n      tag_345\n      jump\t// in\n    tag_581:\n        /* \"#utility.yul\":22749:22823   */\n      swap2\n      pop\n        /* \"#utility.yul\":22832:22925   */\n      tag_582\n        /* \"#utility.yul\":22921:22924   */\n      dup3\n        /* \"#utility.yul\":22832:22925   */\n      tag_371\n      jump\t// in\n    tag_582:\n        /* \"#utility.yul\":22950:22952   */\n      0x40\n        /* \"#utility.yul\":22945:22948   */\n      dup3\n        /* \"#utility.yul\":22941:22953   */\n      add\n        /* \"#utility.yul\":22934:22953   */\n      swap1\n      pop\n        /* \"#utility.yul\":22593:22959   */\n      swap2\n      swap1\n      pop\n      jump\t// out\n        /* \"#utility.yul\":22965:23384   */\n    tag_189:\n        /* \"#utility.yul\":23131:23135   */\n      0x00\n        /* \"#utility.yul\":23169:23171   */\n      0x20\n        /* \"#utility.yul\":23158:23167   */\n      dup3\n        /* \"#utility.yul\":23154:23172   */\n      add\n        /* \"#utility.yul\":23146:23172   */\n      swap1\n      pop\n        /* \"#utility.yul\":23218:23227   */\n      dup2\n        /* \"#utility.yul\":23212:23216   */\n      dup2\n        /* \"#utility.yul\":23208:23228   */\n      sub\n        /* \"#utility.yul\":23204:23205   */\n      0x00\n        /* \"#utility.yul\":23193:23202   */\n      dup4\n        /* \"#utility.yul\":23189:23206   */\n      add\n        /* \"#utility.yul\":23182:23229   */\n      mstore\n        /* \"#utility.yul\":23246:23377   */\n      tag_584\n        /* \"#utility.yul\":23372:23376   */\n      dup2\n        /* \"#utility.yul\":23246:23377   */\n      tag_372\n      jump\t// in\n    tag_584:\n        /* \"#utility.yul\":23238:23377   */\n      swap1\n      pop\n        /* \"#utility.yul\":22965:23384   */\n      swap2\n      swap1\n      pop\n      jump\t// out\n        /* \"#utility.yul\":23390:23624   */\n    tag_373:\n        /* \"#utility.yul\":23530:23564   */\n      0x54686973206164647265737320636f727265736f6e64696e6720746f20696420\n        /* \"#utility.yul\":23526:23527   */\n      0x00\n        /* \"#utility.yul\":23518:23524   */\n      dup3\n        /* \"#utility.yul\":23514:23528   */\n      add\n        /* \"#utility.yul\":23507:23565   */\n      mstore\n        /* \"#utility.yul\":23599:23616   */\n      0x697320616c726561647920757365640000000000000000000000000000000000\n        /* \"#utility.yul\":23594:23596   */\n      0x20\n        /* \"#utility.yul\":23586:23592   */\n      dup3\n        /* \"#utility.yul\":23582:23597   */\n      add\n        /* \"#utility.yul\":23575:23617   */\n      mstore\n        /* \"#utility.yul\":23390:23624   */\n      pop\n      jump\t// out\n        /* \"#utility.yul\":23630:23996   */\n    tag_374:\n        /* \"#utility.yul\":23772:23775   */\n      0x00\n        /* \"#utility.yul\":23793:23860   */\n      tag_587\n        /* \"#utility.yul\":23857:23859   */\n      0x2f\n        /* \"#utility.yul\":23852:23855   */\n      dup4\n        /* \"#utility.yul\":23793:23860   */\n      tag_345\n      jump\t// in\n    tag_587:\n        /* \"#utility.yul\":23786:23860   */\n      swap2\n      pop\n        /* \"#utility.yul\":23869:23962   */\n      tag_588\n        /* \"#utility.yul\":23958:23961   */\n      dup3\n        /* \"#utility.yul\":23869:23962   */\n      tag_373\n      jump\t// in\n    tag_588:\n        /* \"#utility.yul\":23987:23989   */\n      0x40\n        /* \"#utility.yul\":23982:23985   */\n      dup3\n        /* \"#utility.yul\":23978:23990   */\n      add\n        /* \"#utility.yul\":23971:23990   */\n      swap1\n      pop\n        /* \"#utility.yul\":23630:23996   */\n      swap2\n      swap1\n      pop\n      jump\t// out\n        /* \"#utility.yul\":24002:24421   */\n    tag_196:\n        /* \"#utility.yul\":24168:24172   */\n      0x00\n        /* \"#utility.yul\":24206:24208   */\n      0x20\n        /* \"#utility.yul\":24195:24204   */\n      dup3\n        /* \"#utility.yul\":24191:24209   */\n      add\n        /* \"#utility.yul\":24183:24209   */\n      swap1\n      pop\n        /* \"#utility.yul\":24255:24264   */\n      dup2\n        /* \"#utility.yul\":24249:24253   */\n      dup2\n        /* \"#utility.yul\":24245:24265   */\n      sub\n        /* \"#utility.yul\":24241:24242   */\n      0x00\n        /* \"#utility.yul\":24230:24239   */\n      dup4\n        /* \"#utility.yul\":24226:24243   */\n      add\n        /* \"#utility.yul\":24219:24266   */\n      mstore\n        /* \"#utility.yul\":24283:24414   */\n      tag_590\n        /* \"#utility.yul\":24409:24413   */\n      dup2\n        /* \"#utility.yul\":24283:24414   */\n      tag_374\n      jump\t// in\n    tag_590:\n        /* \"#utility.yul\":24275:24414   */\n      swap1\n      pop\n        /* \"#utility.yul\":24002:24421   */\n      swap2\n      swap1\n      pop\n      jump\t// out\n        /* \"#utility.yul\":24427:24606   */\n    tag_375:\n        /* \"#utility.yul\":24567:24598   */\n      0x5374616b6520616d6f756e74206d757374206265206e6f6e2d7a65726f000000\n        /* \"#utility.yul\":24563:24564   */\n      0x00\n        /* \"#utility.yul\":24555:24561   */\n      dup3\n        /* \"#utility.yul\":24551:24565   */\n      add\n        /* \"#utility.yul\":24544:24599   */\n      mstore\n        /* \"#utility.yul\":24427:24606   */\n      pop\n      jump\t// out\n        /* \"#utility.yul\":24612:24978   */\n    tag_376:\n        /* \"#utility.yul\":24754:24757   */\n      0x00\n        /* \"#utility.yul\":24775:24842   */\n      tag_593\n        /* \"#utility.yul\":24839:24841   */\n      0x1d\n        /* \"#utility.yul\":24834:24837   */\n      dup4\n        /* \"#utility.yul\":24775:24842   */\n      tag_345\n      jump\t// in\n    tag_593:\n        /* \"#utility.yul\":24768:24842   */\n      swap2\n      pop\n        /* \"#utility.yul\":24851:24944   */\n      tag_594\n        /* \"#utility.yul\":24940:24943   */\n      dup3\n        /* \"#utility.yul\":24851:24944   */\n      tag_375\n      jump\t// in\n    tag_594:\n        /* \"#utility.yul\":24969:24971   */\n      0x20\n        /* \"#utility.yul\":24964:24967   */\n      dup3\n        /* \"#utility.yul\":24960:24972   */\n      add\n        /* \"#utility.yul\":24953:24972   */\n      swap1\n      pop\n        /* \"#utility.yul\":24612:24978   */\n      swap2\n      swap1\n      pop\n      jump\t// out\n        /* \"#utility.yul\":24984:25403   */\n    tag_214:\n        /* \"#utility.yul\":25150:25154   */\n      0x00\n        /* \"#utility.yul\":25188:25190   */\n      0x20\n        /* \"#utility.yul\":25177:25186   */\n      dup3\n        /* \"#utility.yul\":25173:25191   */\n      add\n        /* \"#utility.yul\":25165:25191   */\n      swap1\n      pop\n        /* \"#utility.yul\":25237:25246   */\n      dup2\n        /* \"#utility.yul\":25231:25235   */\n      dup2\n        /* \"#utility.yul\":25227:25247   */\n      sub\n        /* \"#utility.yul\":25223:25224   */\n      0x00\n        /* \"#utility.yul\":25212:25221   */\n      dup4\n        /* \"#utility.yul\":25208:25225   */\n      add\n        /* \"#utility.yul\":25201:25248   */\n      mstore\n        /* \"#utility.yul\":25265:25396   */\n      tag_596\n        /* \"#utility.yul\":25391:25395   */\n      dup2\n        /* \"#utility.yul\":25265:25396   */\n      tag_376\n      jump\t// in\n    tag_596:\n        /* \"#utility.yul\":25257:25396   */\n      swap1\n      pop\n        /* \"#utility.yul\":24984:25403   */\n      swap2\n      swap1\n      pop\n      jump\t// out\n        /* \"#utility.yul\":25409:25579   */\n    tag_377:\n        /* \"#utility.yul\":25549:25571   */\n      0x496e73756666696369656e742062616c616e6365000000000000000000000000\n        /* \"#utility.yul\":25545:25546   */\n      0x00\n        /* \"#utility.yul\":25537:25543   */\n      dup3\n        /* \"#utility.yul\":25533:25547   */\n      add\n        /* \"#utility.yul\":25526:25572   */\n      mstore\n        /* \"#utility.yul\":25409:25579   */\n      pop\n      jump\t// out\n        /* \"#utility.yul\":25585:25951   */\n    tag_378:\n        /* \"#utility.yul\":25727:25730   */\n      0x00\n        /* \"#utility.yul\":25748:25815   */\n      tag_599\n        /* \"#utility.yul\":25812:25814   */\n      0x14\n        /* \"#utility.yul\":25807:25810   */\n      dup4\n        /* \"#utility.yul\":25748:25815   */\n      tag_345\n      jump\t// in\n    tag_599:\n        /* \"#utility.yul\":25741:25815   */\n      swap2\n      pop\n        /* \"#utility.yul\":25824:25917   */\n      tag_600\n        /* \"#utility.yul\":25913:25916   */\n      dup3\n        /* \"#utility.yul\":25824:25917   */\n      tag_377\n      jump\t// in\n    tag_600:\n        /* \"#utility.yul\":25942:25944   */\n      0x20\n        /* \"#utility.yul\":25937:25940   */\n      dup3\n        /* \"#utility.yul\":25933:25945   */\n      add\n        /* \"#utility.yul\":25926:25945   */\n      swap1\n      pop\n        /* \"#utility.yul\":25585:25951   */\n      swap2\n      swap1\n      pop\n      jump\t// out\n        /* \"#utility.yul\":25957:26376   */\n    tag_221:\n        /* \"#utility.yul\":26123:26127   */\n      0x00\n        /* \"#utility.yul\":26161:26163   */\n      0x20\n        /* \"#utility.yul\":26150:26159   */\n      dup3\n        /* \"#utility.yul\":26146:26164   */\n      add\n        /* \"#utility.yul\":26138:26164   */\n      swap1\n      pop\n        /* \"#utility.yul\":26210:26219   */\n      dup2\n        /* \"#utility.yul\":26204:26208   */\n      dup2\n        /* \"#utility.yul\":26200:26220   */\n      sub\n        /* \"#utility.yul\":26196:26197   */\n      0x00\n        /* \"#utility.yul\":26185:26194   */\n      dup4\n        /* \"#utility.yul\":26181:26198   */\n      add\n        /* \"#utility.yul\":26174:26221   */\n      mstore\n        /* \"#utility.yul\":26238:26369   */\n      tag_602\n        /* \"#utility.yul\":26364:26368   */\n      dup2\n        /* \"#utility.yul\":26238:26369   */\n      tag_378\n      jump\t// in\n    tag_602:\n        /* \"#utility.yul\":26230:26369   */\n      swap1\n      pop\n        /* \"#utility.yul\":25957:26376   */\n      swap2\n      swap1\n      pop\n      jump\t// out\n        /* \"#utility.yul\":26382:26630   */\n    tag_379:\n        /* \"#utility.yul\":26522:26556   */\n      0x54696d652063616e206f6e6c7920626520696e206576656e206d696e75746573\n        /* \"#utility.yul\":26518:26519   */\n      0x00\n        /* \"#utility.yul\":26510:26516   */\n      dup3\n        /* \"#utility.yul\":26506:26520   */\n      add\n        /* \"#utility.yul\":26499:26557   */\n      mstore\n        /* \"#utility.yul\":26591:26622   */\n      0x20616e64206c657373207468616e206f7220657175616c20746f203130000000\n        /* \"#utility.yul\":26586:26588   */\n      0x20\n        /* \"#utility.yul\":26578:26584   */\n      dup3\n        /* \"#utility.yul\":26574:26589   */\n      add\n        /* \"#utility.yul\":26567:26623   */\n      mstore\n        /* \"#utility.yul\":26382:26630   */\n      pop\n      jump\t// out\n        /* \"#utility.yul\":26636:27002   */\n    tag_380:\n        /* \"#utility.yul\":26778:26781   */\n      0x00\n        /* \"#utility.yul\":26799:26866   */\n      tag_605\n        /* \"#utility.yul\":26863:26865   */\n      0x3d\n        /* \"#utility.yul\":26858:26861   */\n      dup4\n        /* \"#utility.yul\":26799:26866   */\n      tag_345\n      jump\t// in\n    tag_605:\n        /* \"#utility.yul\":26792:26866   */\n      swap2\n      pop\n        /* \"#utility.yul\":26875:26968   */\n      tag_606\n        /* \"#utility.yul\":26964:26967   */\n      dup3\n        /* \"#utility.yul\":26875:26968   */\n      tag_379\n      jump\t// in\n    tag_606:\n        /* \"#utility.yul\":26993:26995   */\n      0x40\n        /* \"#utility.yul\":26988:26991   */\n      dup3\n        /* \"#utility.yul\":26984:26996   */\n      add\n        /* \"#utility.yul\":26977:26996   */\n      swap1\n      pop\n        /* \"#utility.yul\":26636:27002   */\n      swap2\n      swap1\n      pop\n      jump\t// out\n        /* \"#utility.yul\":27008:27427   */\n    tag_228:\n        /* \"#utility.yul\":27174:27178   */\n      0x00\n        /* \"#utility.yul\":27212:27214   */\n      0x20\n        /* \"#utility.yul\":27201:27210   */\n      dup3\n        /* \"#utility.yul\":27197:27215   */\n      add\n        /* \"#utility.yul\":27189:27215   */\n      swap1\n      pop\n        /* \"#utility.yul\":27261:27270   */\n      dup2\n        /* \"#utility.yul\":27255:27259   */\n      dup2\n        /* \"#utility.yul\":27251:27271   */\n      sub\n        /* \"#utility.yul\":27247:27248   */\n      0x00\n        /* \"#utility.yul\":27236:27245   */\n      dup4\n        /* \"#utility.yul\":27232:27249   */\n      add\n        /* \"#utility.yul\":27225:27272   */\n      mstore\n        /* \"#utility.yul\":27289:27420   */\n      tag_608\n        /* \"#utility.yul\":27415:27419   */\n      dup2\n        /* \"#utility.yul\":27289:27420   */\n      tag_380\n      jump\t// in\n    tag_608:\n        /* \"#utility.yul\":27281:27420   */\n      swap1\n      pop\n        /* \"#utility.yul\":27008:27427   */\n      swap2\n      swap1\n      pop\n      jump\t// out\n        /* \"#utility.yul\":27433:27875   */\n    tag_230:\n        /* \"#utility.yul\":27582:27586   */\n      0x00\n        /* \"#utility.yul\":27620:27622   */\n      0x60\n        /* \"#utility.yul\":27609:27618   */\n      dup3\n        /* \"#utility.yul\":27605:27623   */\n      add\n        /* \"#utility.yul\":27597:27623   */\n      swap1\n      pop\n        /* \"#utility.yul\":27633:27704   */\n      tag_610\n        /* \"#utility.yul\":27701:27702   */\n      0x00\n        /* \"#utility.yul\":27690:27699   */\n      dup4\n        /* \"#utility.yul\":27686:27703   */\n      add\n        /* \"#utility.yul\":27677:27683   */\n      dup7\n        /* \"#utility.yul\":27633:27704   */\n      tag_327\n      jump\t// in\n    tag_610:\n        /* \"#utility.yul\":27714:27786   */\n      tag_611\n        /* \"#utility.yul\":27782:27784   */\n      0x20\n        /* \"#utility.yul\":27771:27780   */\n      dup4\n        /* \"#utility.yul\":27767:27785   */\n      add\n        /* \"#utility.yul\":27758:27764   */\n      dup6\n        /* \"#utility.yul\":27714:27786   */\n      tag_327\n      jump\t// in\n    tag_611:\n        /* \"#utility.yul\":27796:27868   */\n      tag_612\n        /* \"#utility.yul\":27864:27866   */\n      0x40\n        /* \"#utility.yul\":27853:27862   */\n      dup4\n        /* \"#utility.yul\":27849:27867   */\n      add\n        /* \"#utility.yul\":27840:27846   */\n      dup5\n        /* \"#utility.yul\":27796:27868   */\n      tag_328\n      jump\t// in\n    tag_612:\n        /* \"#utility.yul\":27433:27875   */\n      swap5\n      swap4\n      pop\n      pop\n      pop\n      pop\n      jump\t// out\n        /* \"#utility.yul\":27881:28291   */\n    tag_260:\n        /* \"#utility.yul\":27921:27928   */\n      0x00\n        /* \"#utility.yul\":27944:27964   */\n      tag_614\n        /* \"#utility.yul\":27962:27963   */\n      dup3\n        /* \"#utility.yul\":27944:27964   */\n      tag_322\n      jump\t// in\n    tag_614:\n        /* \"#utility.yul\":27939:27964   */\n      swap2\n      pop\n        /* \"#utility.yul\":27978:27998   */\n      tag_615\n        /* \"#utility.yul\":27996:27997   */\n      dup4\n        /* \"#utility.yul\":27978:27998   */\n      tag_322\n      jump\t// in\n    tag_615:\n        /* \"#utility.yul\":27973:27998   */\n      swap3\n      pop\n        /* \"#utility.yul\":28033:28034   */\n      dup3\n        /* \"#utility.yul\":28030:28031   */\n      dup3\n        /* \"#utility.yul\":28026:28035   */\n      mul\n        /* \"#utility.yul\":28055:28085   */\n      tag_616\n        /* \"#utility.yul\":28073:28084   */\n      dup2\n        /* \"#utility.yul\":28055:28085   */\n      tag_322\n      jump\t// in\n    tag_616:\n        /* \"#utility.yul\":28044:28085   */\n      swap2\n      pop\n        /* \"#utility.yul\":28234:28235   */\n      dup3\n        /* \"#utility.yul\":28225:28232   */\n      dup3\n        /* \"#utility.yul\":28221:28236   */\n      div\n        /* \"#utility.yul\":28218:28219   */\n      dup5\n        /* \"#utility.yul\":28215:28237   */\n      eq\n        /* \"#utility.yul\":28195:28196   */\n      dup4\n        /* \"#utility.yul\":28188:28197   */\n      iszero\n        /* \"#utility.yul\":28168:28251   */\n      or\n        /* \"#utility.yul\":28145:28284   */\n      tag_617\n      jumpi\n        /* \"#utility.yul\":28264:28282   */\n      tag_618\n      tag_348\n      jump\t// in\n    tag_618:\n        /* \"#utility.yul\":28145:28284   */\n    tag_617:\n        /* \"#utility.yul\":27929:28291   */\n      pop\n        /* \"#utility.yul\":27881:28291   */\n      swap3\n      swap2\n      pop\n      pop\n      jump\t// out\n        /* \"#utility.yul\":28297:28477   */\n    tag_381:\n        /* \"#utility.yul\":28345:28422   */\n      0x4e487b7100000000000000000000000000000000000000000000000000000000\n        /* \"#utility.yul\":28342:28343   */\n      0x00\n        /* \"#utility.yul\":28335:28423   */\n      mstore\n        /* \"#utility.yul\":28442:28446   */\n      0x12\n        /* \"#utility.yul\":28439:28440   */\n      0x04\n        /* \"#utility.yul\":28432:28447   */\n      mstore\n        /* \"#utility.yul\":28466:28470   */\n      0x24\n        /* \"#utility.yul\":28463:28464   */\n      0x00\n        /* \"#utility.yul\":28456:28471   */\n      revert\n        /* \"#utility.yul\":28483:28668   */\n    tag_264:\n        /* \"#utility.yul\":28523:28524   */\n      0x00\n        /* \"#utility.yul\":28540:28560   */\n      tag_621\n        /* \"#utility.yul\":28558:28559   */\n      dup3\n        /* \"#utility.yul\":28540:28560   */\n      tag_322\n      jump\t// in\n    tag_621:\n        /* \"#utility.yul\":28535:28560   */\n      swap2\n      pop\n        /* \"#utility.yul\":28574:28594   */\n      tag_622\n        /* \"#utility.yul\":28592:28593   */\n      dup4\n        /* \"#utility.yul\":28574:28594   */\n      tag_322\n      jump\t// in\n    tag_622:\n        /* \"#utility.yul\":28569:28594   */\n      swap3\n      pop\n        /* \"#utility.yul\":28613:28614   */\n      dup3\n        /* \"#utility.yul\":28603:28638   */\n      tag_623\n      jumpi\n        /* \"#utility.yul\":28618:28636   */\n      tag_624\n      tag_381\n      jump\t// in\n    tag_624:\n        /* \"#utility.yul\":28603:28638   */\n    tag_623:\n        /* \"#utility.yul\":28660:28661   */\n      dup3\n        /* \"#utility.yul\":28657:28658   */\n      dup3\n        /* \"#utility.yul\":28653:28662   */\n      div\n        /* \"#utility.yul\":28648:28662   */\n      swap1\n      pop\n        /* \"#utility.yul\":28483:28668   */\n      swap3\n      swap2\n      pop\n      pop\n      jump\t// out\n        /* \"#utility.yul\":28674:28842   */\n    tag_382:\n        /* \"#utility.yul\":28814:28834   */\n      0x496e76616c6964207374616b696e672049440000000000000000000000000000\n        /* \"#utility.yul\":28810:28811   */\n      0x00\n        /* \"#utility.yul\":28802:28808   */\n      dup3\n        /* \"#utility.yul\":28798:28812   */\n      add\n        /* \"#utility.yul\":28791:28835   */\n      mstore\n        /* \"#utility.yul\":28674:28842   */\n      pop\n      jump\t// out\n        /* \"#utility.yul\":28848:29214   */\n    tag_383:\n        /* \"#utility.yul\":28990:28993   */\n      0x00\n        /* \"#utility.yul\":29011:29078   */\n      tag_627\n        /* \"#utility.yul\":29075:29077   */\n      0x12\n        /* \"#utility.yul\":29070:29073   */\n      dup4\n        /* \"#utility.yul\":29011:29078   */\n      tag_345\n      jump\t// in\n    tag_627:\n        /* \"#utility.yul\":29004:29078   */\n      swap2\n      pop\n        /* \"#utility.yul\":29087:29180   */\n      tag_628\n        /* \"#utility.yul\":29176:29179   */\n      dup3\n        /* \"#utility.yul\":29087:29180   */\n      tag_382\n      jump\t// in\n    tag_628:\n        /* \"#utility.yul\":29205:29207   */\n      0x20\n        /* \"#utility.yul\":29200:29203   */\n      dup3\n        /* \"#utility.yul\":29196:29208   */\n      add\n        /* \"#utility.yul\":29189:29208   */\n      swap1\n      pop\n        /* \"#utility.yul\":28848:29214   */\n      swap2\n      swap1\n      pop\n      jump\t// out\n        /* \"#utility.yul\":29220:29639   */\n    tag_297:\n        /* \"#utility.yul\":29386:29390   */\n      0x00\n        /* \"#utility.yul\":29424:29426   */\n      0x20\n        /* \"#utility.yul\":29413:29422   */\n      dup3\n        /* \"#utility.yul\":29409:29427   */\n      add\n        /* \"#utility.yul\":29401:29427   */\n      swap1\n      pop\n        /* \"#utility.yul\":29473:29482   */\n      dup2\n        /* \"#utility.yul\":29467:29471   */\n      dup2\n        /* \"#utility.yul\":29463:29483   */\n      sub\n        /* \"#utility.yul\":29459:29460   */\n      0x00\n        /* \"#utility.yul\":29448:29457   */\n      dup4\n        /* \"#utility.yul\":29444:29461   */\n      add\n        /* \"#utility.yul\":29437:29484   */\n      mstore\n        /* \"#utility.yul\":29501:29632   */\n      tag_630\n        /* \"#utility.yul\":29627:29631   */\n      dup2\n        /* \"#utility.yul\":29501:29632   */\n      tag_383\n      jump\t// in\n    tag_630:\n        /* \"#utility.yul\":29493:29632   */\n      swap1\n      pop\n        /* \"#utility.yul\":29220:29639   */\n      swap2\n      swap1\n      pop\n      jump\t// out\n        /* \"#utility.yul\":29645:29870   */\n    tag_384:\n        /* \"#utility.yul\":29785:29819   */\n      0x4f776e61626c653a206e6577206f776e657220697320746865207a65726f2061\n        /* \"#utility.yul\":29781:29782   */\n      0x00\n        /* \"#utility.yul\":29773:29779   */\n      dup3\n        /* \"#utility.yul\":29769:29783   */\n      add\n        /* \"#utility.yul\":29762:29820   */\n      mstore\n        /* \"#utility.yul\":29854:29862   */\n      0x6464726573730000000000000000000000000000000000000000000000000000\n        /* \"#utility.yul\":29849:29851   */\n      0x20\n        /* \"#utility.yul\":29841:29847   */\n      dup3\n        /* \"#utility.yul\":29837:29852   */\n      add\n        /* \"#utility.yul\":29830:29863   */\n      mstore\n        /* \"#utility.yul\":29645:29870   */\n      pop\n      jump\t// out\n        /* \"#utility.yul\":29876:30242   */\n    tag_385:\n        /* \"#utility.yul\":30018:30021   */\n      0x00\n        /* \"#utility.yul\":30039:30106   */\n      tag_633\n        /* \"#utility.yul\":30103:30105   */\n      0x26\n        /* \"#utility.yul\":30098:30101   */\n      dup4\n        /* \"#utility.yul\":30039:30106   */\n      tag_345\n      jump\t// in\n    tag_633:\n        /* \"#utility.yul\":30032:30106   */\n      swap2\n      pop\n        /* \"#utility.yul\":30115:30208   */\n      tag_634\n        /* \"#utility.yul\":30204:30207   */\n      dup3\n        /* \"#utility.yul\":30115:30208   */\n      tag_384\n      jump\t// in\n    tag_634:\n        /* \"#utility.yul\":30233:30235   */\n      0x40\n        /* \"#utility.yul\":30228:30231   */\n      dup3\n        /* \"#utility.yul\":30224:30236   */\n      add\n        /* \"#utility.yul\":30217:30236   */\n      swap1\n      pop\n        /* \"#utility.yul\":29876:30242   */\n      swap2\n      swap1\n      pop\n      jump\t// out\n        /* \"#utility.yul\":30248:30667   */\n    tag_308:\n        /* \"#utility.yul\":30414:30418   */\n      0x00\n        /* \"#utility.yul\":30452:30454   */\n      0x20\n        /* \"#utility.yul\":30441:30450   */\n      dup3\n        /* \"#utility.yul\":30437:30455   */\n      add\n        /* \"#utility.yul\":30429:30455   */\n      swap1\n      pop\n        /* \"#utility.yul\":30501:30510   */\n      dup2\n        /* \"#utility.yul\":30495:30499   */\n      dup2\n        /* \"#utility.yul\":30491:30511   */\n      sub\n        /* \"#utility.yul\":30487:30488   */\n      0x00\n        /* \"#utility.yul\":30476:30485   */\n      dup4\n        /* \"#utility.yul\":30472:30489   */\n      add\n        /* \"#utility.yul\":30465:30512   */\n      mstore\n        /* \"#utility.yul\":30529:30660   */\n      tag_636\n        /* \"#utility.yul\":30655:30659   */\n      dup2\n        /* \"#utility.yul\":30529:30660   */\n      tag_385\n      jump\t// in\n    tag_636:\n        /* \"#utility.yul\":30521:30660   */\n      swap1\n      pop\n        /* \"#utility.yul\":30248:30667   */\n      swap2\n      swap1\n      pop\n      jump\t// out\n        /* \"#utility.yul\":30673:30855   */\n    tag_386:\n        /* \"#utility.yul\":30813:30847   */\n      0x4f776e61626c653a2063616c6c6572206973206e6f7420746865206f776e6572\n        /* \"#utility.yul\":30809:30810   */\n      0x00\n        /* \"#utility.yul\":30801:30807   */\n      dup3\n        /* \"#utility.yul\":30797:30811   */\n      add\n        /* \"#utility.yul\":30790:30848   */\n      mstore\n        /* \"#utility.yul\":30673:30855   */\n      pop\n      jump\t// out\n        /* \"#utility.yul\":30861:31227   */\n    tag_387:\n        /* \"#utility.yul\":31003:31006   */\n      0x00\n        /* \"#utility.yul\":31024:31091   */\n      tag_639\n        /* \"#utility.yul\":31088:31090   */\n      0x20\n        /* \"#utility.yul\":31083:31086   */\n      dup4\n        /* \"#utility.yul\":31024:31091   */\n      tag_345\n      jump\t// in\n    tag_639:\n        /* \"#utility.yul\":31017:31091   */\n      swap2\n      pop\n        /* \"#utility.yul\":31100:31193   */\n      tag_640\n        /* \"#utility.yul\":31189:31192   */\n      dup3\n        /* \"#utility.yul\":31100:31193   */\n      tag_386\n      jump\t// in\n    tag_640:\n        /* \"#utility.yul\":31218:31220   */\n      0x20\n        /* \"#utility.yul\":31213:31216   */\n      dup3\n        /* \"#utility.yul\":31209:31221   */\n      add\n        /* \"#utility.yul\":31202:31221   */\n      swap1\n      pop\n        /* \"#utility.yul\":30861:31227   */\n      swap2\n      swap1\n      pop\n      jump\t// out\n        /* \"#utility.yul\":31233:31652   */\n    tag_316:\n        /* \"#utility.yul\":31399:31403   */\n      0x00\n        /* \"#utility.yul\":31437:31439   */\n      0x20\n        /* \"#utility.yul\":31426:31435   */\n      dup3\n        /* \"#utility.yul\":31422:31440   */\n      add\n        /* \"#utility.yul\":31414:31440   */\n      swap1\n      pop\n        /* \"#utility.yul\":31486:31495   */\n      dup2\n        /* \"#utility.yul\":31480:31484   */\n      dup2\n        /* \"#utility.yul\":31476:31496   */\n      sub\n        /* \"#utility.yul\":31472:31473   */\n      0x00\n        /* \"#utility.yul\":31461:31470   */\n      dup4\n        /* \"#utility.yul\":31457:31474   */\n      add\n        /* \"#utility.yul\":31450:31497   */\n      mstore\n        /* \"#utility.yul\":31514:31645   */\n      tag_642\n        /* \"#utility.yul\":31640:31644   */\n      dup2\n        /* \"#utility.yul\":31514:31645   */\n      tag_387\n      jump\t// in\n    tag_642:\n        /* \"#utility.yul\":31506:31645   */\n      swap1\n      pop\n        /* \"#utility.yul\":31233:31652   */\n      swap2\n      swap1\n      pop\n      jump\t// out\n\n    auxdata: 0xa2646970667358221220ff524d987dff4b4a037601e2f3dc0251ff9c636dab267f223d15f701f5fe71b864736f6c63430008140033\n}\n",
				"bytecode": {
					"linkReferences": {},
					"object": "608060405234801562000010575f80fd5b5060405162002d2a38038062002d2a8339818101604052810190620000369190620001ca565b620000566200004a6200009d60201b60201c565b620000a460201b60201c565b8060015f6101000a81548173ffffffffffffffffffffffffffffffffffffffff021916908373ffffffffffffffffffffffffffffffffffffffff16021790555050620001fa565b5f33905090565b5f805f9054906101000a900473ffffffffffffffffffffffffffffffffffffffff169050815f806101000a81548173ffffffffffffffffffffffffffffffffffffffff021916908373ffffffffffffffffffffffffffffffffffffffff1602179055508173ffffffffffffffffffffffffffffffffffffffff168173ffffffffffffffffffffffffffffffffffffffff167f8be0079c531659141344cd1fd0a4f28419497f9722a3daafe3b4186f6b6457e060405160405180910390a35050565b5f80fd5b5f73ffffffffffffffffffffffffffffffffffffffff82169050919050565b5f620001948262000169565b9050919050565b620001a68162000188565b8114620001b1575f80fd5b50565b5f81519050620001c4816200019b565b92915050565b5f60208284031215620001e257620001e162000165565b5b5f620001f184828501620001b4565b91505092915050565b612b2280620002085f395ff3fe608060405234801561000f575f80fd5b5060043610610109575f3560e01c80638da5cb5b116100a0578063d313eb131161006f578063d313eb13146102df578063dcb513341461030f578063eab88bf51461033f578063f2fde38b14610373578063fc0c546a1461038f57610109565b80638da5cb5b14610243578063b93a89f714610261578063bf8f021814610291578063d2d7231f146102af57610109565b806368a12b3a116100dc57806368a12b3a146101a8578063715018a6146101d95780637ae2b5c7146101e35780637b0472f01461021357610109565b80630962ef791461010d57806323b221a0146101295780633d1f924e1461014557806354f9abfa14610178575b5f80fd5b61012760048036038101906101229190611afc565b6103ad565b005b610143600480360381019061013e9190611afc565b6107f2565b005b61015f600480360381019061015a9190611afc565b610ca5565b60405161016f9493929190611b75565b60405180910390f35b610192600480360381019061018d9190611be2565b610cff565b60405161019f9190611cc4565b60405180910390f35b6101c260048036038101906101bd9190611afc565b610d92565b6040516101d0929190611ce4565b60405180910390f35b6101e1610f33565b005b6101fd60048036038101906101f89190611d0b565b610f46565b60405161020a9190611d49565b60405180910390f35b61022d60048036038101906102289190611d0b565b610f5e565b60405161023a9190611dc4565b60405180910390f35b61024b611375565b6040516102589190611ddd565b60405180910390f35b61027b60048036038101906102769190611afc565b61139c565b6040516102889190611dc4565b60405180910390f35b610299611454565b6040516102a69190611d49565b60405180910390f35b6102c960048036038101906102c49190611afc565b6114f3565b6040516102d69190611d49565b60405180910390f35b6102f960048036038101906102f49190611df6565b611730565b6040516103069190611d49565b60405180910390f35b61032960048036038101906103249190611afc565b61175b565b6040516103369190611d49565b60405180910390f35b61035960048036038101906103549190611afc565b611770565b60405161036a959493929190611e34565b60405180910390f35b61038d60048036038101906103889190611be2565b61189e565b005b610397611920565b6040516103a49190611ee0565b60405180910390f35b8060028054905010156103f5576040517f08c379a00000000000000000000000000000000000000000000000000000000081526004016103ec90611f53565b60405180910390fd5b5f60026001836104059190611f9e565b8154811061041657610415611fd1565b5b905f5260205f2090600402016040518060800160405290815f82015f9054906101000a900473ffffffffffffffffffffffffffffffffffffffff1673ffffffffffffffffffffffffffffffffffffffff1673ffffffffffffffffffffffffffffffffffffffff168152602001600182015481526020016002820154815260200160038201548152505090505f73ffffffffffffffffffffffffffffffffffffffff16815f015173ffffffffffffffffffffffffffffffffffffffff1603610512576040517f08c379a00000000000000000000000000000000000000000000000000000000081526004016105099061206e565b60405180910390fd5b805f015173ffffffffffffffffffffffffffffffffffffffff163373ffffffffffffffffffffffffffffffffffffffff1614610583576040517f08c379a000000000000000000000000000000000000000000000000000000000815260040161057a906120fc565b60405180910390fd5b5f81606001518260400151610598919061211a565b426105a39190611f9e565b90505f81116105e7576040517f08c379a00000000000000000000000000000000000000000000000000000000081526004016105de906121e3565b60405180910390fd5b5f6105f1846114f3565b90508060015f9054906101000a900473ffffffffffffffffffffffffffffffffffffffff1673ffffffffffffffffffffffffffffffffffffffff166370a08231306040518263ffffffff1660e01b815260040161064e9190611ddd565b602060405180830381865afa158015610669573d5f803e3d5ffd5b505050506040513d601f19601f8201168201806040525081019061068d9190612215565b10156106ce576040517f08c379a00000000000000000000000000000000000000000000000000000000081526004016106c5906122d6565b60405180910390fd5b4260045f8681526020019081526020015f208190555060015f9054906101000a900473ffffffffffffffffffffffffffffffffffffffff1673ffffffffffffffffffffffffffffffffffffffff1663a9059cbb845f0151836040518363ffffffff1660e01b81526004016107439291906122f4565b6020604051808303815f875af115801561075f573d5f803e3d5ffd5b505050506040513d601f19601f820116820180604052508101906107839190612350565b505f60026001866107949190611f9e565b815481106107a5576107a4611fd1565b5b905f5260205f209060040201600301819055505f60026001866107c89190611f9e565b815481106107d9576107d8611fd1565b5b905f5260205f2090600402016002018190555050505050565b5f60026001836108029190611f9e565b8154811061081357610812611fd1565b5b905f5260205f2090600402016040518060800160405290815f82015f9054906101000a900473ffffffffffffffffffffffffffffffffffffffff1673ffffffffffffffffffffffffffffffffffffffff1673ffffffffffffffffffffffffffffffffffffffff168152602001600182015481526020016002820154815260200160038201548152505090505f73ffffffffffffffffffffffffffffffffffffffff16815f015173ffffffffffffffffffffffffffffffffffffffff160361090f576040517f08c379a0000000000000000000000000000000000000000000000000000000008152600401610906906123c5565b60405180910390fd5b805f015173ffffffffffffffffffffffffffffffffffffffff163373ffffffffffffffffffffffffffffffffffffffff1614610980576040517f08c379a000000000000000000000000000000000000000000000000000000000815260040161097790612453565b60405180910390fd5b5f60026001846109909190611f9e565b815481106109a1576109a0611fd1565b5b905f5260205f20906004020160030154146109f1576040517f08c379a00000000000000000000000000000000000000000000000000000000081526004016109e8906124e1565b60405180910390fd5b607860045f8481526020019081526020015f205442610a109190611f9e565b1015610a51576040517f08c379a0000000000000000000000000000000000000000000000000000000008152600401610a4890612595565b60405180910390fd5b5f60045f8481526020019081526020015f20819055505f816020015190508060015f9054906101000a900473ffffffffffffffffffffffffffffffffffffffff1673ffffffffffffffffffffffffffffffffffffffff166370a08231306040518263ffffffff1660e01b8152600401610aca9190611ddd565b602060405180830381865afa158015610ae5573d5f803e3d5ffd5b505050506040513d601f19601f82011682018060405250810190610b099190612215565b1015610b4a576040517f08c379a0000000000000000000000000000000000000000000000000000000008152600401610b4190612623565b60405180910390fd5b60015f9054906101000a900473ffffffffffffffffffffffffffffffffffffffff1673ffffffffffffffffffffffffffffffffffffffff1663a9059cbb835f0151836040518363ffffffff1660e01b8152600401610ba99291906122f4565b6020604051808303815f875af1158015610bc5573d5f803e3d5ffd5b505050506040513d601f19601f82011682018060405250810190610be99190612350565b505f6002600185610bfa9190611f9e565b81548110610c0b57610c0a611fd1565b5b905f5260205f2090600402015f015f6101000a81548173ffffffffffffffffffffffffffffffffffffffff021916908373ffffffffffffffffffffffffffffffffffffffff1602179055505f6002600185610c669190611f9e565b81548110610c7757610c76611fd1565b5b905f5260205f209060040201600101819055505f60045f8581526020019081526020015f2081905550505050565b60028181548110610cb4575f80fd5b905f5260205f2090600402015f91509050805f015f9054906101000a900473ffffffffffffffffffffffffffffffffffffffff16908060010154908060020154908060030154905084565b606060035f8373ffffffffffffffffffffffffffffffffffffffff1673ffffffffffffffffffffffffffffffffffffffff1681526020019081526020015f20805480602002602001604051908101604052809291908181526020018280548015610d8657602002820191905f5260205f20905b815481526020019060010190808311610d72575b50505050509050919050565b5f80826002805490501015610ddc576040517f08c379a0000000000000000000000000000000000000000000000000000000008152600401610dd3906126b1565b60405180910390fd5b5f6002600185610dec9190611f9e565b81548110610dfd57610dfc611fd1565b5b905f5260205f2090600402016040518060800160405290815f82015f9054906101000a900473ffffffffffffffffffffffffffffffffffffffff1673ffffffffffffffffffffffffffffffffffffffff1673ffffffffffffffffffffffffffffffffffffffff168152602001600182015481526020016002820154815260200160038201548152505090505f73ffffffffffffffffffffffffffffffffffffffff16815f015173ffffffffffffffffffffffffffffffffffffffff1603610ef9576040517f08c379a0000000000000000000000000000000000000000000000000000000008152600401610ef09061273f565b60405180910390fd5b5f816040015142610f0a9190611f9e565b90505f82606001519050610f1d866114f3565b610f278383610f46565b94509450505050915091565b610f3b611945565b610f445f6119c3565b565b5f818310610f545781610f56565b825b905092915050565b610f66611a8b565b5f8311610fa8576040517f08c379a0000000000000000000000000000000000000000000000000000000008152600401610f9f906127a7565b60405180910390fd5b8260015f9054906101000a900473ffffffffffffffffffffffffffffffffffffffff1673ffffffffffffffffffffffffffffffffffffffff166370a08231336040518263ffffffff1660e01b81526004016110039190611ddd565b602060405180830381865afa15801561101e573d5f803e3d5ffd5b505050506040513d601f19601f820116820180604052508101906110429190612215565b1015611083576040517f08c379a000000000000000000000000000000000000000000000000000000000815260040161107a9061280f565b60405180910390fd5b60028214806110925750600482145b8061109d5750600682145b806110a85750600882145b806110b35750600a82145b6110f2576040517f08c379a00000000000000000000000000000000000000000000000000000000081526004016110e99061289d565b60405180910390fd5b5f42905060015f9054906101000a900473ffffffffffffffffffffffffffffffffffffffff1673ffffffffffffffffffffffffffffffffffffffff166323b872dd3330876040518463ffffffff1660e01b8152600401611154939291906128bb565b6020604051808303815f875af1158015611170573d5f803e3d5ffd5b505050506040513d601f19601f820116820180604052508101906111949190612350565b50600260405180608001604052803373ffffffffffffffffffffffffffffffffffffffff16815260200186815260200185815260200183815250908060018154018082558091505060019003905f5260205f2090600402015f909190919091505f820151815f015f6101000a81548173ffffffffffffffffffffffffffffffffffffffff021916908373ffffffffffffffffffffffffffffffffffffffff16021790555060208201518160010155604082015181600201556060820151816003015550505f600280549050905060035f3373ffffffffffffffffffffffffffffffffffffffff1673ffffffffffffffffffffffffffffffffffffffff1681526020019081526020015f2081908060018154018082558091505060019003905f5260205f20015f909190919091505560026001826112d19190611f9e565b815481106112e2576112e1611fd1565b5b905f5260205f2090600402016040518060800160405290815f82015f9054906101000a900473ffffffffffffffffffffffffffffffffffffffff1673ffffffffffffffffffffffffffffffffffffffff1673ffffffffffffffffffffffffffffffffffffffff16815260200160018201548152602001600282015481526020016003820154815250509250505092915050565b5f805f9054906101000a900473ffffffffffffffffffffffffffffffffffffffff16905090565b6113a4611a8b565b60026001836113b39190611f9e565b815481106113c4576113c3611fd1565b5b905f5260205f2090600402016040518060800160405290815f82015f9054906101000a900473ffffffffffffffffffffffffffffffffffffffff1673ffffffffffffffffffffffffffffffffffffffff1673ffffffffffffffffffffffffffffffffffffffff16815260200160018201548152602001600282015481526020016003820154815250509050919050565b5f60015f9054906101000a900473ffffffffffffffffffffffffffffffffffffffff1673ffffffffffffffffffffffffffffffffffffffff166370a08231306040518263ffffffff1660e01b81526004016114af9190611ddd565b602060405180830381865afa1580156114ca573d5f803e3d5ffd5b505050506040513d601f19601f820116820180604052508101906114ee9190612215565b905090565b5f8060026001846115049190611f9e565b8154811061151557611514611fd1565b5b905f5260205f2090600402016040518060800160405290815f82015f9054906101000a900473ffffffffffffffffffffffffffffffffffffffff1673ffffffffffffffffffffffffffffffffffffffff1673ffffffffffffffffffffffffffffffffffffffff168152602001600182015481526020016002820154815260200160038201548152505090505f816060015190505f826040015190505f600283036115fd576064600185602001516115d885603c886115d391906128f0565b610f46565b6115e291906128f0565b6115ec91906128f0565b6115f6919061295e565b9050611724565b600483036116495760646002856020015161162485603c8861161f91906128f0565b610f46565b61162e91906128f0565b61163891906128f0565b611642919061295e565b9050611723565b600683036116955760646003856020015161167085603c8861166b91906128f0565b610f46565b61167a91906128f0565b61168491906128f0565b61168e919061295e565b9050611722565b600883036116e1576064600485602001516116bc85603c886116b791906128f0565b610f46565b6116c691906128f0565b6116d091906128f0565b6116da919061295e565b9050611721565b60646005856020015161170085603c886116fb91906128f0565b610f46565b61170a91906128f0565b61171491906128f0565b61171e919061295e565b90505b5b5b5b80945050505050919050565b6003602052815f5260405f208181548110611749575f80fd5b905f5260205f20015f91509150505481565b6004602052805f5260405f205f915090505481565b5f805f805f6002805490508611156117bd576040517f08c379a00000000000000000000000000000000000000000000000000000000081526004016117b4906129d8565b60405180910390fd5b5f60026001886117cd9190611f9e565b815481106117de576117dd611fd1565b5b905f5260205f2090600402016040518060800160405290815f82015f9054906101000a900473ffffffffffffffffffffffffffffffffffffffff1673ffffffffffffffffffffffffffffffffffffffff1673ffffffffffffffffffffffffffffffffffffffff168152602001600182015481526020016002820154815260200160038201548152505090505f611873886114f3565b9050815f01518260200151836060015184604001518496509650965096509650505091939590929450565b6118a6611945565b5f73ffffffffffffffffffffffffffffffffffffffff168173ffffffffffffffffffffffffffffffffffffffff1603611914576040517f08c379a000000000000000000000000000000000000000000000000000000000815260040161190b90612a66565b60405180910390fd5b61191d816119c3565b50565b60015f9054906101000a900473ffffffffffffffffffffffffffffffffffffffff1681565b61194d611a84565b73ffffffffffffffffffffffffffffffffffffffff1661196b611375565b73ffffffffffffffffffffffffffffffffffffffff16146119c1576040517f08c379a00000000000000000000000000000000000000000000000000000000081526004016119b890612ace565b60405180910390fd5b565b5f805f9054906101000a900473ffffffffffffffffffffffffffffffffffffffff169050815f806101000a81548173ffffffffffffffffffffffffffffffffffffffff021916908373ffffffffffffffffffffffffffffffffffffffff1602179055508173ffffffffffffffffffffffffffffffffffffffff168173ffffffffffffffffffffffffffffffffffffffff167f8be0079c531659141344cd1fd0a4f28419497f9722a3daafe3b4186f6b6457e060405160405180910390a35050565b5f33905090565b60405180608001604052805f73ffffffffffffffffffffffffffffffffffffffff1681526020015f81526020015f81526020015f81525090565b5f80fd5b5f819050919050565b611adb81611ac9565b8114611ae5575f80fd5b50565b5f81359050611af681611ad2565b92915050565b5f60208284031215611b1157611b10611ac5565b5b5f611b1e84828501611ae8565b91505092915050565b5f73ffffffffffffffffffffffffffffffffffffffff82169050919050565b5f611b5082611b27565b9050919050565b611b6081611b46565b82525050565b611b6f81611ac9565b82525050565b5f608082019050611b885f830187611b57565b611b956020830186611b66565b611ba26040830185611b66565b611baf6060830184611b66565b95945050505050565b611bc181611b46565b8114611bcb575f80fd5b50565b5f81359050611bdc81611bb8565b92915050565b5f60208284031215611bf757611bf6611ac5565b5b5f611c0484828501611bce565b91505092915050565b5f81519050919050565b5f82825260208201905092915050565b5f819050602082019050919050565b611c3f81611ac9565b82525050565b5f611c508383611c36565b60208301905092915050565b5f602082019050919050565b5f611c7282611c0d565b611c7c8185611c17565b9350611c8783611c27565b805f5b83811015611cb7578151611c9e8882611c45565b9750611ca983611c5c565b925050600181019050611c8a565b5085935050505092915050565b5f6020820190508181035f830152611cdc8184611c68565b905092915050565b5f604082019050611cf75f830185611b66565b611d046020830184611b66565b9392505050565b5f8060408385031215611d2157611d20611ac5565b5b5f611d2e85828601611ae8565b9250506020611d3f85828601611ae8565b9150509250929050565b5f602082019050611d5c5f830184611b66565b92915050565b611d6b81611b46565b82525050565b608082015f820151611d855f850182611d62565b506020820151611d986020850182611c36565b506040820151611dab6040850182611c36565b506060820151611dbe6060850182611c36565b50505050565b5f608082019050611dd75f830184611d71565b92915050565b5f602082019050611df05f830184611b57565b92915050565b5f8060408385031215611e0c57611e0b611ac5565b5b5f611e1985828601611bce565b9250506020611e2a85828601611ae8565b9150509250929050565b5f60a082019050611e475f830188611b57565b611e546020830187611b66565b611e616040830186611b66565b611e6e6060830185611b66565b611e7b6080830184611b66565b9695505050505050565b5f819050919050565b5f611ea8611ea3611e9e84611b27565b611e85565b611b27565b9050919050565b5f611eb982611e8e565b9050919050565b5f611eca82611eaf565b9050919050565b611eda81611ec0565b82525050565b5f602082019050611ef35f830184611ed1565b92915050565b5f82825260208201905092915050565b7f5468697320696420646f6573206e6f74206578697374000000000000000000005f82015250565b5f611f3d601683611ef9565b9150611f4882611f09565b602082019050919050565b5f6020820190508181035f830152611f6a81611f31565b9050919050565b7f4e487b71000000000000000000000000000000000000000000000000000000005f52601160045260245ffd5b5f611fa882611ac9565b9150611fb383611ac9565b9250828203905081811115611fcb57611fca611f71565b5b92915050565b7f4e487b71000000000000000000000000000000000000000000000000000000005f52603260045260245ffd5b7f596f75207573652074686973204944206265666f72652061742070726573656e5f8201527f742074696d65207468697320696420646f6573206e6f74206578697374000000602082015250565b5f612058603d83611ef9565b915061206382611ffe565b604082019050919050565b5f6020820190508181035f8301526120858161204c565b9050919050565b7f596f75206e6f7420636c61696d207468697320726577617264206265636175735f8201527f6520796f7520617265206e6f74206f776e6572206f6620746869732069640000602082015250565b5f6120e6603e83611ef9565b91506120f18261208c565b604082019050919050565b5f6020820190508181035f830152612113816120da565b9050919050565b5f61212482611ac9565b915061212f83611ac9565b925082820190508082111561214757612146611f71565b5b92915050565b7f596f7520646f6573206e6f7420636c61696d20726577617264206265636175735f8201527f65206d6174757269747920706572696f64206973206e6f7420636f6d706c657460208201527f6564000000000000000000000000000000000000000000000000000000000000604082015250565b5f6121cd604283611ef9565b91506121d88261214d565b606082019050919050565b5f6020820190508181035f8301526121fa816121c1565b9050919050565b5f8151905061220f81611ad2565b92915050565b5f6020828403121561222a57612229611ac5565b5b5f61223784828501612201565b91505092915050565b7f536f72727920636f6e74726163742068617665206e6f20656e6f75676820746f5f8201527f6b656e732e205765207265736f6c766520746869732070726f626c656d20736860208201527f6f72746c79000000000000000000000000000000000000000000000000000000604082015250565b5f6122c0604583611ef9565b91506122cb82612240565b606082019050919050565b5f6020820190508181035f8301526122ed816122b4565b9050919050565b5f6040820190506123075f830185611b57565b6123146020830184611b66565b9392505050565b5f8115159050919050565b61232f8161231b565b8114612339575f80fd5b50565b5f8151905061234a81612326565b92915050565b5f6020828403121561236557612364611ac5565b5b5f6123728482850161233c565b91505092915050565b7f207468697320696420646f6573206e6f742065786973740000000000000000005f82015250565b5f6123af601783611ef9565b91506123ba8261237b565b602082019050919050565b5f6020820190508181035f8301526123dc816123a3565b9050919050565b7f596f75206e6f7420636c61696d207468697320616d6f756e74206265636175735f8201527f6520796f7520617265206e6f74206f776e6572206f6620746869732069640000602082015250565b5f61243d603e83611ef9565b9150612448826123e3565b604082019050919050565b5f6020820190508181035f83015261246a81612431565b9050919050565b7f596f75206f6e6c7920636c61696d20616d6f756e7420616674657220636c61695f8201527f6d696e6720726577617264000000000000000000000000000000000000000000602082015250565b5f6124cb602b83611ef9565b91506124d682612471565b604082019050919050565b5f6020820190508181035f8301526124f8816124bf565b9050919050565b7f596f752063616e20636c61696d20616d6f756e74206f6e6c79206166746572205f8201527f32206d696e757465732066726f6d207468652074696d65206f6620436c61696d60208201527f2052657761726473000000000000000000000000000000000000000000000000604082015250565b5f61257f604883611ef9565b915061258a826124ff565b606082019050919050565b5f6020820190508181035f8301526125ac81612573565b9050919050565b7f536f72727920636f6e74726163742068617665206e6f20656e6f75676820746f5f8201527f6b656e7300000000000000000000000000000000000000000000000000000000602082015250565b5f61260d602483611ef9565b9150612618826125b3565b604082019050919050565b5f6020820190508181035f83015261263a81612601565b9050919050565b7f496e76616c696420696e7075743a20496e70757420696420646f65736e7420655f8201527f7869737400000000000000000000000000000000000000000000000000000000602082015250565b5f61269b602483611ef9565b91506126a682612641565b604082019050919050565b5f6020820190508181035f8301526126c88161268f565b9050919050565b7f54686973206164647265737320636f727265736f6e64696e6720746f206964205f8201527f697320616c726561647920757365640000000000000000000000000000000000602082015250565b5f612729602f83611ef9565b9150612734826126cf565b604082019050919050565b5f6020820190508181035f8301526127568161271d565b9050919050565b7f5374616b6520616d6f756e74206d757374206265206e6f6e2d7a65726f0000005f82015250565b5f612791601d83611ef9565b915061279c8261275d565b602082019050919050565b5f6020820190508181035f8301526127be81612785565b9050919050565b7f496e73756666696369656e742062616c616e63650000000000000000000000005f82015250565b5f6127f9601483611ef9565b9150612804826127c5565b602082019050919050565b5f6020820190508181035f830152612826816127ed565b9050919050565b7f54696d652063616e206f6e6c7920626520696e206576656e206d696e757465735f8201527f20616e64206c657373207468616e206f7220657175616c20746f203130000000602082015250565b5f612887603d83611ef9565b91506128928261282d565b604082019050919050565b5f6020820190508181035f8301526128b48161287b565b9050919050565b5f6060820190506128ce5f830186611b57565b6128db6020830185611b57565b6128e86040830184611b66565b949350505050565b5f6128fa82611ac9565b915061290583611ac9565b925082820261291381611ac9565b9150828204841483151761292a57612929611f71565b5b5092915050565b7f4e487b71000000000000000000000000000000000000000000000000000000005f52601260045260245ffd5b5f61296882611ac9565b915061297383611ac9565b92508261298357612982612931565b5b828204905092915050565b7f496e76616c6964207374616b696e6720494400000000000000000000000000005f82015250565b5f6129c2601283611ef9565b91506129cd8261298e565b602082019050919050565b5f6020820190508181035f8301526129ef816129b6565b9050919050565b7f4f776e61626c653a206e6577206f776e657220697320746865207a65726f20615f8201527f6464726573730000000000000000000000000000000000000000000000000000602082015250565b5f612a50602683611ef9565b9150612a5b826129f6565b604082019050919050565b5f6020820190508181035f830152612a7d81612a44565b9050919050565b7f4f776e61626c653a2063616c6c6572206973206e6f7420746865206f776e65725f82015250565b5f612ab8602083611ef9565b9150612ac382612a84565b602082019050919050565b5f6020820190508181035f830152612ae581612aac565b905091905056fea2646970667358221220ff524d987dff4b4a037601e2f3dc0251ff9c636dab267f223d15f701f5fe71b864736f6c63430008140033",
					"opcodes": "PUSH1 0x80 PUSH1 0x40 MSTORE CALLVALUE DUP1 ISZERO PUSH3 0x10 JUMPI PUSH0 DUP1 REVERT JUMPDEST POP PUSH1 0x40 MLOAD PUSH3 0x2D2A CODESIZE SUB DUP1 PUSH3 0x2D2A DUP4 CODECOPY DUP2 DUP2 ADD PUSH1 0x40 MSTORE DUP2 ADD SWAP1 PUSH3 0x36 SWAP2 SWAP1 PUSH3 0x1CA JUMP JUMPDEST PUSH3 0x56 PUSH3 0x4A PUSH3 0x9D PUSH1 0x20 SHL PUSH1 0x20 SHR JUMP JUMPDEST PUSH3 0xA4 PUSH1 0x20 SHL PUSH1 0x20 SHR JUMP JUMPDEST DUP1 PUSH1 0x1 PUSH0 PUSH2 0x100 EXP DUP2 SLOAD DUP2 PUSH20 0xFFFFFFFFFFFFFFFFFFFFFFFFFFFFFFFFFFFFFFFF MUL NOT AND SWAP1 DUP4 PUSH20 0xFFFFFFFFFFFFFFFFFFFFFFFFFFFFFFFFFFFFFFFF AND MUL OR SWAP1 SSTORE POP POP PUSH3 0x1FA JUMP JUMPDEST PUSH0 CALLER SWAP1 POP SWAP1 JUMP JUMPDEST PUSH0 DUP1 PUSH0 SWAP1 SLOAD SWAP1 PUSH2 0x100 EXP SWAP1 DIV PUSH20 0xFFFFFFFFFFFFFFFFFFFFFFFFFFFFFFFFFFFFFFFF AND SWAP1 POP DUP2 PUSH0 DUP1 PUSH2 0x100 EXP DUP2 SLOAD DUP2 PUSH20 0xFFFFFFFFFFFFFFFFFFFFFFFFFFFFFFFFFFFFFFFF MUL NOT AND SWAP1 DUP4 PUSH20 0xFFFFFFFFFFFFFFFFFFFFFFFFFFFFFFFFFFFFFFFF AND MUL OR SWAP1 SSTORE POP DUP2 PUSH20 0xFFFFFFFFFFFFFFFFFFFFFFFFFFFFFFFFFFFFFFFF AND DUP2 PUSH20 0xFFFFFFFFFFFFFFFFFFFFFFFFFFFFFFFFFFFFFFFF AND PUSH32 0x8BE0079C531659141344CD1FD0A4F28419497F9722A3DAAFE3B4186F6B6457E0 PUSH1 0x40 MLOAD PUSH1 0x40 MLOAD DUP1 SWAP2 SUB SWAP1 LOG3 POP POP JUMP JUMPDEST PUSH0 DUP1 REVERT JUMPDEST PUSH0 PUSH20 0xFFFFFFFFFFFFFFFFFFFFFFFFFFFFFFFFFFFFFFFF DUP3 AND SWAP1 POP SWAP2 SWAP1 POP JUMP JUMPDEST PUSH0 PUSH3 0x194 DUP3 PUSH3 0x169 JUMP JUMPDEST SWAP1 POP SWAP2 SWAP1 POP JUMP JUMPDEST PUSH3 0x1A6 DUP2 PUSH3 0x188 JUMP JUMPDEST DUP2 EQ PUSH3 0x1B1 JUMPI PUSH0 DUP1 REVERT JUMPDEST POP JUMP JUMPDEST PUSH0 DUP2 MLOAD SWAP1 POP PUSH3 0x1C4 DUP2 PUSH3 0x19B JUMP JUMPDEST SWAP3 SWAP2 POP POP JUMP JUMPDEST PUSH0 PUSH1 0x20 DUP3 DUP5 SUB SLT ISZERO PUSH3 0x1E2 JUMPI PUSH3 0x1E1 PUSH3 0x165 JUMP JUMPDEST JUMPDEST PUSH0 PUSH3 0x1F1 DUP5 DUP3 DUP6 ADD PUSH3 0x1B4 JUMP JUMPDEST SWAP2 POP POP SWAP3 SWAP2 POP POP JUMP JUMPDEST PUSH2 0x2B22 DUP1 PUSH3 0x208 PUSH0 CODECOPY PUSH0 RETURN INVALID PUSH1 0x80 PUSH1 0x40 MSTORE CALLVALUE DUP1 ISZERO PUSH2 0xF JUMPI PUSH0 DUP1 REVERT JUMPDEST POP PUSH1 0x4 CALLDATASIZE LT PUSH2 0x109 JUMPI PUSH0 CALLDATALOAD PUSH1 0xE0 SHR DUP1 PUSH4 0x8DA5CB5B GT PUSH2 0xA0 JUMPI DUP1 PUSH4 0xD313EB13 GT PUSH2 0x6F JUMPI DUP1 PUSH4 0xD313EB13 EQ PUSH2 0x2DF JUMPI DUP1 PUSH4 0xDCB51334 EQ PUSH2 0x30F JUMPI DUP1 PUSH4 0xEAB88BF5 EQ PUSH2 0x33F JUMPI DUP1 PUSH4 0xF2FDE38B EQ PUSH2 0x373 JUMPI DUP1 PUSH4 0xFC0C546A EQ PUSH2 0x38F JUMPI PUSH2 0x109 JUMP JUMPDEST DUP1 PUSH4 0x8DA5CB5B EQ PUSH2 0x243 JUMPI DUP1 PUSH4 0xB93A89F7 EQ PUSH2 0x261 JUMPI DUP1 PUSH4 0xBF8F0218 EQ PUSH2 0x291 JUMPI DUP1 PUSH4 0xD2D7231F EQ PUSH2 0x2AF JUMPI PUSH2 0x109 JUMP JUMPDEST DUP1 PUSH4 0x68A12B3A GT PUSH2 0xDC JUMPI DUP1 PUSH4 0x68A12B3A EQ PUSH2 0x1A8 JUMPI DUP1 PUSH4 0x715018A6 EQ PUSH2 0x1D9 JUMPI DUP1 PUSH4 0x7AE2B5C7 EQ PUSH2 0x1E3 JUMPI DUP1 PUSH4 0x7B0472F0 EQ PUSH2 0x213 JUMPI PUSH2 0x109 JUMP JUMPDEST DUP1 PUSH4 0x962EF79 EQ PUSH2 0x10D JUMPI DUP1 PUSH4 0x23B221A0 EQ PUSH2 0x129 JUMPI DUP1 PUSH4 0x3D1F924E EQ PUSH2 0x145 JUMPI DUP1 PUSH4 0x54F9ABFA EQ PUSH2 0x178 JUMPI JUMPDEST PUSH0 DUP1 REVERT JUMPDEST PUSH2 0x127 PUSH1 0x4 DUP1 CALLDATASIZE SUB DUP2 ADD SWAP1 PUSH2 0x122 SWAP2 SWAP1 PUSH2 0x1AFC JUMP JUMPDEST PUSH2 0x3AD JUMP JUMPDEST STOP JUMPDEST PUSH2 0x143 PUSH1 0x4 DUP1 CALLDATASIZE SUB DUP2 ADD SWAP1 PUSH2 0x13E SWAP2 SWAP1 PUSH2 0x1AFC JUMP JUMPDEST PUSH2 0x7F2 JUMP JUMPDEST STOP JUMPDEST PUSH2 0x15F PUSH1 0x4 DUP1 CALLDATASIZE SUB DUP2 ADD SWAP1 PUSH2 0x15A SWAP2 SWAP1 PUSH2 0x1AFC JUMP JUMPDEST PUSH2 0xCA5 JUMP JUMPDEST PUSH1 0x40 MLOAD PUSH2 0x16F SWAP5 SWAP4 SWAP3 SWAP2 SWAP1 PUSH2 0x1B75 JUMP JUMPDEST PUSH1 0x40 MLOAD DUP1 SWAP2 SUB SWAP1 RETURN JUMPDEST PUSH2 0x192 PUSH1 0x4 DUP1 CALLDATASIZE SUB DUP2 ADD SWAP1 PUSH2 0x18D SWAP2 SWAP1 PUSH2 0x1BE2 JUMP JUMPDEST PUSH2 0xCFF JUMP JUMPDEST PUSH1 0x40 MLOAD PUSH2 0x19F SWAP2 SWAP1 PUSH2 0x1CC4 JUMP JUMPDEST PUSH1 0x40 MLOAD DUP1 SWAP2 SUB SWAP1 RETURN JUMPDEST PUSH2 0x1C2 PUSH1 0x4 DUP1 CALLDATASIZE SUB DUP2 ADD SWAP1 PUSH2 0x1BD SWAP2 SWAP1 PUSH2 0x1AFC JUMP JUMPDEST PUSH2 0xD92 JUMP JUMPDEST PUSH1 0x40 MLOAD PUSH2 0x1D0 SWAP3 SWAP2 SWAP1 PUSH2 0x1CE4 JUMP JUMPDEST PUSH1 0x40 MLOAD DUP1 SWAP2 SUB SWAP1 RETURN JUMPDEST PUSH2 0x1E1 PUSH2 0xF33 JUMP JUMPDEST STOP JUMPDEST PUSH2 0x1FD PUSH1 0x4 DUP1 CALLDATASIZE SUB DUP2 ADD SWAP1 PUSH2 0x1F8 SWAP2 SWAP1 PUSH2 0x1D0B JUMP JUMPDEST PUSH2 0xF46 JUMP JUMPDEST PUSH1 0x40 MLOAD PUSH2 0x20A SWAP2 SWAP1 PUSH2 0x1D49 JUMP JUMPDEST PUSH1 0x40 MLOAD DUP1 SWAP2 SUB SWAP1 RETURN JUMPDEST PUSH2 0x22D PUSH1 0x4 DUP1 CALLDATASIZE SUB DUP2 ADD SWAP1 PUSH2 0x228 SWAP2 SWAP1 PUSH2 0x1D0B JUMP JUMPDEST PUSH2 0xF5E JUMP JUMPDEST PUSH1 0x40 MLOAD PUSH2 0x23A SWAP2 SWAP1 PUSH2 0x1DC4 JUMP JUMPDEST PUSH1 0x40 MLOAD DUP1 SWAP2 SUB SWAP1 RETURN JUMPDEST PUSH2 0x24B PUSH2 0x1375 JUMP JUMPDEST PUSH1 0x40 MLOAD PUSH2 0x258 SWAP2 SWAP1 PUSH2 0x1DDD JUMP JUMPDEST PUSH1 0x40 MLOAD DUP1 SWAP2 SUB SWAP1 RETURN JUMPDEST PUSH2 0x27B PUSH1 0x4 DUP1 CALLDATASIZE SUB DUP2 ADD SWAP1 PUSH2 0x276 SWAP2 SWAP1 PUSH2 0x1AFC JUMP JUMPDEST PUSH2 0x139C JUMP JUMPDEST PUSH1 0x40 MLOAD PUSH2 0x288 SWAP2 SWAP1 PUSH2 0x1DC4 JUMP JUMPDEST PUSH1 0x40 MLOAD DUP1 SWAP2 SUB SWAP1 RETURN JUMPDEST PUSH2 0x299 PUSH2 0x1454 JUMP JUMPDEST PUSH1 0x40 MLOAD PUSH2 0x2A6 SWAP2 SWAP1 PUSH2 0x1D49 JUMP JUMPDEST PUSH1 0x40 MLOAD DUP1 SWAP2 SUB SWAP1 RETURN JUMPDEST PUSH2 0x2C9 PUSH1 0x4 DUP1 CALLDATASIZE SUB DUP2 ADD SWAP1 PUSH2 0x2C4 SWAP2 SWAP1 PUSH2 0x1AFC JUMP JUMPDEST PUSH2 0x14F3 JUMP JUMPDEST PUSH1 0x40 MLOAD PUSH2 0x2D6 SWAP2 SWAP1 PUSH2 0x1D49 JUMP JUMPDEST PUSH1 0x40 MLOAD DUP1 SWAP2 SUB SWAP1 RETURN JUMPDEST PUSH2 0x2F9 PUSH1 0x4 DUP1 CALLDATASIZE SUB DUP2 ADD SWAP1 PUSH2 0x2F4 SWAP2 SWAP1 PUSH2 0x1DF6 JUMP JUMPDEST PUSH2 0x1730 JUMP JUMPDEST PUSH1 0x40 MLOAD PUSH2 0x306 SWAP2 SWAP1 PUSH2 0x1D49 JUMP JUMPDEST PUSH1 0x40 MLOAD DUP1 SWAP2 SUB SWAP1 RETURN JUMPDEST PUSH2 0x329 PUSH1 0x4 DUP1 CALLDATASIZE SUB DUP2 ADD SWAP1 PUSH2 0x324 SWAP2 SWAP1 PUSH2 0x1AFC JUMP JUMPDEST PUSH2 0x175B JUMP JUMPDEST PUSH1 0x40 MLOAD PUSH2 0x336 SWAP2 SWAP1 PUSH2 0x1D49 JUMP JUMPDEST PUSH1 0x40 MLOAD DUP1 SWAP2 SUB SWAP1 RETURN JUMPDEST PUSH2 0x359 PUSH1 0x4 DUP1 CALLDATASIZE SUB DUP2 ADD SWAP1 PUSH2 0x354 SWAP2 SWAP1 PUSH2 0x1AFC JUMP JUMPDEST PUSH2 0x1770 JUMP JUMPDEST PUSH1 0x40 MLOAD PUSH2 0x36A SWAP6 SWAP5 SWAP4 SWAP3 SWAP2 SWAP1 PUSH2 0x1E34 JUMP JUMPDEST PUSH1 0x40 MLOAD DUP1 SWAP2 SUB SWAP1 RETURN JUMPDEST PUSH2 0x38D PUSH1 0x4 DUP1 CALLDATASIZE SUB DUP2 ADD SWAP1 PUSH2 0x388 SWAP2 SWAP1 PUSH2 0x1BE2 JUMP JUMPDEST PUSH2 0x189E JUMP JUMPDEST STOP JUMPDEST PUSH2 0x397 PUSH2 0x1920 JUMP JUMPDEST PUSH1 0x40 MLOAD PUSH2 0x3A4 SWAP2 SWAP1 PUSH2 0x1EE0 JUMP JUMPDEST PUSH1 0x40 MLOAD DUP1 SWAP2 SUB SWAP1 RETURN JUMPDEST DUP1 PUSH1 0x2 DUP1 SLOAD SWAP1 POP LT ISZERO PUSH2 0x3F5 JUMPI PUSH1 0x40 MLOAD PUSH32 0x8C379A000000000000000000000000000000000000000000000000000000000 DUP2 MSTORE PUSH1 0x4 ADD PUSH2 0x3EC SWAP1 PUSH2 0x1F53 JUMP JUMPDEST PUSH1 0x40 MLOAD DUP1 SWAP2 SUB SWAP1 REVERT JUMPDEST PUSH0 PUSH1 0x2 PUSH1 0x1 DUP4 PUSH2 0x405 SWAP2 SWAP1 PUSH2 0x1F9E JUMP JUMPDEST DUP2 SLOAD DUP2 LT PUSH2 0x416 JUMPI PUSH2 0x415 PUSH2 0x1FD1 JUMP JUMPDEST JUMPDEST SWAP1 PUSH0 MSTORE PUSH1 0x20 PUSH0 KECCAK256 SWAP1 PUSH1 0x4 MUL ADD PUSH1 0x40 MLOAD DUP1 PUSH1 0x80 ADD PUSH1 0x40 MSTORE SWAP1 DUP2 PUSH0 DUP3 ADD PUSH0 SWAP1 SLOAD SWAP1 PUSH2 0x100 EXP SWAP1 DIV PUSH20 0xFFFFFFFFFFFFFFFFFFFFFFFFFFFFFFFFFFFFFFFF AND PUSH20 0xFFFFFFFFFFFFFFFFFFFFFFFFFFFFFFFFFFFFFFFF AND PUSH20 0xFFFFFFFFFFFFFFFFFFFFFFFFFFFFFFFFFFFFFFFF AND DUP2 MSTORE PUSH1 0x20 ADD PUSH1 0x1 DUP3 ADD SLOAD DUP2 MSTORE PUSH1 0x20 ADD PUSH1 0x2 DUP3 ADD SLOAD DUP2 MSTORE PUSH1 0x20 ADD PUSH1 0x3 DUP3 ADD SLOAD DUP2 MSTORE POP POP SWAP1 POP PUSH0 PUSH20 0xFFFFFFFFFFFFFFFFFFFFFFFFFFFFFFFFFFFFFFFF AND DUP2 PUSH0 ADD MLOAD PUSH20 0xFFFFFFFFFFFFFFFFFFFFFFFFFFFFFFFFFFFFFFFF AND SUB PUSH2 0x512 JUMPI PUSH1 0x40 MLOAD PUSH32 0x8C379A000000000000000000000000000000000000000000000000000000000 DUP2 MSTORE PUSH1 0x4 ADD PUSH2 0x509 SWAP1 PUSH2 0x206E JUMP JUMPDEST PUSH1 0x40 MLOAD DUP1 SWAP2 SUB SWAP1 REVERT JUMPDEST DUP1 PUSH0 ADD MLOAD PUSH20 0xFFFFFFFFFFFFFFFFFFFFFFFFFFFFFFFFFFFFFFFF AND CALLER PUSH20 0xFFFFFFFFFFFFFFFFFFFFFFFFFFFFFFFFFFFFFFFF AND EQ PUSH2 0x583 JUMPI PUSH1 0x40 MLOAD PUSH32 0x8C379A000000000000000000000000000000000000000000000000000000000 DUP2 MSTORE PUSH1 0x4 ADD PUSH2 0x57A SWAP1 PUSH2 0x20FC JUMP JUMPDEST PUSH1 0x40 MLOAD DUP1 SWAP2 SUB SWAP1 REVERT JUMPDEST PUSH0 DUP2 PUSH1 0x60 ADD MLOAD DUP3 PUSH1 0x40 ADD MLOAD PUSH2 0x598 SWAP2 SWAP1 PUSH2 0x211A JUMP JUMPDEST TIMESTAMP PUSH2 0x5A3 SWAP2 SWAP1 PUSH2 0x1F9E JUMP JUMPDEST SWAP1 POP PUSH0 DUP2 GT PUSH2 0x5E7 JUMPI PUSH1 0x40 MLOAD PUSH32 0x8C379A000000000000000000000000000000000000000000000000000000000 DUP2 MSTORE PUSH1 0x4 ADD PUSH2 0x5DE SWAP1 PUSH2 0x21E3 JUMP JUMPDEST PUSH1 0x40 MLOAD DUP1 SWAP2 SUB SWAP1 REVERT JUMPDEST PUSH0 PUSH2 0x5F1 DUP5 PUSH2 0x14F3 JUMP JUMPDEST SWAP1 POP DUP1 PUSH1 0x1 PUSH0 SWAP1 SLOAD SWAP1 PUSH2 0x100 EXP SWAP1 DIV PUSH20 0xFFFFFFFFFFFFFFFFFFFFFFFFFFFFFFFFFFFFFFFF AND PUSH20 0xFFFFFFFFFFFFFFFFFFFFFFFFFFFFFFFFFFFFFFFF AND PUSH4 0x70A08231 ADDRESS PUSH1 0x40 MLOAD DUP3 PUSH4 0xFFFFFFFF AND PUSH1 0xE0 SHL DUP2 MSTORE PUSH1 0x4 ADD PUSH2 0x64E SWAP2 SWAP1 PUSH2 0x1DDD JUMP JUMPDEST PUSH1 0x20 PUSH1 0x40 MLOAD DUP1 DUP4 SUB DUP2 DUP7 GAS STATICCALL ISZERO DUP1 ISZERO PUSH2 0x669 JUMPI RETURNDATASIZE PUSH0 DUP1 RETURNDATACOPY RETURNDATASIZE PUSH0 REVERT JUMPDEST POP POP POP POP PUSH1 0x40 MLOAD RETURNDATASIZE PUSH1 0x1F NOT PUSH1 0x1F DUP3 ADD AND DUP3 ADD DUP1 PUSH1 0x40 MSTORE POP DUP2 ADD SWAP1 PUSH2 0x68D SWAP2 SWAP1 PUSH2 0x2215 JUMP JUMPDEST LT ISZERO PUSH2 0x6CE JUMPI PUSH1 0x40 MLOAD PUSH32 0x8C379A000000000000000000000000000000000000000000000000000000000 DUP2 MSTORE PUSH1 0x4 ADD PUSH2 0x6C5 SWAP1 PUSH2 0x22D6 JUMP JUMPDEST PUSH1 0x40 MLOAD DUP1 SWAP2 SUB SWAP1 REVERT JUMPDEST TIMESTAMP PUSH1 0x4 PUSH0 DUP7 DUP2 MSTORE PUSH1 0x20 ADD SWAP1 DUP2 MSTORE PUSH1 0x20 ADD PUSH0 KECCAK256 DUP2 SWAP1 SSTORE POP PUSH1 0x1 PUSH0 SWAP1 SLOAD SWAP1 PUSH2 0x100 EXP SWAP1 DIV PUSH20 0xFFFFFFFFFFFFFFFFFFFFFFFFFFFFFFFFFFFFFFFF AND PUSH20 0xFFFFFFFFFFFFFFFFFFFFFFFFFFFFFFFFFFFFFFFF AND PUSH4 0xA9059CBB DUP5 PUSH0 ADD MLOAD DUP4 PUSH1 0x40 MLOAD DUP4 PUSH4 0xFFFFFFFF AND PUSH1 0xE0 SHL DUP2 MSTORE PUSH1 0x4 ADD PUSH2 0x743 SWAP3 SWAP2 SWAP1 PUSH2 0x22F4 JUMP JUMPDEST PUSH1 0x20 PUSH1 0x40 MLOAD DUP1 DUP4 SUB DUP2 PUSH0 DUP8 GAS CALL ISZERO DUP1 ISZERO PUSH2 0x75F JUMPI RETURNDATASIZE PUSH0 DUP1 RETURNDATACOPY RETURNDATASIZE PUSH0 REVERT JUMPDEST POP POP POP POP PUSH1 0x40 MLOAD RETURNDATASIZE PUSH1 0x1F NOT PUSH1 0x1F DUP3 ADD AND DUP3 ADD DUP1 PUSH1 0x40 MSTORE POP DUP2 ADD SWAP1 PUSH2 0x783 SWAP2 SWAP1 PUSH2 0x2350 JUMP JUMPDEST POP PUSH0 PUSH1 0x2 PUSH1 0x1 DUP7 PUSH2 0x794 SWAP2 SWAP1 PUSH2 0x1F9E JUMP JUMPDEST DUP2 SLOAD DUP2 LT PUSH2 0x7A5 JUMPI PUSH2 0x7A4 PUSH2 0x1FD1 JUMP JUMPDEST JUMPDEST SWAP1 PUSH0 MSTORE PUSH1 0x20 PUSH0 KECCAK256 SWAP1 PUSH1 0x4 MUL ADD PUSH1 0x3 ADD DUP2 SWAP1 SSTORE POP PUSH0 PUSH1 0x2 PUSH1 0x1 DUP7 PUSH2 0x7C8 SWAP2 SWAP1 PUSH2 0x1F9E JUMP JUMPDEST DUP2 SLOAD DUP2 LT PUSH2 0x7D9 JUMPI PUSH2 0x7D8 PUSH2 0x1FD1 JUMP JUMPDEST JUMPDEST SWAP1 PUSH0 MSTORE PUSH1 0x20 PUSH0 KECCAK256 SWAP1 PUSH1 0x4 MUL ADD PUSH1 0x2 ADD DUP2 SWAP1 SSTORE POP POP POP POP POP JUMP JUMPDEST PUSH0 PUSH1 0x2 PUSH1 0x1 DUP4 PUSH2 0x802 SWAP2 SWAP1 PUSH2 0x1F9E JUMP JUMPDEST DUP2 SLOAD DUP2 LT PUSH2 0x813 JUMPI PUSH2 0x812 PUSH2 0x1FD1 JUMP JUMPDEST JUMPDEST SWAP1 PUSH0 MSTORE PUSH1 0x20 PUSH0 KECCAK256 SWAP1 PUSH1 0x4 MUL ADD PUSH1 0x40 MLOAD DUP1 PUSH1 0x80 ADD PUSH1 0x40 MSTORE SWAP1 DUP2 PUSH0 DUP3 ADD PUSH0 SWAP1 SLOAD SWAP1 PUSH2 0x100 EXP SWAP1 DIV PUSH20 0xFFFFFFFFFFFFFFFFFFFFFFFFFFFFFFFFFFFFFFFF AND PUSH20 0xFFFFFFFFFFFFFFFFFFFFFFFFFFFFFFFFFFFFFFFF AND PUSH20 0xFFFFFFFFFFFFFFFFFFFFFFFFFFFFFFFFFFFFFFFF AND DUP2 MSTORE PUSH1 0x20 ADD PUSH1 0x1 DUP3 ADD SLOAD DUP2 MSTORE PUSH1 0x20 ADD PUSH1 0x2 DUP3 ADD SLOAD DUP2 MSTORE PUSH1 0x20 ADD PUSH1 0x3 DUP3 ADD SLOAD DUP2 MSTORE POP POP SWAP1 POP PUSH0 PUSH20 0xFFFFFFFFFFFFFFFFFFFFFFFFFFFFFFFFFFFFFFFF AND DUP2 PUSH0 ADD MLOAD PUSH20 0xFFFFFFFFFFFFFFFFFFFFFFFFFFFFFFFFFFFFFFFF AND SUB PUSH2 0x90F JUMPI PUSH1 0x40 MLOAD PUSH32 0x8C379A000000000000000000000000000000000000000000000000000000000 DUP2 MSTORE PUSH1 0x4 ADD PUSH2 0x906 SWAP1 PUSH2 0x23C5 JUMP JUMPDEST PUSH1 0x40 MLOAD DUP1 SWAP2 SUB SWAP1 REVERT JUMPDEST DUP1 PUSH0 ADD MLOAD PUSH20 0xFFFFFFFFFFFFFFFFFFFFFFFFFFFFFFFFFFFFFFFF AND CALLER PUSH20 0xFFFFFFFFFFFFFFFFFFFFFFFFFFFFFFFFFFFFFFFF AND EQ PUSH2 0x980 JUMPI PUSH1 0x40 MLOAD PUSH32 0x8C379A000000000000000000000000000000000000000000000000000000000 DUP2 MSTORE PUSH1 0x4 ADD PUSH2 0x977 SWAP1 PUSH2 0x2453 JUMP JUMPDEST PUSH1 0x40 MLOAD DUP1 SWAP2 SUB SWAP1 REVERT JUMPDEST PUSH0 PUSH1 0x2 PUSH1 0x1 DUP5 PUSH2 0x990 SWAP2 SWAP1 PUSH2 0x1F9E JUMP JUMPDEST DUP2 SLOAD DUP2 LT PUSH2 0x9A1 JUMPI PUSH2 0x9A0 PUSH2 0x1FD1 JUMP JUMPDEST JUMPDEST SWAP1 PUSH0 MSTORE PUSH1 0x20 PUSH0 KECCAK256 SWAP1 PUSH1 0x4 MUL ADD PUSH1 0x3 ADD SLOAD EQ PUSH2 0x9F1 JUMPI PUSH1 0x40 MLOAD PUSH32 0x8C379A000000000000000000000000000000000000000000000000000000000 DUP2 MSTORE PUSH1 0x4 ADD PUSH2 0x9E8 SWAP1 PUSH2 0x24E1 JUMP JUMPDEST PUSH1 0x40 MLOAD DUP1 SWAP2 SUB SWAP1 REVERT JUMPDEST PUSH1 0x78 PUSH1 0x4 PUSH0 DUP5 DUP2 MSTORE PUSH1 0x20 ADD SWAP1 DUP2 MSTORE PUSH1 0x20 ADD PUSH0 KECCAK256 SLOAD TIMESTAMP PUSH2 0xA10 SWAP2 SWAP1 PUSH2 0x1F9E JUMP JUMPDEST LT ISZERO PUSH2 0xA51 JUMPI PUSH1 0x40 MLOAD PUSH32 0x8C379A000000000000000000000000000000000000000000000000000000000 DUP2 MSTORE PUSH1 0x4 ADD PUSH2 0xA48 SWAP1 PUSH2 0x2595 JUMP JUMPDEST PUSH1 0x40 MLOAD DUP1 SWAP2 SUB SWAP1 REVERT JUMPDEST PUSH0 PUSH1 0x4 PUSH0 DUP5 DUP2 MSTORE PUSH1 0x20 ADD SWAP1 DUP2 MSTORE PUSH1 0x20 ADD PUSH0 KECCAK256 DUP2 SWAP1 SSTORE POP PUSH0 DUP2 PUSH1 0x20 ADD MLOAD SWAP1 POP DUP1 PUSH1 0x1 PUSH0 SWAP1 SLOAD SWAP1 PUSH2 0x100 EXP SWAP1 DIV PUSH20 0xFFFFFFFFFFFFFFFFFFFFFFFFFFFFFFFFFFFFFFFF AND PUSH20 0xFFFFFFFFFFFFFFFFFFFFFFFFFFFFFFFFFFFFFFFF AND PUSH4 0x70A08231 ADDRESS PUSH1 0x40 MLOAD DUP3 PUSH4 0xFFFFFFFF AND PUSH1 0xE0 SHL DUP2 MSTORE PUSH1 0x4 ADD PUSH2 0xACA SWAP2 SWAP1 PUSH2 0x1DDD JUMP JUMPDEST PUSH1 0x20 PUSH1 0x40 MLOAD DUP1 DUP4 SUB DUP2 DUP7 GAS STATICCALL ISZERO DUP1 ISZERO PUSH2 0xAE5 JUMPI RETURNDATASIZE PUSH0 DUP1 RETURNDATACOPY RETURNDATASIZE PUSH0 REVERT JUMPDEST POP POP POP POP PUSH1 0x40 MLOAD RETURNDATASIZE PUSH1 0x1F NOT PUSH1 0x1F DUP3 ADD AND DUP3 ADD DUP1 PUSH1 0x40 MSTORE POP DUP2 ADD SWAP1 PUSH2 0xB09 SWAP2 SWAP1 PUSH2 0x2215 JUMP JUMPDEST LT ISZERO PUSH2 0xB4A JUMPI PUSH1 0x40 MLOAD PUSH32 0x8C379A000000000000000000000000000000000000000000000000000000000 DUP2 MSTORE PUSH1 0x4 ADD PUSH2 0xB41 SWAP1 PUSH2 0x2623 JUMP JUMPDEST PUSH1 0x40 MLOAD DUP1 SWAP2 SUB SWAP1 REVERT JUMPDEST PUSH1 0x1 PUSH0 SWAP1 SLOAD SWAP1 PUSH2 0x100 EXP SWAP1 DIV PUSH20 0xFFFFFFFFFFFFFFFFFFFFFFFFFFFFFFFFFFFFFFFF AND PUSH20 0xFFFFFFFFFFFFFFFFFFFFFFFFFFFFFFFFFFFFFFFF AND PUSH4 0xA9059CBB DUP4 PUSH0 ADD MLOAD DUP4 PUSH1 0x40 MLOAD DUP4 PUSH4 0xFFFFFFFF AND PUSH1 0xE0 SHL DUP2 MSTORE PUSH1 0x4 ADD PUSH2 0xBA9 SWAP3 SWAP2 SWAP1 PUSH2 0x22F4 JUMP JUMPDEST PUSH1 0x20 PUSH1 0x40 MLOAD DUP1 DUP4 SUB DUP2 PUSH0 DUP8 GAS CALL ISZERO DUP1 ISZERO PUSH2 0xBC5 JUMPI RETURNDATASIZE PUSH0 DUP1 RETURNDATACOPY RETURNDATASIZE PUSH0 REVERT JUMPDEST POP POP POP POP PUSH1 0x40 MLOAD RETURNDATASIZE PUSH1 0x1F NOT PUSH1 0x1F DUP3 ADD AND DUP3 ADD DUP1 PUSH1 0x40 MSTORE POP DUP2 ADD SWAP1 PUSH2 0xBE9 SWAP2 SWAP1 PUSH2 0x2350 JUMP JUMPDEST POP PUSH0 PUSH1 0x2 PUSH1 0x1 DUP6 PUSH2 0xBFA SWAP2 SWAP1 PUSH2 0x1F9E JUMP JUMPDEST DUP2 SLOAD DUP2 LT PUSH2 0xC0B JUMPI PUSH2 0xC0A PUSH2 0x1FD1 JUMP JUMPDEST JUMPDEST SWAP1 PUSH0 MSTORE PUSH1 0x20 PUSH0 KECCAK256 SWAP1 PUSH1 0x4 MUL ADD PUSH0 ADD PUSH0 PUSH2 0x100 EXP DUP2 SLOAD DUP2 PUSH20 0xFFFFFFFFFFFFFFFFFFFFFFFFFFFFFFFFFFFFFFFF MUL NOT AND SWAP1 DUP4 PUSH20 0xFFFFFFFFFFFFFFFFFFFFFFFFFFFFFFFFFFFFFFFF AND MUL OR SWAP1 SSTORE POP PUSH0 PUSH1 0x2 PUSH1 0x1 DUP6 PUSH2 0xC66 SWAP2 SWAP1 PUSH2 0x1F9E JUMP JUMPDEST DUP2 SLOAD DUP2 LT PUSH2 0xC77 JUMPI PUSH2 0xC76 PUSH2 0x1FD1 JUMP JUMPDEST JUMPDEST SWAP1 PUSH0 MSTORE PUSH1 0x20 PUSH0 KECCAK256 SWAP1 PUSH1 0x4 MUL ADD PUSH1 0x1 ADD DUP2 SWAP1 SSTORE POP PUSH0 PUSH1 0x4 PUSH0 DUP6 DUP2 MSTORE PUSH1 0x20 ADD SWAP1 DUP2 MSTORE PUSH1 0x20 ADD PUSH0 KECCAK256 DUP2 SWAP1 SSTORE POP POP POP POP JUMP JUMPDEST PUSH1 0x2 DUP2 DUP2 SLOAD DUP2 LT PUSH2 0xCB4 JUMPI PUSH0 DUP1 REVERT JUMPDEST SWAP1 PUSH0 MSTORE PUSH1 0x20 PUSH0 KECCAK256 SWAP1 PUSH1 0x4 MUL ADD PUSH0 SWAP2 POP SWAP1 POP DUP1 PUSH0 ADD PUSH0 SWAP1 SLOAD SWAP1 PUSH2 0x100 EXP SWAP1 DIV PUSH20 0xFFFFFFFFFFFFFFFFFFFFFFFFFFFFFFFFFFFFFFFF AND SWAP1 DUP1 PUSH1 0x1 ADD SLOAD SWAP1 DUP1 PUSH1 0x2 ADD SLOAD SWAP1 DUP1 PUSH1 0x3 ADD SLOAD SWAP1 POP DUP5 JUMP JUMPDEST PUSH1 0x60 PUSH1 0x3 PUSH0 DUP4 PUSH20 0xFFFFFFFFFFFFFFFFFFFFFFFFFFFFFFFFFFFFFFFF AND PUSH20 0xFFFFFFFFFFFFFFFFFFFFFFFFFFFFFFFFFFFFFFFF AND DUP2 MSTORE PUSH1 0x20 ADD SWAP1 DUP2 MSTORE PUSH1 0x20 ADD PUSH0 KECCAK256 DUP1 SLOAD DUP1 PUSH1 0x20 MUL PUSH1 0x20 ADD PUSH1 0x40 MLOAD SWAP1 DUP2 ADD PUSH1 0x40 MSTORE DUP1 SWAP3 SWAP2 SWAP1 DUP2 DUP2 MSTORE PUSH1 0x20 ADD DUP3 DUP1 SLOAD DUP1 ISZERO PUSH2 0xD86 JUMPI PUSH1 0x20 MUL DUP3 ADD SWAP2 SWAP1 PUSH0 MSTORE PUSH1 0x20 PUSH0 KECCAK256 SWAP1 JUMPDEST DUP2 SLOAD DUP2 MSTORE PUSH1 0x20 ADD SWAP1 PUSH1 0x1 ADD SWAP1 DUP1 DUP4 GT PUSH2 0xD72 JUMPI JUMPDEST POP POP POP POP POP SWAP1 POP SWAP2 SWAP1 POP JUMP JUMPDEST PUSH0 DUP1 DUP3 PUSH1 0x2 DUP1 SLOAD SWAP1 POP LT ISZERO PUSH2 0xDDC JUMPI PUSH1 0x40 MLOAD PUSH32 0x8C379A000000000000000000000000000000000000000000000000000000000 DUP2 MSTORE PUSH1 0x4 ADD PUSH2 0xDD3 SWAP1 PUSH2 0x26B1 JUMP JUMPDEST PUSH1 0x40 MLOAD DUP1 SWAP2 SUB SWAP1 REVERT JUMPDEST PUSH0 PUSH1 0x2 PUSH1 0x1 DUP6 PUSH2 0xDEC SWAP2 SWAP1 PUSH2 0x1F9E JUMP JUMPDEST DUP2 SLOAD DUP2 LT PUSH2 0xDFD JUMPI PUSH2 0xDFC PUSH2 0x1FD1 JUMP JUMPDEST JUMPDEST SWAP1 PUSH0 MSTORE PUSH1 0x20 PUSH0 KECCAK256 SWAP1 PUSH1 0x4 MUL ADD PUSH1 0x40 MLOAD DUP1 PUSH1 0x80 ADD PUSH1 0x40 MSTORE SWAP1 DUP2 PUSH0 DUP3 ADD PUSH0 SWAP1 SLOAD SWAP1 PUSH2 0x100 EXP SWAP1 DIV PUSH20 0xFFFFFFFFFFFFFFFFFFFFFFFFFFFFFFFFFFFFFFFF AND PUSH20 0xFFFFFFFFFFFFFFFFFFFFFFFFFFFFFFFFFFFFFFFF AND PUSH20 0xFFFFFFFFFFFFFFFFFFFFFFFFFFFFFFFFFFFFFFFF AND DUP2 MSTORE PUSH1 0x20 ADD PUSH1 0x1 DUP3 ADD SLOAD DUP2 MSTORE PUSH1 0x20 ADD PUSH1 0x2 DUP3 ADD SLOAD DUP2 MSTORE PUSH1 0x20 ADD PUSH1 0x3 DUP3 ADD SLOAD DUP2 MSTORE POP POP SWAP1 POP PUSH0 PUSH20 0xFFFFFFFFFFFFFFFFFFFFFFFFFFFFFFFFFFFFFFFF AND DUP2 PUSH0 ADD MLOAD PUSH20 0xFFFFFFFFFFFFFFFFFFFFFFFFFFFFFFFFFFFFFFFF AND SUB PUSH2 0xEF9 JUMPI PUSH1 0x40 MLOAD PUSH32 0x8C379A000000000000000000000000000000000000000000000000000000000 DUP2 MSTORE PUSH1 0x4 ADD PUSH2 0xEF0 SWAP1 PUSH2 0x273F JUMP JUMPDEST PUSH1 0x40 MLOAD DUP1 SWAP2 SUB SWAP1 REVERT JUMPDEST PUSH0 DUP2 PUSH1 0x40 ADD MLOAD TIMESTAMP PUSH2 0xF0A SWAP2 SWAP1 PUSH2 0x1F9E JUMP JUMPDEST SWAP1 POP PUSH0 DUP3 PUSH1 0x60 ADD MLOAD SWAP1 POP PUSH2 0xF1D DUP7 PUSH2 0x14F3 JUMP JUMPDEST PUSH2 0xF27 DUP4 DUP4 PUSH2 0xF46 JUMP JUMPDEST SWAP5 POP SWAP5 POP POP POP POP SWAP2 POP SWAP2 JUMP JUMPDEST PUSH2 0xF3B PUSH2 0x1945 JUMP JUMPDEST PUSH2 0xF44 PUSH0 PUSH2 0x19C3 JUMP JUMPDEST JUMP JUMPDEST PUSH0 DUP2 DUP4 LT PUSH2 0xF54 JUMPI DUP2 PUSH2 0xF56 JUMP JUMPDEST DUP3 JUMPDEST SWAP1 POP SWAP3 SWAP2 POP POP JUMP JUMPDEST PUSH2 0xF66 PUSH2 0x1A8B JUMP JUMPDEST PUSH0 DUP4 GT PUSH2 0xFA8 JUMPI PUSH1 0x40 MLOAD PUSH32 0x8C379A000000000000000000000000000000000000000000000000000000000 DUP2 MSTORE PUSH1 0x4 ADD PUSH2 0xF9F SWAP1 PUSH2 0x27A7 JUMP JUMPDEST PUSH1 0x40 MLOAD DUP1 SWAP2 SUB SWAP1 REVERT JUMPDEST DUP3 PUSH1 0x1 PUSH0 SWAP1 SLOAD SWAP1 PUSH2 0x100 EXP SWAP1 DIV PUSH20 0xFFFFFFFFFFFFFFFFFFFFFFFFFFFFFFFFFFFFFFFF AND PUSH20 0xFFFFFFFFFFFFFFFFFFFFFFFFFFFFFFFFFFFFFFFF AND PUSH4 0x70A08231 CALLER PUSH1 0x40 MLOAD DUP3 PUSH4 0xFFFFFFFF AND PUSH1 0xE0 SHL DUP2 MSTORE PUSH1 0x4 ADD PUSH2 0x1003 SWAP2 SWAP1 PUSH2 0x1DDD JUMP JUMPDEST PUSH1 0x20 PUSH1 0x40 MLOAD DUP1 DUP4 SUB DUP2 DUP7 GAS STATICCALL ISZERO DUP1 ISZERO PUSH2 0x101E JUMPI RETURNDATASIZE PUSH0 DUP1 RETURNDATACOPY RETURNDATASIZE PUSH0 REVERT JUMPDEST POP POP POP POP PUSH1 0x40 MLOAD RETURNDATASIZE PUSH1 0x1F NOT PUSH1 0x1F DUP3 ADD AND DUP3 ADD DUP1 PUSH1 0x40 MSTORE POP DUP2 ADD SWAP1 PUSH2 0x1042 SWAP2 SWAP1 PUSH2 0x2215 JUMP JUMPDEST LT ISZERO PUSH2 0x1083 JUMPI PUSH1 0x40 MLOAD PUSH32 0x8C379A000000000000000000000000000000000000000000000000000000000 DUP2 MSTORE PUSH1 0x4 ADD PUSH2 0x107A SWAP1 PUSH2 0x280F JUMP JUMPDEST PUSH1 0x40 MLOAD DUP1 SWAP2 SUB SWAP1 REVERT JUMPDEST PUSH1 0x2 DUP3 EQ DUP1 PUSH2 0x1092 JUMPI POP PUSH1 0x4 DUP3 EQ JUMPDEST DUP1 PUSH2 0x109D JUMPI POP PUSH1 0x6 DUP3 EQ JUMPDEST DUP1 PUSH2 0x10A8 JUMPI POP PUSH1 0x8 DUP3 EQ JUMPDEST DUP1 PUSH2 0x10B3 JUMPI POP PUSH1 0xA DUP3 EQ JUMPDEST PUSH2 0x10F2 JUMPI PUSH1 0x40 MLOAD PUSH32 0x8C379A000000000000000000000000000000000000000000000000000000000 DUP2 MSTORE PUSH1 0x4 ADD PUSH2 0x10E9 SWAP1 PUSH2 0x289D JUMP JUMPDEST PUSH1 0x40 MLOAD DUP1 SWAP2 SUB SWAP1 REVERT JUMPDEST PUSH0 TIMESTAMP SWAP1 POP PUSH1 0x1 PUSH0 SWAP1 SLOAD SWAP1 PUSH2 0x100 EXP SWAP1 DIV PUSH20 0xFFFFFFFFFFFFFFFFFFFFFFFFFFFFFFFFFFFFFFFF AND PUSH20 0xFFFFFFFFFFFFFFFFFFFFFFFFFFFFFFFFFFFFFFFF AND PUSH4 0x23B872DD CALLER ADDRESS DUP8 PUSH1 0x40 MLOAD DUP5 PUSH4 0xFFFFFFFF AND PUSH1 0xE0 SHL DUP2 MSTORE PUSH1 0x4 ADD PUSH2 0x1154 SWAP4 SWAP3 SWAP2 SWAP1 PUSH2 0x28BB JUMP JUMPDEST PUSH1 0x20 PUSH1 0x40 MLOAD DUP1 DUP4 SUB DUP2 PUSH0 DUP8 GAS CALL ISZERO DUP1 ISZERO PUSH2 0x1170 JUMPI RETURNDATASIZE PUSH0 DUP1 RETURNDATACOPY RETURNDATASIZE PUSH0 REVERT JUMPDEST POP POP POP POP PUSH1 0x40 MLOAD RETURNDATASIZE PUSH1 0x1F NOT PUSH1 0x1F DUP3 ADD AND DUP3 ADD DUP1 PUSH1 0x40 MSTORE POP DUP2 ADD SWAP1 PUSH2 0x1194 SWAP2 SWAP1 PUSH2 0x2350 JUMP JUMPDEST POP PUSH1 0x2 PUSH1 0x40 MLOAD DUP1 PUSH1 0x80 ADD PUSH1 0x40 MSTORE DUP1 CALLER PUSH20 0xFFFFFFFFFFFFFFFFFFFFFFFFFFFFFFFFFFFFFFFF AND DUP2 MSTORE PUSH1 0x20 ADD DUP7 DUP2 MSTORE PUSH1 0x20 ADD DUP6 DUP2 MSTORE PUSH1 0x20 ADD DUP4 DUP2 MSTORE POP SWAP1 DUP1 PUSH1 0x1 DUP2 SLOAD ADD DUP1 DUP3 SSTORE DUP1 SWAP2 POP POP PUSH1 0x1 SWAP1 SUB SWAP1 PUSH0 MSTORE PUSH1 0x20 PUSH0 KECCAK256 SWAP1 PUSH1 0x4 MUL ADD PUSH0 SWAP1 SWAP2 SWAP1 SWAP2 SWAP1 SWAP2 POP PUSH0 DUP3 ADD MLOAD DUP2 PUSH0 ADD PUSH0 PUSH2 0x100 EXP DUP2 SLOAD DUP2 PUSH20 0xFFFFFFFFFFFFFFFFFFFFFFFFFFFFFFFFFFFFFFFF MUL NOT AND SWAP1 DUP4 PUSH20 0xFFFFFFFFFFFFFFFFFFFFFFFFFFFFFFFFFFFFFFFF AND MUL OR SWAP1 SSTORE POP PUSH1 0x20 DUP3 ADD MLOAD DUP2 PUSH1 0x1 ADD SSTORE PUSH1 0x40 DUP3 ADD MLOAD DUP2 PUSH1 0x2 ADD SSTORE PUSH1 0x60 DUP3 ADD MLOAD DUP2 PUSH1 0x3 ADD SSTORE POP POP PUSH0 PUSH1 0x2 DUP1 SLOAD SWAP1 POP SWAP1 POP PUSH1 0x3 PUSH0 CALLER PUSH20 0xFFFFFFFFFFFFFFFFFFFFFFFFFFFFFFFFFFFFFFFF AND PUSH20 0xFFFFFFFFFFFFFFFFFFFFFFFFFFFFFFFFFFFFFFFF AND DUP2 MSTORE PUSH1 0x20 ADD SWAP1 DUP2 MSTORE PUSH1 0x20 ADD PUSH0 KECCAK256 DUP2 SWAP1 DUP1 PUSH1 0x1 DUP2 SLOAD ADD DUP1 DUP3 SSTORE DUP1 SWAP2 POP POP PUSH1 0x1 SWAP1 SUB SWAP1 PUSH0 MSTORE PUSH1 0x20 PUSH0 KECCAK256 ADD PUSH0 SWAP1 SWAP2 SWAP1 SWAP2 SWAP1 SWAP2 POP SSTORE PUSH1 0x2 PUSH1 0x1 DUP3 PUSH2 0x12D1 SWAP2 SWAP1 PUSH2 0x1F9E JUMP JUMPDEST DUP2 SLOAD DUP2 LT PUSH2 0x12E2 JUMPI PUSH2 0x12E1 PUSH2 0x1FD1 JUMP JUMPDEST JUMPDEST SWAP1 PUSH0 MSTORE PUSH1 0x20 PUSH0 KECCAK256 SWAP1 PUSH1 0x4 MUL ADD PUSH1 0x40 MLOAD DUP1 PUSH1 0x80 ADD PUSH1 0x40 MSTORE SWAP1 DUP2 PUSH0 DUP3 ADD PUSH0 SWAP1 SLOAD SWAP1 PUSH2 0x100 EXP SWAP1 DIV PUSH20 0xFFFFFFFFFFFFFFFFFFFFFFFFFFFFFFFFFFFFFFFF AND PUSH20 0xFFFFFFFFFFFFFFFFFFFFFFFFFFFFFFFFFFFFFFFF AND PUSH20 0xFFFFFFFFFFFFFFFFFFFFFFFFFFFFFFFFFFFFFFFF AND DUP2 MSTORE PUSH1 0x20 ADD PUSH1 0x1 DUP3 ADD SLOAD DUP2 MSTORE PUSH1 0x20 ADD PUSH1 0x2 DUP3 ADD SLOAD DUP2 MSTORE PUSH1 0x20 ADD PUSH1 0x3 DUP3 ADD SLOAD DUP2 MSTORE POP POP SWAP3 POP POP POP SWAP3 SWAP2 POP POP JUMP JUMPDEST PUSH0 DUP1 PUSH0 SWAP1 SLOAD SWAP1 PUSH2 0x100 EXP SWAP1 DIV PUSH20 0xFFFFFFFFFFFFFFFFFFFFFFFFFFFFFFFFFFFFFFFF AND SWAP1 POP SWAP1 JUMP JUMPDEST PUSH2 0x13A4 PUSH2 0x1A8B JUMP JUMPDEST PUSH1 0x2 PUSH1 0x1 DUP4 PUSH2 0x13B3 SWAP2 SWAP1 PUSH2 0x1F9E JUMP JUMPDEST DUP2 SLOAD DUP2 LT PUSH2 0x13C4 JUMPI PUSH2 0x13C3 PUSH2 0x1FD1 JUMP JUMPDEST JUMPDEST SWAP1 PUSH0 MSTORE PUSH1 0x20 PUSH0 KECCAK256 SWAP1 PUSH1 0x4 MUL ADD PUSH1 0x40 MLOAD DUP1 PUSH1 0x80 ADD PUSH1 0x40 MSTORE SWAP1 DUP2 PUSH0 DUP3 ADD PUSH0 SWAP1 SLOAD SWAP1 PUSH2 0x100 EXP SWAP1 DIV PUSH20 0xFFFFFFFFFFFFFFFFFFFFFFFFFFFFFFFFFFFFFFFF AND PUSH20 0xFFFFFFFFFFFFFFFFFFFFFFFFFFFFFFFFFFFFFFFF AND PUSH20 0xFFFFFFFFFFFFFFFFFFFFFFFFFFFFFFFFFFFFFFFF AND DUP2 MSTORE PUSH1 0x20 ADD PUSH1 0x1 DUP3 ADD SLOAD DUP2 MSTORE PUSH1 0x20 ADD PUSH1 0x2 DUP3 ADD SLOAD DUP2 MSTORE PUSH1 0x20 ADD PUSH1 0x3 DUP3 ADD SLOAD DUP2 MSTORE POP POP SWAP1 POP SWAP2 SWAP1 POP JUMP JUMPDEST PUSH0 PUSH1 0x1 PUSH0 SWAP1 SLOAD SWAP1 PUSH2 0x100 EXP SWAP1 DIV PUSH20 0xFFFFFFFFFFFFFFFFFFFFFFFFFFFFFFFFFFFFFFFF AND PUSH20 0xFFFFFFFFFFFFFFFFFFFFFFFFFFFFFFFFFFFFFFFF AND PUSH4 0x70A08231 ADDRESS PUSH1 0x40 MLOAD DUP3 PUSH4 0xFFFFFFFF AND PUSH1 0xE0 SHL DUP2 MSTORE PUSH1 0x4 ADD PUSH2 0x14AF SWAP2 SWAP1 PUSH2 0x1DDD JUMP JUMPDEST PUSH1 0x20 PUSH1 0x40 MLOAD DUP1 DUP4 SUB DUP2 DUP7 GAS STATICCALL ISZERO DUP1 ISZERO PUSH2 0x14CA JUMPI RETURNDATASIZE PUSH0 DUP1 RETURNDATACOPY RETURNDATASIZE PUSH0 REVERT JUMPDEST POP POP POP POP PUSH1 0x40 MLOAD RETURNDATASIZE PUSH1 0x1F NOT PUSH1 0x1F DUP3 ADD AND DUP3 ADD DUP1 PUSH1 0x40 MSTORE POP DUP2 ADD SWAP1 PUSH2 0x14EE SWAP2 SWAP1 PUSH2 0x2215 JUMP JUMPDEST SWAP1 POP SWAP1 JUMP JUMPDEST PUSH0 DUP1 PUSH1 0x2 PUSH1 0x1 DUP5 PUSH2 0x1504 SWAP2 SWAP1 PUSH2 0x1F9E JUMP JUMPDEST DUP2 SLOAD DUP2 LT PUSH2 0x1515 JUMPI PUSH2 0x1514 PUSH2 0x1FD1 JUMP JUMPDEST JUMPDEST SWAP1 PUSH0 MSTORE PUSH1 0x20 PUSH0 KECCAK256 SWAP1 PUSH1 0x4 MUL ADD PUSH1 0x40 MLOAD DUP1 PUSH1 0x80 ADD PUSH1 0x40 MSTORE SWAP1 DUP2 PUSH0 DUP3 ADD PUSH0 SWAP1 SLOAD SWAP1 PUSH2 0x100 EXP SWAP1 DIV PUSH20 0xFFFFFFFFFFFFFFFFFFFFFFFFFFFFFFFFFFFFFFFF AND PUSH20 0xFFFFFFFFFFFFFFFFFFFFFFFFFFFFFFFFFFFFFFFF AND PUSH20 0xFFFFFFFFFFFFFFFFFFFFFFFFFFFFFFFFFFFFFFFF AND DUP2 MSTORE PUSH1 0x20 ADD PUSH1 0x1 DUP3 ADD SLOAD DUP2 MSTORE PUSH1 0x20 ADD PUSH1 0x2 DUP3 ADD SLOAD DUP2 MSTORE PUSH1 0x20 ADD PUSH1 0x3 DUP3 ADD SLOAD DUP2 MSTORE POP POP SWAP1 POP PUSH0 DUP2 PUSH1 0x60 ADD MLOAD SWAP1 POP PUSH0 DUP3 PUSH1 0x40 ADD MLOAD SWAP1 POP PUSH0 PUSH1 0x2 DUP4 SUB PUSH2 0x15FD JUMPI PUSH1 0x64 PUSH1 0x1 DUP6 PUSH1 0x20 ADD MLOAD PUSH2 0x15D8 DUP6 PUSH1 0x3C DUP9 PUSH2 0x15D3 SWAP2 SWAP1 PUSH2 0x28F0 JUMP JUMPDEST PUSH2 0xF46 JUMP JUMPDEST PUSH2 0x15E2 SWAP2 SWAP1 PUSH2 0x28F0 JUMP JUMPDEST PUSH2 0x15EC SWAP2 SWAP1 PUSH2 0x28F0 JUMP JUMPDEST PUSH2 0x15F6 SWAP2 SWAP1 PUSH2 0x295E JUMP JUMPDEST SWAP1 POP PUSH2 0x1724 JUMP JUMPDEST PUSH1 0x4 DUP4 SUB PUSH2 0x1649 JUMPI PUSH1 0x64 PUSH1 0x2 DUP6 PUSH1 0x20 ADD MLOAD PUSH2 0x1624 DUP6 PUSH1 0x3C DUP9 PUSH2 0x161F SWAP2 SWAP1 PUSH2 0x28F0 JUMP JUMPDEST PUSH2 0xF46 JUMP JUMPDEST PUSH2 0x162E SWAP2 SWAP1 PUSH2 0x28F0 JUMP JUMPDEST PUSH2 0x1638 SWAP2 SWAP1 PUSH2 0x28F0 JUMP JUMPDEST PUSH2 0x1642 SWAP2 SWAP1 PUSH2 0x295E JUMP JUMPDEST SWAP1 POP PUSH2 0x1723 JUMP JUMPDEST PUSH1 0x6 DUP4 SUB PUSH2 0x1695 JUMPI PUSH1 0x64 PUSH1 0x3 DUP6 PUSH1 0x20 ADD MLOAD PUSH2 0x1670 DUP6 PUSH1 0x3C DUP9 PUSH2 0x166B SWAP2 SWAP1 PUSH2 0x28F0 JUMP JUMPDEST PUSH2 0xF46 JUMP JUMPDEST PUSH2 0x167A SWAP2 SWAP1 PUSH2 0x28F0 JUMP JUMPDEST PUSH2 0x1684 SWAP2 SWAP1 PUSH2 0x28F0 JUMP JUMPDEST PUSH2 0x168E SWAP2 SWAP1 PUSH2 0x295E JUMP JUMPDEST SWAP1 POP PUSH2 0x1722 JUMP JUMPDEST PUSH1 0x8 DUP4 SUB PUSH2 0x16E1 JUMPI PUSH1 0x64 PUSH1 0x4 DUP6 PUSH1 0x20 ADD MLOAD PUSH2 0x16BC DUP6 PUSH1 0x3C DUP9 PUSH2 0x16B7 SWAP2 SWAP1 PUSH2 0x28F0 JUMP JUMPDEST PUSH2 0xF46 JUMP JUMPDEST PUSH2 0x16C6 SWAP2 SWAP1 PUSH2 0x28F0 JUMP JUMPDEST PUSH2 0x16D0 SWAP2 SWAP1 PUSH2 0x28F0 JUMP JUMPDEST PUSH2 0x16DA SWAP2 SWAP1 PUSH2 0x295E JUMP JUMPDEST SWAP1 POP PUSH2 0x1721 JUMP JUMPDEST PUSH1 0x64 PUSH1 0x5 DUP6 PUSH1 0x20 ADD MLOAD PUSH2 0x1700 DUP6 PUSH1 0x3C DUP9 PUSH2 0x16FB SWAP2 SWAP1 PUSH2 0x28F0 JUMP JUMPDEST PUSH2 0xF46 JUMP JUMPDEST PUSH2 0x170A SWAP2 SWAP1 PUSH2 0x28F0 JUMP JUMPDEST PUSH2 0x1714 SWAP2 SWAP1 PUSH2 0x28F0 JUMP JUMPDEST PUSH2 0x171E SWAP2 SWAP1 PUSH2 0x295E JUMP JUMPDEST SWAP1 POP JUMPDEST JUMPDEST JUMPDEST JUMPDEST DUP1 SWAP5 POP POP POP POP POP SWAP2 SWAP1 POP JUMP JUMPDEST PUSH1 0x3 PUSH1 0x20 MSTORE DUP2 PUSH0 MSTORE PUSH1 0x40 PUSH0 KECCAK256 DUP2 DUP2 SLOAD DUP2 LT PUSH2 0x1749 JUMPI PUSH0 DUP1 REVERT JUMPDEST SWAP1 PUSH0 MSTORE PUSH1 0x20 PUSH0 KECCAK256 ADD PUSH0 SWAP2 POP SWAP2 POP POP SLOAD DUP2 JUMP JUMPDEST PUSH1 0x4 PUSH1 0x20 MSTORE DUP1 PUSH0 MSTORE PUSH1 0x40 PUSH0 KECCAK256 PUSH0 SWAP2 POP SWAP1 POP SLOAD DUP2 JUMP JUMPDEST PUSH0 DUP1 PUSH0 DUP1 PUSH0 PUSH1 0x2 DUP1 SLOAD SWAP1 POP DUP7 GT ISZERO PUSH2 0x17BD JUMPI PUSH1 0x40 MLOAD PUSH32 0x8C379A000000000000000000000000000000000000000000000000000000000 DUP2 MSTORE PUSH1 0x4 ADD PUSH2 0x17B4 SWAP1 PUSH2 0x29D8 JUMP JUMPDEST PUSH1 0x40 MLOAD DUP1 SWAP2 SUB SWAP1 REVERT JUMPDEST PUSH0 PUSH1 0x2 PUSH1 0x1 DUP9 PUSH2 0x17CD SWAP2 SWAP1 PUSH2 0x1F9E JUMP JUMPDEST DUP2 SLOAD DUP2 LT PUSH2 0x17DE JUMPI PUSH2 0x17DD PUSH2 0x1FD1 JUMP JUMPDEST JUMPDEST SWAP1 PUSH0 MSTORE PUSH1 0x20 PUSH0 KECCAK256 SWAP1 PUSH1 0x4 MUL ADD PUSH1 0x40 MLOAD DUP1 PUSH1 0x80 ADD PUSH1 0x40 MSTORE SWAP1 DUP2 PUSH0 DUP3 ADD PUSH0 SWAP1 SLOAD SWAP1 PUSH2 0x100 EXP SWAP1 DIV PUSH20 0xFFFFFFFFFFFFFFFFFFFFFFFFFFFFFFFFFFFFFFFF AND PUSH20 0xFFFFFFFFFFFFFFFFFFFFFFFFFFFFFFFFFFFFFFFF AND PUSH20 0xFFFFFFFFFFFFFFFFFFFFFFFFFFFFFFFFFFFFFFFF AND DUP2 MSTORE PUSH1 0x20 ADD PUSH1 0x1 DUP3 ADD SLOAD DUP2 MSTORE PUSH1 0x20 ADD PUSH1 0x2 DUP3 ADD SLOAD DUP2 MSTORE PUSH1 0x20 ADD PUSH1 0x3 DUP3 ADD SLOAD DUP2 MSTORE POP POP SWAP1 POP PUSH0 PUSH2 0x1873 DUP9 PUSH2 0x14F3 JUMP JUMPDEST SWAP1 POP DUP2 PUSH0 ADD MLOAD DUP3 PUSH1 0x20 ADD MLOAD DUP4 PUSH1 0x60 ADD MLOAD DUP5 PUSH1 0x40 ADD MLOAD DUP5 SWAP7 POP SWAP7 POP SWAP7 POP SWAP7 POP SWAP7 POP POP POP SWAP2 SWAP4 SWAP6 SWAP1 SWAP3 SWAP5 POP JUMP JUMPDEST PUSH2 0x18A6 PUSH2 0x1945 JUMP JUMPDEST PUSH0 PUSH20 0xFFFFFFFFFFFFFFFFFFFFFFFFFFFFFFFFFFFFFFFF AND DUP2 PUSH20 0xFFFFFFFFFFFFFFFFFFFFFFFFFFFFFFFFFFFFFFFF AND SUB PUSH2 0x1914 JUMPI PUSH1 0x40 MLOAD PUSH32 0x8C379A000000000000000000000000000000000000000000000000000000000 DUP2 MSTORE PUSH1 0x4 ADD PUSH2 0x190B SWAP1 PUSH2 0x2A66 JUMP JUMPDEST PUSH1 0x40 MLOAD DUP1 SWAP2 SUB SWAP1 REVERT JUMPDEST PUSH2 0x191D DUP2 PUSH2 0x19C3 JUMP JUMPDEST POP JUMP JUMPDEST PUSH1 0x1 PUSH0 SWAP1 SLOAD SWAP1 PUSH2 0x100 EXP SWAP1 DIV PUSH20 0xFFFFFFFFFFFFFFFFFFFFFFFFFFFFFFFFFFFFFFFF AND DUP2 JUMP JUMPDEST PUSH2 0x194D PUSH2 0x1A84 JUMP JUMPDEST PUSH20 0xFFFFFFFFFFFFFFFFFFFFFFFFFFFFFFFFFFFFFFFF AND PUSH2 0x196B PUSH2 0x1375 JUMP JUMPDEST PUSH20 0xFFFFFFFFFFFFFFFFFFFFFFFFFFFFFFFFFFFFFFFF AND EQ PUSH2 0x19C1 JUMPI PUSH1 0x40 MLOAD PUSH32 0x8C379A000000000000000000000000000000000000000000000000000000000 DUP2 MSTORE PUSH1 0x4 ADD PUSH2 0x19B8 SWAP1 PUSH2 0x2ACE JUMP JUMPDEST PUSH1 0x40 MLOAD DUP1 SWAP2 SUB SWAP1 REVERT JUMPDEST JUMP JUMPDEST PUSH0 DUP1 PUSH0 SWAP1 SLOAD SWAP1 PUSH2 0x100 EXP SWAP1 DIV PUSH20 0xFFFFFFFFFFFFFFFFFFFFFFFFFFFFFFFFFFFFFFFF AND SWAP1 POP DUP2 PUSH0 DUP1 PUSH2 0x100 EXP DUP2 SLOAD DUP2 PUSH20 0xFFFFFFFFFFFFFFFFFFFFFFFFFFFFFFFFFFFFFFFF MUL NOT AND SWAP1 DUP4 PUSH20 0xFFFFFFFFFFFFFFFFFFFFFFFFFFFFFFFFFFFFFFFF AND MUL OR SWAP1 SSTORE POP DUP2 PUSH20 0xFFFFFFFFFFFFFFFFFFFFFFFFFFFFFFFFFFFFFFFF AND DUP2 PUSH20 0xFFFFFFFFFFFFFFFFFFFFFFFFFFFFFFFFFFFFFFFF AND PUSH32 0x8BE0079C531659141344CD1FD0A4F28419497F9722A3DAAFE3B4186F6B6457E0 PUSH1 0x40 MLOAD PUSH1 0x40 MLOAD DUP1 SWAP2 SUB SWAP1 LOG3 POP POP JUMP JUMPDEST PUSH0 CALLER SWAP1 POP SWAP1 JUMP JUMPDEST PUSH1 0x40 MLOAD DUP1 PUSH1 0x80 ADD PUSH1 0x40 MSTORE DUP1 PUSH0 PUSH20 0xFFFFFFFFFFFFFFFFFFFFFFFFFFFFFFFFFFFFFFFF AND DUP2 MSTORE PUSH1 0x20 ADD PUSH0 DUP2 MSTORE PUSH1 0x20 ADD PUSH0 DUP2 MSTORE PUSH1 0x20 ADD PUSH0 DUP2 MSTORE POP SWAP1 JUMP JUMPDEST PUSH0 DUP1 REVERT JUMPDEST PUSH0 DUP2 SWAP1 POP SWAP2 SWAP1 POP JUMP JUMPDEST PUSH2 0x1ADB DUP2 PUSH2 0x1AC9 JUMP JUMPDEST DUP2 EQ PUSH2 0x1AE5 JUMPI PUSH0 DUP1 REVERT JUMPDEST POP JUMP JUMPDEST PUSH0 DUP2 CALLDATALOAD SWAP1 POP PUSH2 0x1AF6 DUP2 PUSH2 0x1AD2 JUMP JUMPDEST SWAP3 SWAP2 POP POP JUMP JUMPDEST PUSH0 PUSH1 0x20 DUP3 DUP5 SUB SLT ISZERO PUSH2 0x1B11 JUMPI PUSH2 0x1B10 PUSH2 0x1AC5 JUMP JUMPDEST JUMPDEST PUSH0 PUSH2 0x1B1E DUP5 DUP3 DUP6 ADD PUSH2 0x1AE8 JUMP JUMPDEST SWAP2 POP POP SWAP3 SWAP2 POP POP JUMP JUMPDEST PUSH0 PUSH20 0xFFFFFFFFFFFFFFFFFFFFFFFFFFFFFFFFFFFFFFFF DUP3 AND SWAP1 POP SWAP2 SWAP1 POP JUMP JUMPDEST PUSH0 PUSH2 0x1B50 DUP3 PUSH2 0x1B27 JUMP JUMPDEST SWAP1 POP SWAP2 SWAP1 POP JUMP JUMPDEST PUSH2 0x1B60 DUP2 PUSH2 0x1B46 JUMP JUMPDEST DUP3 MSTORE POP POP JUMP JUMPDEST PUSH2 0x1B6F DUP2 PUSH2 0x1AC9 JUMP JUMPDEST DUP3 MSTORE POP POP JUMP JUMPDEST PUSH0 PUSH1 0x80 DUP3 ADD SWAP1 POP PUSH2 0x1B88 PUSH0 DUP4 ADD DUP8 PUSH2 0x1B57 JUMP JUMPDEST PUSH2 0x1B95 PUSH1 0x20 DUP4 ADD DUP7 PUSH2 0x1B66 JUMP JUMPDEST PUSH2 0x1BA2 PUSH1 0x40 DUP4 ADD DUP6 PUSH2 0x1B66 JUMP JUMPDEST PUSH2 0x1BAF PUSH1 0x60 DUP4 ADD DUP5 PUSH2 0x1B66 JUMP JUMPDEST SWAP6 SWAP5 POP POP POP POP POP JUMP JUMPDEST PUSH2 0x1BC1 DUP2 PUSH2 0x1B46 JUMP JUMPDEST DUP2 EQ PUSH2 0x1BCB JUMPI PUSH0 DUP1 REVERT JUMPDEST POP JUMP JUMPDEST PUSH0 DUP2 CALLDATALOAD SWAP1 POP PUSH2 0x1BDC DUP2 PUSH2 0x1BB8 JUMP JUMPDEST SWAP3 SWAP2 POP POP JUMP JUMPDEST PUSH0 PUSH1 0x20 DUP3 DUP5 SUB SLT ISZERO PUSH2 0x1BF7 JUMPI PUSH2 0x1BF6 PUSH2 0x1AC5 JUMP JUMPDEST JUMPDEST PUSH0 PUSH2 0x1C04 DUP5 DUP3 DUP6 ADD PUSH2 0x1BCE JUMP JUMPDEST SWAP2 POP POP SWAP3 SWAP2 POP POP JUMP JUMPDEST PUSH0 DUP2 MLOAD SWAP1 POP SWAP2 SWAP1 POP JUMP JUMPDEST PUSH0 DUP3 DUP3 MSTORE PUSH1 0x20 DUP3 ADD SWAP1 POP SWAP3 SWAP2 POP POP JUMP JUMPDEST PUSH0 DUP2 SWAP1 POP PUSH1 0x20 DUP3 ADD SWAP1 POP SWAP2 SWAP1 POP JUMP JUMPDEST PUSH2 0x1C3F DUP2 PUSH2 0x1AC9 JUMP JUMPDEST DUP3 MSTORE POP POP JUMP JUMPDEST PUSH0 PUSH2 0x1C50 DUP4 DUP4 PUSH2 0x1C36 JUMP JUMPDEST PUSH1 0x20 DUP4 ADD SWAP1 POP SWAP3 SWAP2 POP POP JUMP JUMPDEST PUSH0 PUSH1 0x20 DUP3 ADD SWAP1 POP SWAP2 SWAP1 POP JUMP JUMPDEST PUSH0 PUSH2 0x1C72 DUP3 PUSH2 0x1C0D JUMP JUMPDEST PUSH2 0x1C7C DUP2 DUP6 PUSH2 0x1C17 JUMP JUMPDEST SWAP4 POP PUSH2 0x1C87 DUP4 PUSH2 0x1C27 JUMP JUMPDEST DUP1 PUSH0 JUMPDEST DUP4 DUP2 LT ISZERO PUSH2 0x1CB7 JUMPI DUP2 MLOAD PUSH2 0x1C9E DUP9 DUP3 PUSH2 0x1C45 JUMP JUMPDEST SWAP8 POP PUSH2 0x1CA9 DUP4 PUSH2 0x1C5C JUMP JUMPDEST SWAP3 POP POP PUSH1 0x1 DUP2 ADD SWAP1 POP PUSH2 0x1C8A JUMP JUMPDEST POP DUP6 SWAP4 POP POP POP POP SWAP3 SWAP2 POP POP JUMP JUMPDEST PUSH0 PUSH1 0x20 DUP3 ADD SWAP1 POP DUP2 DUP2 SUB PUSH0 DUP4 ADD MSTORE PUSH2 0x1CDC DUP2 DUP5 PUSH2 0x1C68 JUMP JUMPDEST SWAP1 POP SWAP3 SWAP2 POP POP JUMP JUMPDEST PUSH0 PUSH1 0x40 DUP3 ADD SWAP1 POP PUSH2 0x1CF7 PUSH0 DUP4 ADD DUP6 PUSH2 0x1B66 JUMP JUMPDEST PUSH2 0x1D04 PUSH1 0x20 DUP4 ADD DUP5 PUSH2 0x1B66 JUMP JUMPDEST SWAP4 SWAP3 POP POP POP JUMP JUMPDEST PUSH0 DUP1 PUSH1 0x40 DUP4 DUP6 SUB SLT ISZERO PUSH2 0x1D21 JUMPI PUSH2 0x1D20 PUSH2 0x1AC5 JUMP JUMPDEST JUMPDEST PUSH0 PUSH2 0x1D2E DUP6 DUP3 DUP7 ADD PUSH2 0x1AE8 JUMP JUMPDEST SWAP3 POP POP PUSH1 0x20 PUSH2 0x1D3F DUP6 DUP3 DUP7 ADD PUSH2 0x1AE8 JUMP JUMPDEST SWAP2 POP POP SWAP3 POP SWAP3 SWAP1 POP JUMP JUMPDEST PUSH0 PUSH1 0x20 DUP3 ADD SWAP1 POP PUSH2 0x1D5C PUSH0 DUP4 ADD DUP5 PUSH2 0x1B66 JUMP JUMPDEST SWAP3 SWAP2 POP POP JUMP JUMPDEST PUSH2 0x1D6B DUP2 PUSH2 0x1B46 JUMP JUMPDEST DUP3 MSTORE POP POP JUMP JUMPDEST PUSH1 0x80 DUP3 ADD PUSH0 DUP3 ADD MLOAD PUSH2 0x1D85 PUSH0 DUP6 ADD DUP3 PUSH2 0x1D62 JUMP JUMPDEST POP PUSH1 0x20 DUP3 ADD MLOAD PUSH2 0x1D98 PUSH1 0x20 DUP6 ADD DUP3 PUSH2 0x1C36 JUMP JUMPDEST POP PUSH1 0x40 DUP3 ADD MLOAD PUSH2 0x1DAB PUSH1 0x40 DUP6 ADD DUP3 PUSH2 0x1C36 JUMP JUMPDEST POP PUSH1 0x60 DUP3 ADD MLOAD PUSH2 0x1DBE PUSH1 0x60 DUP6 ADD DUP3 PUSH2 0x1C36 JUMP JUMPDEST POP POP POP POP JUMP JUMPDEST PUSH0 PUSH1 0x80 DUP3 ADD SWAP1 POP PUSH2 0x1DD7 PUSH0 DUP4 ADD DUP5 PUSH2 0x1D71 JUMP JUMPDEST SWAP3 SWAP2 POP POP JUMP JUMPDEST PUSH0 PUSH1 0x20 DUP3 ADD SWAP1 POP PUSH2 0x1DF0 PUSH0 DUP4 ADD DUP5 PUSH2 0x1B57 JUMP JUMPDEST SWAP3 SWAP2 POP POP JUMP JUMPDEST PUSH0 DUP1 PUSH1 0x40 DUP4 DUP6 SUB SLT ISZERO PUSH2 0x1E0C JUMPI PUSH2 0x1E0B PUSH2 0x1AC5 JUMP JUMPDEST JUMPDEST PUSH0 PUSH2 0x1E19 DUP6 DUP3 DUP7 ADD PUSH2 0x1BCE JUMP JUMPDEST SWAP3 POP POP PUSH1 0x20 PUSH2 0x1E2A DUP6 DUP3 DUP7 ADD PUSH2 0x1AE8 JUMP JUMPDEST SWAP2 POP POP SWAP3 POP SWAP3 SWAP1 POP JUMP JUMPDEST PUSH0 PUSH1 0xA0 DUP3 ADD SWAP1 POP PUSH2 0x1E47 PUSH0 DUP4 ADD DUP9 PUSH2 0x1B57 JUMP JUMPDEST PUSH2 0x1E54 PUSH1 0x20 DUP4 ADD DUP8 PUSH2 0x1B66 JUMP JUMPDEST PUSH2 0x1E61 PUSH1 0x40 DUP4 ADD DUP7 PUSH2 0x1B66 JUMP JUMPDEST PUSH2 0x1E6E PUSH1 0x60 DUP4 ADD DUP6 PUSH2 0x1B66 JUMP JUMPDEST PUSH2 0x1E7B PUSH1 0x80 DUP4 ADD DUP5 PUSH2 0x1B66 JUMP JUMPDEST SWAP7 SWAP6 POP POP POP POP POP POP JUMP JUMPDEST PUSH0 DUP2 SWAP1 POP SWAP2 SWAP1 POP JUMP JUMPDEST PUSH0 PUSH2 0x1EA8 PUSH2 0x1EA3 PUSH2 0x1E9E DUP5 PUSH2 0x1B27 JUMP JUMPDEST PUSH2 0x1E85 JUMP JUMPDEST PUSH2 0x1B27 JUMP JUMPDEST SWAP1 POP SWAP2 SWAP1 POP JUMP JUMPDEST PUSH0 PUSH2 0x1EB9 DUP3 PUSH2 0x1E8E JUMP JUMPDEST SWAP1 POP SWAP2 SWAP1 POP JUMP JUMPDEST PUSH0 PUSH2 0x1ECA DUP3 PUSH2 0x1EAF JUMP JUMPDEST SWAP1 POP SWAP2 SWAP1 POP JUMP JUMPDEST PUSH2 0x1EDA DUP2 PUSH2 0x1EC0 JUMP JUMPDEST DUP3 MSTORE POP POP JUMP JUMPDEST PUSH0 PUSH1 0x20 DUP3 ADD SWAP1 POP PUSH2 0x1EF3 PUSH0 DUP4 ADD DUP5 PUSH2 0x1ED1 JUMP JUMPDEST SWAP3 SWAP2 POP POP JUMP JUMPDEST PUSH0 DUP3 DUP3 MSTORE PUSH1 0x20 DUP3 ADD SWAP1 POP SWAP3 SWAP2 POP POP JUMP JUMPDEST PUSH32 0x5468697320696420646F6573206E6F7420657869737400000000000000000000 PUSH0 DUP3 ADD MSTORE POP JUMP JUMPDEST PUSH0 PUSH2 0x1F3D PUSH1 0x16 DUP4 PUSH2 0x1EF9 JUMP JUMPDEST SWAP2 POP PUSH2 0x1F48 DUP3 PUSH2 0x1F09 JUMP JUMPDEST PUSH1 0x20 DUP3 ADD SWAP1 POP SWAP2 SWAP1 POP JUMP JUMPDEST PUSH0 PUSH1 0x20 DUP3 ADD SWAP1 POP DUP2 DUP2 SUB PUSH0 DUP4 ADD MSTORE PUSH2 0x1F6A DUP2 PUSH2 0x1F31 JUMP JUMPDEST SWAP1 POP SWAP2 SWAP1 POP JUMP JUMPDEST PUSH32 0x4E487B7100000000000000000000000000000000000000000000000000000000 PUSH0 MSTORE PUSH1 0x11 PUSH1 0x4 MSTORE PUSH1 0x24 PUSH0 REVERT JUMPDEST PUSH0 PUSH2 0x1FA8 DUP3 PUSH2 0x1AC9 JUMP JUMPDEST SWAP2 POP PUSH2 0x1FB3 DUP4 PUSH2 0x1AC9 JUMP JUMPDEST SWAP3 POP DUP3 DUP3 SUB SWAP1 POP DUP2 DUP2 GT ISZERO PUSH2 0x1FCB JUMPI PUSH2 0x1FCA PUSH2 0x1F71 JUMP JUMPDEST JUMPDEST SWAP3 SWAP2 POP POP JUMP JUMPDEST PUSH32 0x4E487B7100000000000000000000000000000000000000000000000000000000 PUSH0 MSTORE PUSH1 0x32 PUSH1 0x4 MSTORE PUSH1 0x24 PUSH0 REVERT JUMPDEST PUSH32 0x596F75207573652074686973204944206265666F72652061742070726573656E PUSH0 DUP3 ADD MSTORE PUSH32 0x742074696D65207468697320696420646F6573206E6F74206578697374000000 PUSH1 0x20 DUP3 ADD MSTORE POP JUMP JUMPDEST PUSH0 PUSH2 0x2058 PUSH1 0x3D DUP4 PUSH2 0x1EF9 JUMP JUMPDEST SWAP2 POP PUSH2 0x2063 DUP3 PUSH2 0x1FFE JUMP JUMPDEST PUSH1 0x40 DUP3 ADD SWAP1 POP SWAP2 SWAP1 POP JUMP JUMPDEST PUSH0 PUSH1 0x20 DUP3 ADD SWAP1 POP DUP2 DUP2 SUB PUSH0 DUP4 ADD MSTORE PUSH2 0x2085 DUP2 PUSH2 0x204C JUMP JUMPDEST SWAP1 POP SWAP2 SWAP1 POP JUMP JUMPDEST PUSH32 0x596F75206E6F7420636C61696D20746869732072657761726420626563617573 PUSH0 DUP3 ADD MSTORE PUSH32 0x6520796F7520617265206E6F74206F776E6572206F6620746869732069640000 PUSH1 0x20 DUP3 ADD MSTORE POP JUMP JUMPDEST PUSH0 PUSH2 0x20E6 PUSH1 0x3E DUP4 PUSH2 0x1EF9 JUMP JUMPDEST SWAP2 POP PUSH2 0x20F1 DUP3 PUSH2 0x208C JUMP JUMPDEST PUSH1 0x40 DUP3 ADD SWAP1 POP SWAP2 SWAP1 POP JUMP JUMPDEST PUSH0 PUSH1 0x20 DUP3 ADD SWAP1 POP DUP2 DUP2 SUB PUSH0 DUP4 ADD MSTORE PUSH2 0x2113 DUP2 PUSH2 0x20DA JUMP JUMPDEST SWAP1 POP SWAP2 SWAP1 POP JUMP JUMPDEST PUSH0 PUSH2 0x2124 DUP3 PUSH2 0x1AC9 JUMP JUMPDEST SWAP2 POP PUSH2 0x212F DUP4 PUSH2 0x1AC9 JUMP JUMPDEST SWAP3 POP DUP3 DUP3 ADD SWAP1 POP DUP1 DUP3 GT ISZERO PUSH2 0x2147 JUMPI PUSH2 0x2146 PUSH2 0x1F71 JUMP JUMPDEST JUMPDEST SWAP3 SWAP2 POP POP JUMP JUMPDEST PUSH32 0x596F7520646F6573206E6F7420636C61696D2072657761726420626563617573 PUSH0 DUP3 ADD MSTORE PUSH32 0x65206D6174757269747920706572696F64206973206E6F7420636F6D706C6574 PUSH1 0x20 DUP3 ADD MSTORE PUSH32 0x6564000000000000000000000000000000000000000000000000000000000000 PUSH1 0x40 DUP3 ADD MSTORE POP JUMP JUMPDEST PUSH0 PUSH2 0x21CD PUSH1 0x42 DUP4 PUSH2 0x1EF9 JUMP JUMPDEST SWAP2 POP PUSH2 0x21D8 DUP3 PUSH2 0x214D JUMP JUMPDEST PUSH1 0x60 DUP3 ADD SWAP1 POP SWAP2 SWAP1 POP JUMP JUMPDEST PUSH0 PUSH1 0x20 DUP3 ADD SWAP1 POP DUP2 DUP2 SUB PUSH0 DUP4 ADD MSTORE PUSH2 0x21FA DUP2 PUSH2 0x21C1 JUMP JUMPDEST SWAP1 POP SWAP2 SWAP1 POP JUMP JUMPDEST PUSH0 DUP2 MLOAD SWAP1 POP PUSH2 0x220F DUP2 PUSH2 0x1AD2 JUMP JUMPDEST SWAP3 SWAP2 POP POP JUMP JUMPDEST PUSH0 PUSH1 0x20 DUP3 DUP5 SUB SLT ISZERO PUSH2 0x222A JUMPI PUSH2 0x2229 PUSH2 0x1AC5 JUMP JUMPDEST JUMPDEST PUSH0 PUSH2 0x2237 DUP5 DUP3 DUP6 ADD PUSH2 0x2201 JUMP JUMPDEST SWAP2 POP POP SWAP3 SWAP2 POP POP JUMP JUMPDEST PUSH32 0x536F72727920636F6E74726163742068617665206E6F20656E6F75676820746F PUSH0 DUP3 ADD MSTORE PUSH32 0x6B656E732E205765207265736F6C766520746869732070726F626C656D207368 PUSH1 0x20 DUP3 ADD MSTORE PUSH32 0x6F72746C79000000000000000000000000000000000000000000000000000000 PUSH1 0x40 DUP3 ADD MSTORE POP JUMP JUMPDEST PUSH0 PUSH2 0x22C0 PUSH1 0x45 DUP4 PUSH2 0x1EF9 JUMP JUMPDEST SWAP2 POP PUSH2 0x22CB DUP3 PUSH2 0x2240 JUMP JUMPDEST PUSH1 0x60 DUP3 ADD SWAP1 POP SWAP2 SWAP1 POP JUMP JUMPDEST PUSH0 PUSH1 0x20 DUP3 ADD SWAP1 POP DUP2 DUP2 SUB PUSH0 DUP4 ADD MSTORE PUSH2 0x22ED DUP2 PUSH2 0x22B4 JUMP JUMPDEST SWAP1 POP SWAP2 SWAP1 POP JUMP JUMPDEST PUSH0 PUSH1 0x40 DUP3 ADD SWAP1 POP PUSH2 0x2307 PUSH0 DUP4 ADD DUP6 PUSH2 0x1B57 JUMP JUMPDEST PUSH2 0x2314 PUSH1 0x20 DUP4 ADD DUP5 PUSH2 0x1B66 JUMP JUMPDEST SWAP4 SWAP3 POP POP POP JUMP JUMPDEST PUSH0 DUP2 ISZERO ISZERO SWAP1 POP SWAP2 SWAP1 POP JUMP JUMPDEST PUSH2 0x232F DUP2 PUSH2 0x231B JUMP JUMPDEST DUP2 EQ PUSH2 0x2339 JUMPI PUSH0 DUP1 REVERT JUMPDEST POP JUMP JUMPDEST PUSH0 DUP2 MLOAD SWAP1 POP PUSH2 0x234A DUP2 PUSH2 0x2326 JUMP JUMPDEST SWAP3 SWAP2 POP POP JUMP JUMPDEST PUSH0 PUSH1 0x20 DUP3 DUP5 SUB SLT ISZERO PUSH2 0x2365 JUMPI PUSH2 0x2364 PUSH2 0x1AC5 JUMP JUMPDEST JUMPDEST PUSH0 PUSH2 0x2372 DUP5 DUP3 DUP6 ADD PUSH2 0x233C JUMP JUMPDEST SWAP2 POP POP SWAP3 SWAP2 POP POP JUMP JUMPDEST PUSH32 0x207468697320696420646F6573206E6F74206578697374000000000000000000 PUSH0 DUP3 ADD MSTORE POP JUMP JUMPDEST PUSH0 PUSH2 0x23AF PUSH1 0x17 DUP4 PUSH2 0x1EF9 JUMP JUMPDEST SWAP2 POP PUSH2 0x23BA DUP3 PUSH2 0x237B JUMP JUMPDEST PUSH1 0x20 DUP3 ADD SWAP1 POP SWAP2 SWAP1 POP JUMP JUMPDEST PUSH0 PUSH1 0x20 DUP3 ADD SWAP1 POP DUP2 DUP2 SUB PUSH0 DUP4 ADD MSTORE PUSH2 0x23DC DUP2 PUSH2 0x23A3 JUMP JUMPDEST SWAP1 POP SWAP2 SWAP1 POP JUMP JUMPDEST PUSH32 0x596F75206E6F7420636C61696D207468697320616D6F756E7420626563617573 PUSH0 DUP3 ADD MSTORE PUSH32 0x6520796F7520617265206E6F74206F776E6572206F6620746869732069640000 PUSH1 0x20 DUP3 ADD MSTORE POP JUMP JUMPDEST PUSH0 PUSH2 0x243D PUSH1 0x3E DUP4 PUSH2 0x1EF9 JUMP JUMPDEST SWAP2 POP PUSH2 0x2448 DUP3 PUSH2 0x23E3 JUMP JUMPDEST PUSH1 0x40 DUP3 ADD SWAP1 POP SWAP2 SWAP1 POP JUMP JUMPDEST PUSH0 PUSH1 0x20 DUP3 ADD SWAP1 POP DUP2 DUP2 SUB PUSH0 DUP4 ADD MSTORE PUSH2 0x246A DUP2 PUSH2 0x2431 JUMP JUMPDEST SWAP1 POP SWAP2 SWAP1 POP JUMP JUMPDEST PUSH32 0x596F75206F6E6C7920636C61696D20616D6F756E7420616674657220636C6169 PUSH0 DUP3 ADD MSTORE PUSH32 0x6D696E6720726577617264000000000000000000000000000000000000000000 PUSH1 0x20 DUP3 ADD MSTORE POP JUMP JUMPDEST PUSH0 PUSH2 0x24CB PUSH1 0x2B DUP4 PUSH2 0x1EF9 JUMP JUMPDEST SWAP2 POP PUSH2 0x24D6 DUP3 PUSH2 0x2471 JUMP JUMPDEST PUSH1 0x40 DUP3 ADD SWAP1 POP SWAP2 SWAP1 POP JUMP JUMPDEST PUSH0 PUSH1 0x20 DUP3 ADD SWAP1 POP DUP2 DUP2 SUB PUSH0 DUP4 ADD MSTORE PUSH2 0x24F8 DUP2 PUSH2 0x24BF JUMP JUMPDEST SWAP1 POP SWAP2 SWAP1 POP JUMP JUMPDEST PUSH32 0x596F752063616E20636C61696D20616D6F756E74206F6E6C7920616674657220 PUSH0 DUP3 ADD MSTORE PUSH32 0x32206D696E757465732066726F6D207468652074696D65206F6620436C61696D PUSH1 0x20 DUP3 ADD MSTORE PUSH32 0x2052657761726473000000000000000000000000000000000000000000000000 PUSH1 0x40 DUP3 ADD MSTORE POP JUMP JUMPDEST PUSH0 PUSH2 0x257F PUSH1 0x48 DUP4 PUSH2 0x1EF9 JUMP JUMPDEST SWAP2 POP PUSH2 0x258A DUP3 PUSH2 0x24FF JUMP JUMPDEST PUSH1 0x60 DUP3 ADD SWAP1 POP SWAP2 SWAP1 POP JUMP JUMPDEST PUSH0 PUSH1 0x20 DUP3 ADD SWAP1 POP DUP2 DUP2 SUB PUSH0 DUP4 ADD MSTORE PUSH2 0x25AC DUP2 PUSH2 0x2573 JUMP JUMPDEST SWAP1 POP SWAP2 SWAP1 POP JUMP JUMPDEST PUSH32 0x536F72727920636F6E74726163742068617665206E6F20656E6F75676820746F PUSH0 DUP3 ADD MSTORE PUSH32 0x6B656E7300000000000000000000000000000000000000000000000000000000 PUSH1 0x20 DUP3 ADD MSTORE POP JUMP JUMPDEST PUSH0 PUSH2 0x260D PUSH1 0x24 DUP4 PUSH2 0x1EF9 JUMP JUMPDEST SWAP2 POP PUSH2 0x2618 DUP3 PUSH2 0x25B3 JUMP JUMPDEST PUSH1 0x40 DUP3 ADD SWAP1 POP SWAP2 SWAP1 POP JUMP JUMPDEST PUSH0 PUSH1 0x20 DUP3 ADD SWAP1 POP DUP2 DUP2 SUB PUSH0 DUP4 ADD MSTORE PUSH2 0x263A DUP2 PUSH2 0x2601 JUMP JUMPDEST SWAP1 POP SWAP2 SWAP1 POP JUMP JUMPDEST PUSH32 0x496E76616C696420696E7075743A20496E70757420696420646F65736E742065 PUSH0 DUP3 ADD MSTORE PUSH32 0x7869737400000000000000000000000000000000000000000000000000000000 PUSH1 0x20 DUP3 ADD MSTORE POP JUMP JUMPDEST PUSH0 PUSH2 0x269B PUSH1 0x24 DUP4 PUSH2 0x1EF9 JUMP JUMPDEST SWAP2 POP PUSH2 0x26A6 DUP3 PUSH2 0x2641 JUMP JUMPDEST PUSH1 0x40 DUP3 ADD SWAP1 POP SWAP2 SWAP1 POP JUMP JUMPDEST PUSH0 PUSH1 0x20 DUP3 ADD SWAP1 POP DUP2 DUP2 SUB PUSH0 DUP4 ADD MSTORE PUSH2 0x26C8 DUP2 PUSH2 0x268F JUMP JUMPDEST SWAP1 POP SWAP2 SWAP1 POP JUMP JUMPDEST PUSH32 0x54686973206164647265737320636F727265736F6E64696E6720746F20696420 PUSH0 DUP3 ADD MSTORE PUSH32 0x697320616C726561647920757365640000000000000000000000000000000000 PUSH1 0x20 DUP3 ADD MSTORE POP JUMP JUMPDEST PUSH0 PUSH2 0x2729 PUSH1 0x2F DUP4 PUSH2 0x1EF9 JUMP JUMPDEST SWAP2 POP PUSH2 0x2734 DUP3 PUSH2 0x26CF JUMP JUMPDEST PUSH1 0x40 DUP3 ADD SWAP1 POP SWAP2 SWAP1 POP JUMP JUMPDEST PUSH0 PUSH1 0x20 DUP3 ADD SWAP1 POP DUP2 DUP2 SUB PUSH0 DUP4 ADD MSTORE PUSH2 0x2756 DUP2 PUSH2 0x271D JUMP JUMPDEST SWAP1 POP SWAP2 SWAP1 POP JUMP JUMPDEST PUSH32 0x5374616B6520616D6F756E74206D757374206265206E6F6E2D7A65726F000000 PUSH0 DUP3 ADD MSTORE POP JUMP JUMPDEST PUSH0 PUSH2 0x2791 PUSH1 0x1D DUP4 PUSH2 0x1EF9 JUMP JUMPDEST SWAP2 POP PUSH2 0x279C DUP3 PUSH2 0x275D JUMP JUMPDEST PUSH1 0x20 DUP3 ADD SWAP1 POP SWAP2 SWAP1 POP JUMP JUMPDEST PUSH0 PUSH1 0x20 DUP3 ADD SWAP1 POP DUP2 DUP2 SUB PUSH0 DUP4 ADD MSTORE PUSH2 0x27BE DUP2 PUSH2 0x2785 JUMP JUMPDEST SWAP1 POP SWAP2 SWAP1 POP JUMP JUMPDEST PUSH32 0x496E73756666696369656E742062616C616E6365000000000000000000000000 PUSH0 DUP3 ADD MSTORE POP JUMP JUMPDEST PUSH0 PUSH2 0x27F9 PUSH1 0x14 DUP4 PUSH2 0x1EF9 JUMP JUMPDEST SWAP2 POP PUSH2 0x2804 DUP3 PUSH2 0x27C5 JUMP JUMPDEST PUSH1 0x20 DUP3 ADD SWAP1 POP SWAP2 SWAP1 POP JUMP JUMPDEST PUSH0 PUSH1 0x20 DUP3 ADD SWAP1 POP DUP2 DUP2 SUB PUSH0 DUP4 ADD MSTORE PUSH2 0x2826 DUP2 PUSH2 0x27ED JUMP JUMPDEST SWAP1 POP SWAP2 SWAP1 POP JUMP JUMPDEST PUSH32 0x54696D652063616E206F6E6C7920626520696E206576656E206D696E75746573 PUSH0 DUP3 ADD MSTORE PUSH32 0x20616E64206C657373207468616E206F7220657175616C20746F203130000000 PUSH1 0x20 DUP3 ADD MSTORE POP JUMP JUMPDEST PUSH0 PUSH2 0x2887 PUSH1 0x3D DUP4 PUSH2 0x1EF9 JUMP JUMPDEST SWAP2 POP PUSH2 0x2892 DUP3 PUSH2 0x282D JUMP JUMPDEST PUSH1 0x40 DUP3 ADD SWAP1 POP SWAP2 SWAP1 POP JUMP JUMPDEST PUSH0 PUSH1 0x20 DUP3 ADD SWAP1 POP DUP2 DUP2 SUB PUSH0 DUP4 ADD MSTORE PUSH2 0x28B4 DUP2 PUSH2 0x287B JUMP JUMPDEST SWAP1 POP SWAP2 SWAP1 POP JUMP JUMPDEST PUSH0 PUSH1 0x60 DUP3 ADD SWAP1 POP PUSH2 0x28CE PUSH0 DUP4 ADD DUP7 PUSH2 0x1B57 JUMP JUMPDEST PUSH2 0x28DB PUSH1 0x20 DUP4 ADD DUP6 PUSH2 0x1B57 JUMP JUMPDEST PUSH2 0x28E8 PUSH1 0x40 DUP4 ADD DUP5 PUSH2 0x1B66 JUMP JUMPDEST SWAP5 SWAP4 POP POP POP POP JUMP JUMPDEST PUSH0 PUSH2 0x28FA DUP3 PUSH2 0x1AC9 JUMP JUMPDEST SWAP2 POP PUSH2 0x2905 DUP4 PUSH2 0x1AC9 JUMP JUMPDEST SWAP3 POP DUP3 DUP3 MUL PUSH2 0x2913 DUP2 PUSH2 0x1AC9 JUMP JUMPDEST SWAP2 POP DUP3 DUP3 DIV DUP5 EQ DUP4 ISZERO OR PUSH2 0x292A JUMPI PUSH2 0x2929 PUSH2 0x1F71 JUMP JUMPDEST JUMPDEST POP SWAP3 SWAP2 POP POP JUMP JUMPDEST PUSH32 0x4E487B7100000000000000000000000000000000000000000000000000000000 PUSH0 MSTORE PUSH1 0x12 PUSH1 0x4 MSTORE PUSH1 0x24 PUSH0 REVERT JUMPDEST PUSH0 PUSH2 0x2968 DUP3 PUSH2 0x1AC9 JUMP JUMPDEST SWAP2 POP PUSH2 0x2973 DUP4 PUSH2 0x1AC9 JUMP JUMPDEST SWAP3 POP DUP3 PUSH2 0x2983 JUMPI PUSH2 0x2982 PUSH2 0x2931 JUMP JUMPDEST JUMPDEST DUP3 DUP3 DIV SWAP1 POP SWAP3 SWAP2 POP POP JUMP JUMPDEST PUSH32 0x496E76616C6964207374616B696E672049440000000000000000000000000000 PUSH0 DUP3 ADD MSTORE POP JUMP JUMPDEST PUSH0 PUSH2 0x29C2 PUSH1 0x12 DUP4 PUSH2 0x1EF9 JUMP JUMPDEST SWAP2 POP PUSH2 0x29CD DUP3 PUSH2 0x298E JUMP JUMPDEST PUSH1 0x20 DUP3 ADD SWAP1 POP SWAP2 SWAP1 POP JUMP JUMPDEST PUSH0 PUSH1 0x20 DUP3 ADD SWAP1 POP DUP2 DUP2 SUB PUSH0 DUP4 ADD MSTORE PUSH2 0x29EF DUP2 PUSH2 0x29B6 JUMP JUMPDEST SWAP1 POP SWAP2 SWAP1 POP JUMP JUMPDEST PUSH32 0x4F776E61626C653A206E6577206F776E657220697320746865207A65726F2061 PUSH0 DUP3 ADD MSTORE PUSH32 0x6464726573730000000000000000000000000000000000000000000000000000 PUSH1 0x20 DUP3 ADD MSTORE POP JUMP JUMPDEST PUSH0 PUSH2 0x2A50 PUSH1 0x26 DUP4 PUSH2 0x1EF9 JUMP JUMPDEST SWAP2 POP PUSH2 0x2A5B DUP3 PUSH2 0x29F6 JUMP JUMPDEST PUSH1 0x40 DUP3 ADD SWAP1 POP SWAP2 SWAP1 POP JUMP JUMPDEST PUSH0 PUSH1 0x20 DUP3 ADD SWAP1 POP DUP2 DUP2 SUB PUSH0 DUP4 ADD MSTORE PUSH2 0x2A7D DUP2 PUSH2 0x2A44 JUMP JUMPDEST SWAP1 POP SWAP2 SWAP1 POP JUMP JUMPDEST PUSH32 0x4F776E61626C653A2063616C6C6572206973206E6F7420746865206F776E6572 PUSH0 DUP3 ADD MSTORE POP JUMP JUMPDEST PUSH0 PUSH2 0x2AB8 PUSH1 0x20 DUP4 PUSH2 0x1EF9 JUMP JUMPDEST SWAP2 POP PUSH2 0x2AC3 DUP3 PUSH2 0x2A84 JUMP JUMPDEST PUSH1 0x20 DUP3 ADD SWAP1 POP SWAP2 SWAP1 POP JUMP JUMPDEST PUSH0 PUSH1 0x20 DUP3 ADD SWAP1 POP DUP2 DUP2 SUB PUSH0 DUP4 ADD MSTORE PUSH2 0x2AE5 DUP2 PUSH2 0x2AAC JUMP JUMPDEST SWAP1 POP SWAP2 SWAP1 POP JUMP INVALID LOG2 PUSH5 0x6970667358 0x22 SLT KECCAK256 SELFDESTRUCT MSTORE 0x4D SWAP9 PUSH30 0xFF4B4A037601E2F3DC0251FF9C636DAB267F223D15F701F5FE71B864736F PUSH13 0x63430008140033000000000000 "
				},
				"gasEstimates": {
					"creation": {
						"codeDepositCost": "2208400",
						"executionCost": "infinite",
						"totalCost": "infinite"
					},
					"external": {
						"calculateReward(uint256)": "infinite",
						"calculateRewardTillTime(uint256)": "infinite",
						"claimAmount(uint256)": "infinite",
						"claimRewards(uint256)": "infinite",
						"getDetails(uint256)": "infinite",
						"getStakeContractBalance()": "infinite",
						"getStakingDetails(uint256)": "infinite",
						"id(address,uint256)": "infinite",
						"idByAddress(address)": "infinite",
						"min(uint256,uint256)": "infinite",
						"owner()": "2538",
						"renounceOwnership()": "30435",
						"stake(uint256,uint256)": "infinite",
						"stakeInformation(uint256)": "infinite",
						"timeid(uint256)": "infinite",
						"token()": "infinite",
						"transferOwnership(address)": "30819"
					}
				},
				"methodIdentifiers": {
					"calculateReward(uint256)": "d2d7231f",
					"calculateRewardTillTime(uint256)": "68a12b3a",
					"claimAmount(uint256)": "23b221a0",
					"claimRewards(uint256)": "0962ef79",
					"getDetails(uint256)": "b93a89f7",
					"getStakeContractBalance()": "bf8f0218",
					"getStakingDetails(uint256)": "eab88bf5",
					"id(address,uint256)": "d313eb13",
					"idByAddress(address)": "54f9abfa",
					"min(uint256,uint256)": "7ae2b5c7",
					"owner()": "8da5cb5b",
					"renounceOwnership()": "715018a6",
					"stake(uint256,uint256)": "7b0472f0",
					"stakeInformation(uint256)": "3d1f924e",
					"timeid(uint256)": "dcb51334",
					"token()": "fc0c546a",
					"transferOwnership(address)": "f2fde38b"
				}
			},
			"storageLayout": {
				"storage": [
					{
						"astId": 7,
						"contract": "contracts/Staking/staking.sol:Staking",
						"label": "_owner",
						"offset": 0,
						"slot": "0",
						"type": "t_address"
					},
					{
						"astId": 833,
						"contract": "contracts/Staking/staking.sol:Staking",
						"label": "token",
						"offset": 0,
						"slot": "1",
						"type": "t_contract(IERC20)777"
					},
					{
						"astId": 858,
						"contract": "contracts/Staking/staking.sol:Staking",
						"label": "stakeInformation",
						"offset": 0,
						"slot": "2",
						"type": "t_array(t_struct(stakerInfo)854_storage)dyn_storage"
					},
					{
						"astId": 863,
						"contract": "contracts/Staking/staking.sol:Staking",
						"label": "id",
						"offset": 0,
						"slot": "3",
						"type": "t_mapping(t_address,t_array(t_uint256)dyn_storage)"
					},
					{
						"astId": 867,
						"contract": "contracts/Staking/staking.sol:Staking",
						"label": "timeid",
						"offset": 0,
						"slot": "4",
						"type": "t_mapping(t_uint256,t_uint256)"
					}
				],
				"types": {
					"t_address": {
						"encoding": "inplace",
						"label": "address",
						"numberOfBytes": "20"
					},
					"t_array(t_struct(stakerInfo)854_storage)dyn_storage": {
						"base": "t_struct(stakerInfo)854_storage",
						"encoding": "dynamic_array",
						"label": "struct Staking.stakerInfo[]",
						"numberOfBytes": "32"
					},
					"t_array(t_uint256)dyn_storage": {
						"base": "t_uint256",
						"encoding": "dynamic_array",
						"label": "uint256[]",
						"numberOfBytes": "32"
					},
					"t_contract(IERC20)777": {
						"encoding": "inplace",
						"label": "contract IERC20",
						"numberOfBytes": "20"
					},
					"t_mapping(t_address,t_array(t_uint256)dyn_storage)": {
						"encoding": "mapping",
						"key": "t_address",
						"label": "mapping(address => uint256[])",
						"numberOfBytes": "32",
						"value": "t_array(t_uint256)dyn_storage"
					},
					"t_mapping(t_uint256,t_uint256)": {
						"encoding": "mapping",
						"key": "t_uint256",
						"label": "mapping(uint256 => uint256)",
						"numberOfBytes": "32",
						"value": "t_uint256"
					},
					"t_struct(stakerInfo)854_storage": {
						"encoding": "inplace",
						"label": "struct Staking.stakerInfo",
						"members": [
							{
								"astId": 847,
								"contract": "contracts/Staking/staking.sol:Staking",
								"label": "user",
								"offset": 0,
								"slot": "0",
								"type": "t_address"
							},
							{
								"astId": 849,
								"contract": "contracts/Staking/staking.sol:Staking",
								"label": "amountStake",
								"offset": 0,
								"slot": "1",
								"type": "t_uint256"
							},
							{
								"astId": 851,
								"contract": "contracts/Staking/staking.sol:Staking",
								"label": "time",
								"offset": 0,
								"slot": "2",
								"type": "t_uint256"
							},
							{
								"astId": 853,
								"contract": "contracts/Staking/staking.sol:Staking",
								"label": "tenure",
								"offset": 0,
								"slot": "3",
								"type": "t_uint256"
							}
						],
						"numberOfBytes": "128"
					},
					"t_uint256": {
						"encoding": "inplace",
						"label": "uint256",
						"numberOfBytes": "32"
					}
				}
			},
			"userdoc": {
				"kind": "user",
				"methods": {},
				"version": 1
			}
		}
	}
}